:020000040800F2
:10000000180A002009010008A511000813010008C2
:10001000A3110008030B000855420008000000006F
:100020000000000000000000000000001B010008AC
:10003000210B0008000000001F010008210100083A
:100040002301000823010008230100082301000800
:100050002301000823010008410B00081D0C0008C3
:100060004D0C00087D0C0008AD0C000823010008B1
:1000700023010008230100082301000823010008D0
:1000800023010008230100082301000823010008C0
:10009000230100082301000823010008DD0C0008EB
:1000A00023010008230100082301000823010008A0
:1000B000D13800080D390008230100082301000889
:1000C0002301000823010008230100082301000880
:1000D00023010008F53D0008230100082301000862
:1000E000710B0008ED15000823010008230100082A
:1000F00023010008DFF80CD000F07AFB004800472D
:10010000794B0008180A0020064880470648004737
:10011000FEE7FEE7FEE7FEE7FEE7FEE7FEE7FEE7B7
:10012000FEE7FEE77D380008F500000840EA01031D
:100130009B0703D009E008C9121F08C0042AFAD29D
:1001400003E011F8013B00F8013B521EF9D2704761
:10015000D2B201E000F8012B491EFBD27047002209
:10016000F6E710B513460A4604461946FFF7F0FFB6
:10017000204610BD421E12F8013F002BFBD111F8A2
:10018000013B02F8013B002BF9D170472DE9FE4FEE
:10019000804681EA0300C00F0C46009021F0004128
:1001A00023F00045B8EB0200A94105D240462146A4
:1001B00090461C460B46024623F00040104347D0B1
:1001C000270DC7F30A00C3F30A510290401A0190A9
:1001D00040286BDAC3F3130040F4801B009892466A
:1001E00020B10023D2EB030A63EB0B0B01985946B5
:1001F000C0F14002504600F029FA06460D4650462E
:100200005946019A00F041FA10EB080061410024C0
:1002100087EA115284EAE7731A4340D0009A62B326
:10022000019A012A4FEA075215DC001B61EB02011B
:100230004FF0004202EA0752CDE90042001C41F5AE
:10024000801132462B4600F041FA03B0BDE8F08F32
:1002500040462146F9E7001B61EB0201001C41F515
:10026000801300185B412018A2F5001747EB03012B
:1002700040EAD570B6196D4111E06D084FEA3606B7
:1002800045EAC0754FEA0752001B61EB0201001CF2
:1002900041F5801149084FEA3000001951413246BA
:1002A0002B4603B0BDE8F04F00F001BA00980122E0
:1002B00040000023D0EB020263EBE073009821467C
:1002C0004FEAE074B8EB000061EB0401E9E783F06A
:1002D00000435BE781F0004158E72DE9FE4F81EADA
:1002E000030404F0004421F0004100944FF0000B9F
:1002F00023F0004350EA01045ED052EA03045BD0CD
:10030000C3F30A54C1F30A552C44A4F2F334019404
:10031000A0FB0254C1F3130141F48011C3F3130392
:1003200043F4801301FB024400FB034E840A970A46
:1003300044EA815447EA8357A4FB076802958D0A73
:1003400005FB07854FEA932C04FB0C542705029DFF
:100350004FEA065847EA1637B5EB08056EEB070C6F
:10036000870E920E47EA811742EA8312A7FB020129
:10037000B6EB0B0164EB00042B0D43EA0C335E1863
:1003800044EB1C50DA465146E7FB0201C5F3130467
:100390004FEA0B3343EA14534FEA0432019C43EA19
:1003A0000603A4F10C040294009CCDE900B400F013
:1003B0008DF903B0BDE8F08F00200146F9E72DE983
:1003C000F04D81EA030404F0004B21F0004514468F
:1003D0004FF0000A23F0004150EA050220D054EA11
:1003E00001021DD0C5F30A570246C5F31303C1F33A
:1003F0001300C1F30A5640F4801543F48013A7EBB1
:100400000608101BD64608F2FD3873EB050002D330
:1004100008F1010801E092185B41B8F1000F03DA1E
:1004200000200146BDE8F08D00204FF48011064603
:1004300084460EE0171B73EB050705D3121B63EB15
:10044000050306434CEA010C49084FEA30009218B4
:100450005B4150EA0107EDD152EA030012D082EA73
:10046000040083EA0501084305D0101BAB4106D206
:100470000122002306E000224FF0004302E06FF06B
:10048000010253101AEB06004CEB085110EB0A0066
:1004900041EB0B01BDE8F04D00F009B970B521F05A
:1004A000004303430CD0C1F30A550024D5EB0405E7
:1004B00064EB0403D617AD1AB34102DB00200146FA
:1004C00070BD201841EB025170BD0EB5C10F80EA1E
:1004D000E0700844CA07002140F233438DE80E0063
:1004E0000A460B4600F0F2F803B000BD0EB540F22C
:1004F000334102910021CDE900110A460B4600F07C
:10050000E5F803B000BD0EB540F23342029200227E
:10051000CDE90022134600F0D9F803B000BD70B554
:10052000C1F30A5201F000450024C1F3130140F267
:10053000FF3341F480119A4201DA002070BD40F28D
:1005400033439A42A2F2334203DC524200F08DF868
:1005500000E090402C43F1D0404270BDC1F30A52FC
:1005600010B5C1F3130140F2FF3341F480119A42F8
:1005700001DA002010BD40F233439A42A2F2334226
:1005800003DC524200F071F810BD904010BDC1F381
:100590000A52C1F3130140F2FF3341F480119A4231
:1005A00002DA00200146704740F233439A42A2F239
:1005B000334202DC524200F058B800F047B8000065
:1005C00030B5041E71F1000404DB4FF000444042DA
:1005D00064EB0101141E73F1000405DB1C464FF0AF
:1005E0000043524263EB04038B4208BF824230BD9A
:1005F00030B5041E71F1000404DB4FF000444042AA
:1006000064EB0101141E73F1000405DB1C464FF07E
:100610000043524263EB0403994208BF904230BD4D
:1006200030B50B46014600202022012409E021FAC2
:1006300002F59D4205D303FA02F5491B04FA02F5BF
:100640002844151EA2F10102F1DC30BD202A04DB92
:10065000203A00FA02F1002070479140C2F12003D5
:1006600020FA03F3194390407047202A04DB203A14
:1006700021FA02F00021704721FA02F3D040C2F1C2
:1006800020029140084319467047202A06DBCB1709
:10069000203A41FA02F043EAE07306E041FA02F33D
:1006A000D040C2F12002914008431946704710B56E
:1006B000141E73F1000408DA401C41F10001921885
:1006C0005B411A4301D120F0010010BD2DE9F04D2E
:1006D00092469B4611B1B1FA81F202E0B0FA80F283
:1006E00020329046FFF7B2FF04460F4640EA0A0068
:1006F00041EA0B0153465A46084313D0114653EAC8
:10070000010019D0C8F140025046FFF7AEFF054680
:100710000E46504659464246FFF798FF084305D01B
:10072000012004E020463946BDE8F08D0020054355
:1007300046EAE0762C4337430A986305E40AA0EBC7
:1007400008000022FD0A44EA47540A3002D500207E
:100750000146E9E7010510196941DDE9084500197D
:100760006941BDE8F04DA2E72DE9F041054621F0D1
:1007700000400C46284309D0C4F30A5040F23341EC
:10078000884205DD28462146BDE8F0812846FBE782
:1007900040F2FE31884210DC0CDB4FEA043040EAC4
:1007A000155050EA053105D0104804F000410143CE
:1007B0000020E9E700200146E6E7A0F23340464288
:1007C000C6F1400228462146FFF740FF074688460B
:1007D000284621463246FFF748FF43463A46FFF790
:1007E00066FF3246BDE8F041FFF730BF0000F03F42
:1007F000064C074D06E0E06840F0010394E807006E
:1008000098471034AC42F6D3FFF778FC50500008FC
:1008100070500008034A116821F440310068084311
:10082000106070470427014010B5074988420AD17B
:1008300044150121204600F0D3FD2046BDE81040BC
:10084000002100F0CDBD10BD00240140826822F0DF
:10085000F0020A438260704730B542680F4B1A407D
:100860000C790B6842EA04221343436083680C4A04
:100870001340D1E9034222434D798C6844EA450490
:1008800022431A438260026B22F0F872097D491EEE
:10089000C9B242EA0151016330BD0000FFFEFFFC16
:1008A000FDF7FFC0002101600171417181604FF0CF
:1008B0004072C260016101210175704738B504467C
:1008C000084A1378002B0BD101231370204600F047
:1008D00077F800210B460A462046009100F004F804
:1008E00038BD0000AC0000202DE9F04188B00C4676
:1008F0000E9F16461D46012000F006FE212000F046
:10090000DDFD0028FAD04FF400780121404600F0C8
:1009100059FD4FF40030079007A8FFF77BFF01A8AF
:10092000FFF7C0FF002134B1012C06D0022C08D003
:10093000032C0AD00CE001910AE04FF08070019086
:1009400006E04FF00070019002E04FF0407001901F
:100950008DF80810012316B38DF8093015B3012D59
:1009600022D0022D24D04FF04050039027B34FF4F3
:10097000006005908DF81830104C01A92046FFF753
:100980006BFF10212046FFF761FF0021404600F079
:1009900019FD002000F0B8FD08B0BDE8F0818DF829
:1009A0000910DBE70391E1E74FF080500390DDE7AA
:1009B0004FF000500390D9E70591DBE70024014098
:1009C0007CB504460D4607482060FFF72DFF002048
:1009D00000900346019003222946201D00F0C2FA30
:1009E0007CBD00000024014038B5194C2078002857
:1009F0002CD14FF4407000F00BFC4FF0E020016967
:100A000021F0020101611348016841F000710160A9
:100A100003211148FFF752FF4FF0FF3000900523EC
:100A2000062207210D4802F0ADFE01F07FFC0020F8
:100A300003F03CF900F044F802F0DEFF10B101F0E1
:100A400019F901E003F024F80120207038BD0000FE
:100A50001100002004ED00E0080100204803002000
:100A60007CB50024012523462A4621461348CDE9BA
:100A7000004500F077FA11480122002311460C309E
:100A8000CDE9004500F06EFA0C4800230122082150
:100A90001830CDE9004500F065FA0021074800F064
:100AA00062FB064800210C3000F05DFBBDE87C4095
:100AB00002480021183000F056BB0000E40000207E
:100AC00010B586B000240094234603220B2103A80E
:100AD000019400F047FA0094002303220C2103A89C
:100AE000019400F03FFA0121084600F00BF80121C3
:100AF000022000F007F80121042000F003F806B0FE
:100B000010BDFEE7054A002903D05168014351603A
:100B1000704751688143516070470000002004E035
:100B2000704710B5044602F067FF20B12046BDE8CB
:100B3000104000F0C7BF2046BDE8104002F070BF73
:100B400010B502F059FF08B101F0A2F8012000F041
:100B50000FF9002808D00548006800B18047BDE8BB
:100B60001040012000F0FEB810BD00005001002030
:100B700070B502F041FF08B101F08AF84FF48065CA
:100B8000284600F0F5F8244C28B1A06A00B180474F
:100B9000284600F0E7F84FF40065284600F0E8F832
:100BA00028B1E06A00B18047284600F0DBF84FF436
:100BB0008055284600F0DCF828B1206B00B1804752
:100BC000284600F0CFF84FF40055284600F0D0F842
:100BD00028B1606B00B18047284600F0C3F84FF49D
:100BE0008045284600F0C4F828B1A06B00B18047CA
:100BF000284600F0B7F84FF40045284600F0B8F852
:100C0000002807D0E06B00B180472846BDE870405F
:100C100000F0A8B870BD00005001002010B502F02F
:100C2000EBFE08B101F034F8022000F0A1F8002832
:100C300008D00548406800B18047BDE81040022058
:100C400000F090B810BD00005001002010B502F077
:100C5000D3FE08B101F01CF8042000F089F8002848
:100C600008D00548806800B18047BDE810400420E6
:100C700000F078B810BD00005001002010B502F05F
:100C8000BBFE08B101F004F8082000F071F800285C
:100C900008D00548C06800B18047BDE81040082072
:100CA00000F060B810BD00005001002010B502F047
:100CB000A3FE08B100F0ECFF102000F059F8002866
:100CC00008D00548006900B18047BDE810401020F9
:100CD00000F048B810BD00005001002070B502F0CF
:100CE0008BFE08B100F0D4FF202000F041F81C4C2E
:100CF00028B1606900B18047202000F033F840201F
:100D000000F036F828B1A06900B18047402000F01B
:100D100029F8802000F02CF828B1E06900B1804764
:100D2000802000F01FF84FF48075284600F020F86E
:100D300028B1206A00B18047284600F013F84FF42C
:100D40000075284600F014F8002807D0606A00B14A
:100D500080472846BDE8704000F004B870BD000030
:100D60005001002001490860704700001404014050
:100D700001460020024A12680A4200D00120704752
:100D80001404014030B51B4A83790168002B2AD036
:100D900013688B431360111D0B680468A3430B6039
:100DA000017911440B68046823430B60114C08342B
:100DB0002168036899432160231D19680568A943C8
:100DC00019604179102905D011440A68006802436E
:100DD0000A6030BD2168026811432160196800680B
:100DE0000143196030BD0079104402688A430260F3
:100DF00030BD0000000401400089491CB1FBF0F245
:100E000000FB121080B2704770B50446204621885E
:100E1000FFF7F2FF61680D5C21882046FFF7ECFFC9
:100E20002080284670BD70B504460D466188204676
:100E3000FFF7E2FF608061680D5470BD2DE9F0415D
:100E4000002201274FF0030C07FA02F50B682B4034
:100E5000AB422BD1066853000CFA03F4A64306609C
:100E60000E79D0F800809E4046EA080606600E79AA
:100E7000012E01D0022E11D18668A64386604E79DC
:100E8000D0F808809E4046EA080686608688AE4311
:100E9000868086888D7995402E438680C568A543D7
:100EA000C560CC799C40C3681C43C460521C102AA6
:100EB000CAD3BDE8F08110B54B07DB0E9A40C908D4
:100EC00000EB8100016A0F249C40A1430162016A8A
:100ED0001143016210BD02460020128A0A4200D06E
:100EE000012070474183704701837047F0B50024AB
:100EF00000250123072216E0865C2C2E08D0012B4A
:100F000009D0022B07D0032B09D0042B0BD106E00C
:100F1000521C5B1C07E00E55521C641C03E04F1969
:100F2000FE72521C6D1C052BE6D100200855294489
:100F3000C8720120F0BD00000021094A52F831308A
:100F4000834208D84B1C52F83330834203D902EB5A
:100F5000C10000797047491CC9B21529EED3FEE7DC
:100F60005C4F00087CB5DDE906540626B6EB211F70
:100F700003D3CDE9005400F001F87CBD2DE9FC411C
:100F80000446DDE9087815461E46481C32D0C1F3F8
:100F90000F102081217001F00F03012101FA03F2EB
:100FA0006280062808D2144A02EB8022626001FAAD
:100FB00000F000F0DDF908E007D1104860604FF064
:100FC00020004FF0010100F0D3F9012D03D141467B
:100FD000204600F09FF88DF804508DF806608DF8DB
:100FE000077003208DF805006088009069466068EE
:100FF000FFF724FFBDE8FC8100000240001402401E
:10100000002807D090F90010491C04D0418840689E
:10101000FFF761BFFEE70020704700002DE9FE4F9B
:1010200004460F461546002B6FD02078384900F053
:101030000F0041F820300121084600F0C3F9207864
:1010400000F00F01207A02F08FFA207800F00F01F3
:10105000012000FA01F8CDF8008000268DF8046028
:101060004FF008094FF00C0A012F04D0022F05D0D1
:10107000032F06D0FEE78DF8059005E08DF805A05A
:1010800002E010218DF8051080468DF806006846B4
:10109000FFF778FE207800F00F00052803D2801DAE
:1010A0008DF8080008E00A2803D217208DF8080000
:1010B00002E028208DF8080045B1012D0CD0022D4A
:1010C0000FD0032D12D0042D16D0FEE70F208DF87F
:1010D00009008DF80A6013E08DF809A08DF80A6008
:1010E0000EE08DF809908DF80A6009E004208DF873
:1010F00009008DF80A6003E08DF809608DF80A6038
:101100008DF80B8002A800F04FF8BDE8FE8F0000BC
:101110005001002000280AD0426842B190F9003006
:101120005B1C09D021B141881046FFF7DDBEFEE708
:1011300041881046FFF7D6BE704790F9001006228E
:10114000B2EB211F01D3FFF75BBF0020704730B423
:1011500090F900400625B5EB241F02D330BCFFF701
:101160005DBF30BC704790F900200623B3EB221F0F
:1011700001D3FFF7CFBF704701884088814201D17A
:10118000012070470020704710B504462046618852
:10119000FFF732FE2188884201D1012010BD0020D6
:1011A00010BDFEE77047000030B50F23C27801255F
:1011B0000178002A1FD0154A126802F4E062C2F5D5
:1011C000E062C2F30722C2F10404D3404278A24095
:1011D00084781C401443220101F1E02181F80024AD
:1011E000007800F01F018D404009800000F1E020F0
:1011F000C0F8005130BD01F01F0085404809800053
:1012000000F1E020C0F8805130BD00000CED00E09E
:101210000249084302490860704700000000FA05CF
:101220000CED00E0BFF34F8F04480168044A01F45D
:10123000E06111430160BFF34F8FFEE70CED00E06A
:101240000400FA052DE9F04188B080460D461646A7
:101250001F4620216846FEF782FF184C6580202239
:1012600041466846FEF762FFA680E7801448FFF714
:1012700064FF80F001011248FFF775FFB4F9040024
:10128000002802DA4042C0B2A0800C4821790C301C
:10129000017101210170684602F0DEFFB4F904100B
:1012A00008A002F0D9FFB4F9061009A002F0D4FF9B
:1012B00008A002F0D1FF08B0BDE8F08100000020D6
:1012C000E4000020202D202564202D2000000000B7
:1012D000256400000A00000002A002F0BDFFFFF735
:1012E000A1FF00005258204572726F720A00000080
:1012F00002A002F0B1FFFFF795FF00005258205402
:10130000696D656F75740A0010B50748FFF715FF22
:1013100080F001010448FFF726FF0448C06A8047B7
:1013200003490420087010BDE4000020D84E0008D6
:101330000000002010B50348C06A8047024905201C
:10134000087010BDD84E0008000000200149086157
:101350007047000000000E4201490862704700001B
:1013600000000E42014948627047000000000E4232
:10137000054A002903D011680143116070471168C4
:1013800081431160704700001C380240054A002963
:1013900003D01168014311607047116881431160E7
:1013A0007047000024380240054A002903D0116824
:1013B000014311607047116881431160704700005C
:1013C00018380240054A002903D011680143116012
:1013D0007047116881431160704700002038024057
:1013E000054A002903D01168014311607047116854
:1013F00081431160704700001438024030B52C4B17
:10140000196801F00C011C1F4FF40045002925D07C
:10141000284A042929D0082929D00C2929D0216853
:10142000C1F34231491C8D400560196801F0F0019B
:101430000909214A545C0168E14041601C6804F4D8
:10144000E064240A145D21FA04F484601B6803F448
:101450006053DB0AD25CD140C16030BD2168C1F36A
:101460004231491C8D400560DFE70260DDE7026024
:10147000DBE7196801F470111A6802F440020E4C9F
:10148000093C04EB91410978012404EB92521C6859
:1014900004F480342CB1074C6143B1FBF2F10160DC
:1014A000C3E7044C6143B1FBF2F10160BDE700000A
:1014B000083802400024F4007A0000200246002090
:1014C0005109012909D00749096802F01F020123C7
:1014D00093400B4200D0012070470249343909681B
:1014E000F3E70000343802400248006800F00C00C6
:1014F0007047000008380240024900220A70087054
:10150000704700000238024001490860704700003F
:1015100000004742024900220A700870704700002C
:101520003538024001490866704700000000474214
:101530000149086070470000D8064742C0F30141E6
:10154000032907D1094B196821F0C04100F0C042BE
:101550000A431A60054934310A6822F440320A60AD
:101560000A6800F4403002430A60704700380240C5
:101570000149086070470000DC064742034A1168D1
:1015800021F0030101431160704700000838024058
:1015900038B500220092144CCA22226053222260E5
:1015A000114A1C3A002904D011680143116001203E
:1015B00015E01168814311600B4A183A55141168FF
:1015C00001EA1021009B5B1C0093009BAB4201D001
:1015D0000029F4D0116811EA102F03D00120FF2157
:1015E000216038BD0020FAE72428004010B54FF4F0
:1015F0008054204600F096F800280BD000F048FBFD
:1016000002F02AFB204600F029F86001BDE81040F6
:10161000FFF7A8BB10BD010901EB8101490000F0F3
:101620000F000844C0B27047002103E0491CC9B252
:101630000A38C0B20A28F9D2090740EA1160704797
:10164000C0F3100040F08000C1430348026802F07C
:1016500080021143016070470C280040000980B2ED
:1016600040F08000C1430348026802F08002114349
:10167000016070470C2800400121017081704170A9
:101680000021C1707047000008B5002000900E498D
:101690000868400615D44FF0FF3008604B14086806
:1016A00000F04000009A521C0092009A9A4201D029
:1016B0000028F4D00868400601D5012008BD0020AC
:1016C00008BD012008BD00000C2800400248016848
:1016D00021F08001016070470C28004010B50246DF
:1016E0000C460E4801680E480140080CE070C1F33A
:1016F0000423637001F03F03A370C1F342312170F2
:10170000002A0AD1FFF787FFE0706078FFF783FFB8
:101710006070A078FFF77FFFA07010BD0428004024
:101720003FFFFF0010B500210D4A126802F00403CC
:101730000B4A383A1268840C20FA04F4024003EA97
:10174000D4331A43064B343B1B6803EA1010002ABB
:1017500003D00004000C00D00121084610BD000099
:101760004028004010B502460C460F4801680F485B
:101770000140C1F305402070C1F30623637001F0FE
:101780007F03A37001F48001090CE170002A0AD1E3
:10179000FFF741FF20706078FFF73DFF6070A07891
:1017A000FFF739FFA07010BD002800407F7F7F0049
:1017B00030B50F4DCA222A6053222A600C4C0C4BC4
:1017C0001C3C20F004021C3300F00400002906D069
:1017D00021681143216019680143196005E02168FF
:1017E00091432160196881431960FF20286030BD52
:1017F0002428004070B504460025114ECA203060F0
:1018000053203060FFF740FFA8B10D481C38016835
:1018100021F040010160016822681143016008481D
:10182000A168143801600168A28841EA02410160A0
:10183000FFF74CFF0125FF203060284670BD0000F7
:101840002428004070B505460E46144600202B495A
:10185000002D06D00968490608D52078FFF7DBFE81
:1018600005E00968490607D4E07005E0E070A0686B
:10187000A8B1207BFFF7CFFEADB1A0782178E27848
:1018800040EA01406178090241EA02410843217BB4
:1018900040EA0160A1680843616808431CE0207BBE
:1018A000FFF7B9FEE8E72078FFF7BEFE0504607891
:1018B000FFF7BAFE45EA0025A078FFF7B5FE05431D
:1018C000E07845EA0045207BFFF7AEFEA16845EAD7
:1018D00000600843616808430849CA221C310A6055
:1018E00053220A60B6F5807F04D00A1F1060FF20E3
:1018F000086070BD014A14321060F8E70828004003
:1019000070B505460C460026002D06D16078C1064C
:1019100003D520F010000A3060702DB16078FFF719
:101920007AFEA078FFF777FE55B1A078E17840EA1B
:10193000014560782178000240EA413005430FE01C
:10194000E078FFF771FE05046078FFF76DFE45EA69
:101950000025A078FFF768FE0543207845EA40356A
:101960000E4CCA20206053202060FFF78DFE88B106
:101970000B480540094820380560FFF7A7FE0748D7
:101980001C380068800604D400F066F810B1012607
:1019900000E00126FF202060304670BD2428004072
:1019A0003FFFFF002DE9F04105460C4600260020D0
:1019B000244F002D06D03968490608D52078FFF756
:1019C0002AFE05E03968490602D4E07000E0E070C4
:1019D00055B1A078217840EA01456078E1780002AD
:1019E00040EA014005430FE02078FFF71DFE0504A3
:1019F0006078FFF719FE45EA0025A078FFF714FE8E
:101A00000543E07845EA00450E4CCA201C342060AE
:101A100053202060FFF738FE78B10B480540094895
:101A200008380560FFF752FE3868800604D400F0DD
:101A300013F810B1012600E00126FF202060304697
:101A4000BDE8F081082800407F7F7F000021C17041
:101A5000017041708170704718B500200090104BE4
:101A6000CA201860532018600D491839086820F002
:101A7000A0000860CC13086800F02000009A521CF7
:101A80000092009AA24201D00028F4D00868800693
:101A900001D5012000E00020FF21196018BD0000E1
:101AA0002428004010B54FF480742046FFF7C8FD8D
:101AB00000212001FFF77CFE2046BDE810400021F8
:101AC000FFF766BD2DE9F0414FF47A7100FB01F498
:101AD000002500F0BBF806460F4600E000BF00F00E
:101AE000B5F8801B61EB0701001BA941F6D3BDE8E7
:101AF000F08100002DE9FC4100242546002601A9C3
:101B00000020FFF72FFE69460020FFF7E7FDFFF7F3
:101B1000A3FF3748C178632905D19DF8031011B997
:101B20000179491C01719DF80310C170007905E02D
:101B3000304AA41845F10005761CF6B28642F7D368
:101B4000002008E0A8B1820713D02B4AA41845F161
:101B50000005401CC0B28142F4D8002371B188074F
:101B60000CD000209DF801701946DFF890C07F1E50
:101B700021E0234AA41845F10005EAE70020DFF838
:101B80007CC09DF801700CF10C0C19467F1E07E01B
:101B90001CF800201B4E724314194D41401CC0B26A
:101BA0008742F5DC09E01CF80020164E7243141938
:101BB0004D41401CC0B28742F5DC9DF805009DF800
:101BC0000610C0EB001001EB80029DF804004FF4FA
:101BD000616148439DF8021040F2A326714300EB77
:101BE000C110104404195D4120462946BDE8FC811E
:101BF00018000020E90B18BC8033E101C04E00083A
:101C00000085E2018051010040F26F107047000032
:101C100010B5FFF76FFF0A4AD2E90232C01A61EB32
:101C20000201801C41F10001FEF76DFC054A064BE4
:101C3000FEF753FB02F046FCBDE81040FEF78EBCF9
:101C40001800002014AE47E17A845E4010B5FFF71B
:101C500051FF801C41F10001FEF755FC034A044B83
:101C6000FEF73BFBBDE81040FEF791BC14AE47E128
:101C70007A845E4010B5054C2078002805D100F02C
:101C800067F800F033F80120207010BD1800002024
:101C900010B501F0B1FE002825D0134841788078B6
:101CA000814320D072B60120FFF726FC3120FFF7D8
:101CB00005FC0028FAD00120FFF734FC3920FFF79B
:101CC000FDFB0028FAD00320FFF758FCFFF70CFCBF
:101CD0000C28FBD10020FFF745FB0120FFF736FB66
:101CE000FEF782FE62B610BD1800002030B587B046
:101CF0004FF400342046FFF735F8059400248DF8A2
:101D0000184008208DF8190001258DF81A5005A8F3
:101D1000FFF738F829208DF800008DF801408DF884
:101D200002408DF803506846FFF73EFAE80702903C
:101D3000C40D01AA21460020FFF784FD00212001E7
:101D4000FFF736FD00212046FFF722FC07B030BD2B
:101D500000B585B001210807FFF718FB0120FFF748
:101D6000FBFA0120FFF704FC0020FFF701FC012033
:101D7000FFF7D0FB4920FFF7A1FB0028FAD04FF472
:101D80008030FFF7DBFB0120FFF7D2FB01A8FFF754
:101D90005DFE6846FFF770FC69460020FFF7B0FD66
:101DA00001A90020FFF7FEFDFFF756FE012003907A
:101DB00004900020029002A8FFF71CFDFFF74CFEE4
:101DC00005B000BD10B504462046FEF78FFB0E4A55
:101DD0000E4BFEF7F5FB01D24FF4B7744DF2D8610C
:101DE0000B488C4202D20021417001E00121417078
:101DF00041788078814301D0A4F648542046BDE85C
:101E0000104000F007B800008FC2F5285CE3764070
:101E1000180000202DE9F04786B00446FFF742FE87
:101E2000FFF768FE5C4AC2E9020101A90020FFF742
:101E300099FC69460020FFF751FC2046FEF756FB4F
:101E4000564A574BFEF7BBFAFEF788FB5549564CEE
:101E50008842A4F10C0521D99DF806809DF8056003
:101E60009DF804709DF8020019309DF8031059B1D7
:101E7000890709D09DF80110495D814260D2B0FB0D
:101E8000F1F201FB12005BE09DF80110095D814257
:101E900056D2B0FBF1F201FB120051E03C21B0FB45
:101EA000F1F201FB12029DF806301A44B0FBF1F387
:101EB000B3FBF1F601FB16339DF8056033444FF494
:101EC0006166B0FBF6F64FF01809B6FBF9F709FBAF
:101ED00017669DF8047006EB070C344EB0FBF6F065
:101EE0009DF802603044B2FBF1F601FB1628B2FB0C
:101EF000F1F61E44B6FBF1F701FB1766B2FBF1F7F2
:101F00001F44B7FBF1F76744B7FBF9FA09FB1A77EF
:101F1000B2FBF1F21A44B2FBF1F16144B1FBF9F109
:101F2000084480B29DF8031061B389072AD09DF858
:101F30000110495D814203D2B0FBF1F201FB1200B6
:101F40008DF80A808DF809608DF808708DF81400FE
:101F50009DF807008DF80B000020049003904FF4CB
:101F6000807402AA2146FFF76DFCFFF775FD012181
:101F70000803FFF71DFC01212046FFF709FB06B00F
:101F8000BDE8F0879DF80110095D8142D8D2B0FB11
:101F9000F1F201FB1200D3E71800002014AE47E174
:101FA0007A845E4080F52000CB4E0008805101000D
:101FB000002904D0018841F0400101807047018868
:101FC00021F04001018070470246002012890A4238
:101FD00000D001207047808970478181704730B5FB
:101FE000028802F441530A884C88CD8822438C88A9
:101FF0002C4322430C8922434C8922438C8922435F
:10200000CC8922431A430280828B22F400628283AD
:10201000098A018230BD0021018041808180C18018
:10202000018141818181C1810721018270470000C6
:102030001CB5002400942346032204210648019481
:10204000FEF790FF04480094002303222D210C3852
:102050000194FEF787FF1CBDB00100201CB50020D5
:102060000124CDE900400346224604210648FEF73C
:1020700079FF05480094002301222D210C3801949A
:10208000FEF770FF1CBD0000B0010020012070476A
:1020900080207047014890F88C007047F4020020BF
:1020A0002DE9F34F81B002460020DFF8E081002ADD
:1020B0000CD0012A7ED100242546D8F8C80000287B
:1020C00057D0012858D002285BD158E0C246D8F832
:1020D000A400FEF70BFA06460F460298FEF706FA32
:1020E00080468946302000F060FC30F0F90002D0D4
:1020F0000024674D01E000242546272000F055FC10
:1021000020F0F800BAF8A810401C0844FEF7EEF9D9
:102110009AF8AA20012A25D000225D4BFEF736F856
:1021200022462B46FEF732F842464B46FEF72EF883
:102130009AF8AC20012A18D000221346FEF726F8A0
:102140000322FEF7ABF932463B46FEF738F9002290
:10215000504BFEF7C2F802F069FE03B0BDE8F04F45
:10216000FEF7FCB900221346D8E700224FF0804367
:10217000E4E70024484D04E00024484D01E0484DC8
:102180000024D8F8CC000121009001FA00F0FEF7FD
:102190009CF902460B4620462946FEF710F90246F6
:1021A0000B4600203A49FEF70AF904460D46B8F8F6
:1021B000D20000E068E0FEF799F90022394BFDF704
:1021C000E5FF22462B46FEF788F882468B4698F8B4
:1021D000D100001DFEF78AF9064698F8D0000F4698
:1021E00008B1022000E000200099C0EB8100FEF75A
:1021F0007DF9804602988946C1000098404201EB73
:102200008001224890F8D60001EB00111F4890F899
:10221000D40008B1142000E00020081A1C30FEF79A
:1022200065F942464B46FEF7CAF802F04BF93246D2
:102230003B46FEF752F806460F460022134630464C
:102240003946FEF7D5F902D23046394601E0002082
:1022500001460022144BFDF799FF22462B46FEF75C
:102260003CF852465B46FDF791FF0022094BFEF712
:1022700034F80E4A0E4BFDF789FF02F091F903B0D6
:10228000BDE8F04FFEF76AB9BDE8FE8FF40200200A
:102290000000F03F80842E418084FE4080840E4107
:1022A00080841E4100001140000020402B8716D979
:1022B000CEF7EF3F70B5194948601949194801F048
:1022C00081FC18481649143001F07CFC154814496B
:1022D000283001F077FC00F0ADFB002000F0F4FCAA
:1022E0000E48083000F066F800240F4E04EB440559
:1022F000705D00F0ADFCA8198178407801F004F918
:10230000641CE4B2102CF1D3002000F0A1FC0549BC
:102310000020E83981F88C0070BD00008C0000209E
:10232000DD280008DC0300202C4F00087CB50124C8
:1023300000940023224610211D480194FEF712FE4E
:1023400000251B482B462A4611217038CDE900454F
:10235000FEF708FE164800231A461A216438CDE914
:102360000045FEF7FFFD124800231A461B2158388E
:10237000CDE90045FEF7F6FD0D4800231A4617216A
:102380004C38CDE90045FEF7EDFD094800231A461B
:1023900015214038CDE90045FEF7E4FD044800234F
:1023A0001A4614213438CDE90045FEF7DBFD7CBD2B
:1023B0007003002010B5044603220121144823684D
:1023C000FEF7C5FE1248032201210C306368FEF7B8
:1023D000BEFE0F48032201211830A368FEF7B7FEA6
:1023E0000B48032201212430E368FEF7B0FE0848C1
:1023F0000322012130302369FEF7A9FE04486369F6
:1024000003220121BDE810403C30FEF7A0BE0000D1
:102410000003002070B506460C461546304600F015
:1024200017FC204600F0D4FB052000F04DFC0120F5
:10243000FEF777FB304600F0EAFA044600F060FE53
:10244000AC4201DD002070BD012070BDF8B5002454
:1024500000948D4F8D4E97F88C0001280AD00228E9
:102460004FD107F1E80001F07DFC97F88D000128BD
:102470007ED1F8E097F88D00B0B1012841D140211C
:10248000122001F041F8122000F08FFA00909DF820
:10249000000080066DD52021122001F035F897F854
:1024A000DA00002867D08CE097F8AC0001282FD123
:1024B0003F2000F07AFA00909DF80000800727D4B2
:1024C0000B213E2001F020F810213F2001F01CF8E4
:1024D00097F8AE00B0B10D2000F067FA40F040016F
:1024E0000D2001F011F86848FC3001F03BFC7068E9
:1024F00010B1006900B1804707F8B44F7C70BC810F
:102500007C81F8BD87F88C40614801F0F9FBEAE76F
:10251000B7F8BE105F4D11B9B7F8C00050B3BE3761
:102520007888091AC9B2284400F06CFA3888788093
:10253000BE3F97F8AE00A8B30D2000F036FA40F089
:1025400040010D2000F0E0FF5148143801F00AFC72
:10255000706840B1856835B197F9B620B7F8BE10FC
:1025600000234C48A84707F8B44F7C70BC8103E0B7
:102570007DE034E002E022E07C81F8BD97F8AA001B
:1025800088B1322000F011FAA7F8BE0017F8BE1F7C
:102590007888091AC9B2284400F034FA388878805B
:1025A000BE3FC6E705E03A480121523800F02AFA5A
:1025B000ECE787F88C40364801F0A2FBC4E787F8C7
:1025C0008C403348143801F0CDFB70680028D4D01B
:1025D00000690028D1D001B0BDE8F04000471920C3
:1025E00000F0E3F940B287F8E000010605D5C043EA
:1025F000401CC0F38500454201E0C0F385051A2068
:1026000000F0D3F9002D06DA00EB201028448B38B7
:10261000A7F8E20004E000EB20108B38A7F8E200F6
:10262000132000F0C2F987F8E4000146194800F0D1
:10263000E9F997F8DA0008B987F88C40144814389B
:1026400001F090FB7068002897D08468002C94D02B
:1026500017F9E03FA446B7F90220397901B00D48D7
:10266000BDE8F04060470821122000F04DFF87F8D8
:102670008C407068002880D000680028A7D001B086
:10268000BDE8F04000470000F40200208C0000206C
:1026900004040020F401002070B5334C04F18E02D4
:1026A00094F88C3012F8010C118E528EA4F58075BE
:1026B000012B15D0022B12D1002810D123468A1AE3
:1026C00094F8C310B3F8C030284618448A4244DD59
:1026D00000F044FF34F8C00FE1780844208070BD5A
:1026E00090B10128FBD12048FC3001F03BFB0020D9
:1026F00084F88C001D4840680028F0D0C06800288D
:10270000EDD0BDE87040004741B93AB994F8AA004D
:10271000A8B1322000F049F9A4F8BE0034F8BE1F79
:1027200060880A1A2179BE3C8A420EDD284400F0F6
:1027300069F934F8C00FA1780844208070BD0A48B8
:102740000121BE3000F05EF9E8E7D1B2284400F084
:1027500059F934F8BE0F608070BDD1B200F0FEFEB2
:1027600034F8BE0F608070BDF40200208C000020A1
:1027700070B5364C364D214694F88C2091F88D007A
:1027800091F8D710012A1BD0022A5ED100285CD014
:1027900001285AD1012958D10221122000F0B4FE9B
:1027A0006868002851D0406900284ED01C2000F0F5
:1027B000FCF8696800F03F004969BDE870400847CF
:1027C000B8B1012841D101293FD10221122000F0E6
:1027D0009BFE6868002838D04069002835D01C204E
:1027E00000F0E3F8696800F03F004969BDE8704017
:1027F000084794F8B400012827D194F8B5000028C0
:1028000023D1144801F0AEFA012004F8B50F1120CD
:1028100000F0CBF84008404260701C2000F0C5F882
:1028200005461B2000F0C1F845EA0020FDF75EFEDA
:102830000022094BFDF751FDFDF771FEC4F80300BE
:102840000C2000F0B2F84009E07170BDF4020020E5
:102850008C0000200404002080844E4010B51548F0
:1028600090F88D00002823D0012821D1122000F0FB
:102870009CF8114CC0070DD00521122000F044FE39
:102880006068002814D08169002911D0BDE810408B
:10289000012008470421122000F036FE606800285D
:1028A00006D08169002903D0BDE810400020084708
:1028B00010BD0000F40200208C000020064991F8B1
:1028C0008D00002806D191F8B400002802D1012023
:1028D00081F8B40070470000F402002070B5204C6D
:1028E0000025204E94F88C0001280CD0022835D108
:1028F00084F88C507068002830D0406800282DD0B3
:10290000BDE87040004794F88D00A8B9AE34A571B9
:10291000E571658225820B213E2000F0F5FD102136
:102920003F2000F0F1FD14F8AE0901280DD084F825
:102930008C500D4801F016FA706800280ED0C0685F
:1029400000280BD0BDE8704000470D2000F02DF8A6
:1029500040F040010D2000F0D7FDEDE770BD000014
:10296000F40200208C0000200404002070B5002533
:10297000012000F06DF9FF21112000F0C5FD0520B8
:1029800000F0A2F900240120FEF7CBF82C2000F083
:102990000CF800F00100A0400543641CE4B2202CB8
:1029A000F1D300F0ADFB284670BD08B501226946A1
:1029B00000F004F89DF8000008BD00002DE9F0418A
:1029C00004460D4616460E4800210746FEF7CBFB8F
:1029D0000B4804F07F012838804600F0B5FE002443
:1029E00006E00021404600F0AFFE2855641CE4B22A
:1029F000B442F6D33846BDE8F0410121FEF7B3BB3F
:102A0000700300200A4601460020FFF7D7BF10B52B
:102A1000002804D0012808D04FF0FF3010BD11204D
:102A2000FFF7C3FF4008404210BD1B20FFF7BDFF6A
:102A30008B3810BD7CB50125002423462A4602218F
:102A40000A48CDE90045FEF78DFA0120FEF769F846
:102A500000231A4602210548CDE90045FEF782FA17
:102A6000BDE87C400620FEF75CB80000F4020020C0
:102A700073B5054600203B4C94F88D10002902D018
:102A800001296BD12AE00020AA34E0829DF80410CD
:102A9000A18214F8AA0950B1322000F035FD9DF84A
:102AA0000420501E3F2807D884F8C3200BE00121E2
:102AB00001A800F053FDF2E729462B4802F0ACF9DB
:102AC000202084F8C300B0342846E17C00F046FDA5
:102AD000208AE17C0844208220683FE094F8D900F5
:102AE000012822D03320FFF760FF00F0BE01491C0F
:102AF000332000F009FD1D213B2000F005FD9DF86D
:102B0000041084F8E410222000F0FEFC00210E20C6
:102B100000F0FAFC00210D2000F0F6FC0120FFF788
:102B200044FF30F0F8000DD011E03320FFF73DFFF7
:102B300000F0BE01332000F0E7FC19213B2000F03B
:102B4000E3FCDCE700F0F0FA0120FDF7EAFF9DF876
:102B50000410284600F002FDD4F8DC0000F0F8FA7A
:102B60007CBD0000F4020020F401002010B50F49E4
:102B700091F88820824218D081F8880050B1002155
:102B80000B48FEF7F0FA0A480121BDE810400C306E
:102B9000FEF7E9BA01210648FEF7E5FA04480021EC
:102BA000BDE810400C30FEF7DEBA10BDF402002084
:102BB000A401002005490A78824205D0087008B1B6
:102BC000FFF736BAFFF74ABA704700002800002026
:102BD00010B50E49C1F89000FDF788FC00220C4B9F
:102BE000FDF7EDFBFDF7BAFC0446C4F307410620F0
:102BF00000F08AFCC4F30721072000F085FCE1B255
:102C0000BDE81040082000F07FBC0000F402002066
:102C100080844E4070B504460D46204600F018F8FA
:102C20003CB1012C10D12946BDE87040232000F0B2
:102C30006BBC064890F8AA00002805D12946BDE8DB
:102C40007040322000F060BC70BD0000F402002033
:102C500010B51C494A6D002A1CD091F88D20824283
:102C60002ED081F88D00012815D0002000F02CF81E
:102C70000120FFF79AFE00F07F01012000F044FCE4
:102C80000021402000F040FC3021BDE810404120F0
:102C900000F03ABCFEE7002000F016F80120FFF734
:102CA00084FE40F08001012000F02EFC0021402035
:102CB00000F02AFC0021BDE81040412000F024BCB7
:102CC00010BD0000F402002010B504461048017841
:102CD0008C421CD0047094B10020FFF76BFF032CD2
:102CE00011D00020FFF742FF0120FFF75EFE00F049
:102CF000F8012143BDE81040012000F005BC01208F
:102D0000FFF758FFF0E70120FFF730FFECE710BDB9
:102D10008C0000202DE9F04105460024DFF89C815D
:102D200098F88D10002902D0012950D124E098F89C
:102D3000AE404020FFF739FE00F0030040F00C01E8
:102D4000402000F0E1FB4120FFF72FFE40F0C101E1
:102D5000412000F0D9FB3520FFF727FE00F03F00AF
:102D600088F8C200002188F8B41088F8B510A8F8D7
:102D7000C010A8F8BE102AE098F8D900012842D067
:102D80003320FFF712FE00F0BE01491C332000F093
:102D9000BBFB1D213B2000F0B7FB98F8DA4098F808
:102DA000D70001283CD01F21112000F0ADFB4020AE
:102DB000FFF7FBFD00F03F01402000F0A5FB0021E4
:102DC0000F2000F0A1FB00210D2000F09DFB4FF42F
:102DD00080713B48FDF7C3F9012088F88C0045B1AC
:102DE00036482946FC3000F075FF3448FC3000F0CE
:102DF00087FF98F88D0000B3002C58D0BDE8F04153
:102E00000520FFF761BF3320FFF7CFFD40F0410100
:102E1000332000F079FB19213B2000F075FBBCE763
:102E20001D21112000F070FB4020FFF7BEFD00F0D7
:102E30003301402000F068FBC1E70520FFF744FFA5
:102E4000002C39D1D8F8A400FDF750FB04460D46FC
:102E50002720FFF7AAFD20F0F800FDF747FB00222E
:102E6000184BFDF793F906460F46B8F8A800FDF792
:102E70003DFB32463B46FDF789F90022124BFDF738
:102E800085F90322FDF70AFB22462B46FDF797FA48
:102E900000220E4BFDF721FAFDF760FB01460C48BE
:102EA00000F018FFBDE8F041094800F029BFBDE877
:102EB000F0410620FFF708BFBDE8F081F4020020D2
:102EC000F40100200000F03F0000244080842E41E7
:102ED000040400202DE9F84F8246DDE90E870B9EA1
:102EE0000D9C0D4691469B465046FFF7B1FE310AB8
:102EF00081480091BAF1000F23D0BAF1010F6ED1D1
:102F00008246C0F8C850CAF8CC908AF8D1B0AAF866
:102F1000D2608AF8D4408AF8D5808AF8D6701098A2
:102F20008AF8D70011988AF8D80012988AF8D90040
:102F300013988AF8DA00B9F10C0F5AD94FF00C093E
:102F40005CE040F89C5FC0F808900A994160847387
:102F500080F80F80077412994174139981748681E7
:102F60004846FDF7C3FA02460B4600206349FDF7C9
:102F700026FAFDF7F3FA1FFA80F94FEA1921022029
:102F800000F0C2FA09F0FF01032000F0BDFA284664
:102F9000FDF7D2FF0146122000F0B6FA0A98FDF7BD
:102FA000CBFF0146132000F0AFFA2520009900F076
:102FB000ABFAF1B2262000F0A7FA24B14146322044
:102FC00000F0A2FA03E0FF21322000F09DFA302049
:102FD000FFF7EBFC00F06F0114B1002001E088E086
:102FE0008020014341EA0711BDE8F84F302000F08E
:102FF0008BBAB9F1060F01D24FF006092DB9B9F11C
:103000000B0F44D0B9F10C0F41D0012D02D1B9F111
:103010000C0F3CD000208AF8D0001D20FFF7C5FC23
:10302000002040EA851040EACB0040EA84009AF88C
:10303000D01040EA47000843C1B21D2000F064FAF6
:103040001E20FFF7B2FC0C9900F00C00032240EAAE
:10305000091002EA11210843C1B21E2000F054FAFF
:103060000C98C1B21F2000F04FFA2020009900F008
:103070004BFAF1B2212000F047FA1CB14146222060
:1030800000F042FA9AF8D700012804D010E001209D
:103090008AF8D000C1E74B20FFF787FC40F08001A1
:1030A0004B2000F031FA9AF8D810242000F02CFAC6
:1030B000B9F1060F0ED03120FFF777FC00F0F801D0
:1030C000C91C312000F020FABDE8F84F0A21372052
:1030D00000F01ABA3120FFF768FC00F0F801491D32
:1030E000312000F011FABDE8F84F0C21372000F034
:1030F0000BBABDE8F88F0000F402002080847E4106
:1031000010B5084800F02EFE0648143800F02AFEDC
:103110000020FFF7D9FD03490020FC3981F88C001D
:1031200010BD0000F003002010B5084800F01AFEA2
:103130000648143800F016FE0120FFF7C5FD0349CC
:103140000020FC3981F88C0010BD0000F003002045
:1031500010B50146284800F0BDFD274CE83C94F826
:103160008D0010B101282CD119E04020FFF71DFC83
:1031700000F0030040F01001402000F0C5F94120AC
:10318000FFF713FC00F03E01412000F0BDF93520AF
:10319000FFF70BFC00F03F0084F8C20011E094F848
:1031A000D700012818D0F721112000F0ADF94020F8
:1031B000FFF7FBFB00F03F0040F04001402000F033
:1031C000A3F9022084F88C000B4800F099FDBDE8BB
:1031D00010400320FFF778BDF521112000F094F98D
:1031E0004020FFF7E2FB00F0330040F040014020B8
:1031F00000F08AF9E5E70000DC0300202DE9FF4F2D
:1032000081B010ACDDF8388070CC89469A460198C0
:10321000FFF71EFD0920FFF7C8FB00905A20FFF7BB
:10322000C4FB0746DFF894B2DBF89000FEF730FFEE
:10323000009901F07F01084301062FD5B9F1110F64
:1032400002DD47F0070702E007F0F8073F1DF943EA
:10325000490711D0B9F1020F01DA4FF00209B9F1B3
:10326000110F01DD4FF0110900F0F001A9F102008A
:1032700000F00F00014322E0B9F1050F01DA4FF031
:103280000509B9F1140F01DD4FF0140900F0F00148
:10329000A9F1050000F00F00014310E04FF0FF31ED
:1032A000894500DA8946B9F10E0F01DD4FF00E09AC
:1032B00000F0F00109F1010000F00F0001430920C6
:1032C00000F022F939465A2000F01EF90198270A29
:1032D00010B3012871D18BF8C490CBF8C8A0CBF8FB
:1032E000CC800F988BF8D100ABF8D2408BF8D4503B
:1032F00013988BF8D70014998BF8D8108BF8D660F8
:1033000015998BF8D9101699CBF8DC10B8F10C0F81
:103310005ED94FF00C0860E08BF894900398CBF8DE
:103320009800CBF89CA0CBF8A480ABF8A8408BF811
:10333000AA508BF8AC6015988BF8AD001698CBF8B6
:10334000B0000398FDF7D2F800225D4BFDF737F887
:10335000FDF704F91FFA80F94FEA1921042000F063
:10336000D3F809F0FF01052000F0CEF84046FDF744
:10337000BDF802460B4600205249FDF720F8FDF744
:10338000EDF81FFA80F84FEA1821022000F0BCF88F
:1033900008F0FF01032000F0B7F83946252000F0BF
:1033A000B3F8E1B2262000F0AFF83020FFF7FDFAC5
:1033B00000F06F0115B1002001E07CE080200143A6
:1033C00005B041EA0611BDE8F04F302000F09CB88E
:1033D000B8F1060F01D24FF006084FF00009BAF11C
:1033E000000F05D1B8F10B0F0DD0B8F10C0F0AD0BA
:1033F000BAF1010F02D1B8F10C0F04D08BF8D090C4
:10340000012804D010E001218BF8D010F8E74B2000
:10341000FFF7CBFA40F080014B2000F075F89BF8E5
:10342000D810242000F070F81D20FFF7BEFA0F9886
:1034300049EA8A1141EAC00040EA85009BF8D010B1
:1034400040EA46000843C1B21D2000F05DF81E208E
:10345000FFF7ABFA68F31F10C1B21E2000F054F85A
:103460003946202000F050F8E1B2212000F04CF85D
:10347000B8F1060F0FD03120FFF797FA00F0F801EE
:10348000C91C312000F040F805B00A21BDE8F04F1A
:10349000372000F039B83120FFF787FA00F0F80143
:1034A000491D312000F030F805B00C21BDE8F04F87
:1034B000372000F029B805B0BDE8F08FF4020020F5
:1034C00080844E4080847E4110B50E4C94F88D006F
:1034D000002815D0012813D1FA21112000F014F88A
:1034E0004020FFF762FA00F03F01402000F00CF8A6
:1034F000032084F88C00BDE810400720FFF7E4BBF0
:1035000010BD0000F402002013B5012201A900F053
:1035100001F81CBD2DE9F04104460D4616460E4843
:1035200000210746FDF71FFE0B4844F080012838B4
:10353000804600F009F9002405E0295D404600F0CE
:1035400003F9641CE4B2B442F7D33846BDE8F04155
:103550000121FDF708BE0000700300200A46014665
:103560000020FFF7D7BF000010B58A07120F0F2306
:10357000934021F00304054921448C689C438C60EE
:103580008B68904003438B6010BD00000000014039
:103590000CB50022019200922D49086840F4803059
:1035A00008604FF4A063086800F4003000900198B0
:1035B000401C0190009810B901989842F3D1086816
:1035C000800302D50120009000E0009200980128BD
:1035D0003CD12048026842F004020260026842F0D6
:1035E00002020260026842F00102026018482430C0
:1035F000026842F080520260C214174802604268BA
:10360000D206FCD4124808300268026002680260E8
:1036100002680260026822F47D020260026842F4DD
:10362000090202600A6842F080720A600A68920128
:10363000FCD5016821F003010160016841F003013C
:1036400001600168C1F381010329FAD10CBD0000BA
:1036500000380240003C0240007000402DE9F0417B
:103660000446DDF818800D4617461E4600212068E6
:10367000FEF79EFC082D01D0102D03D1022F01D2A0
:10368000022E00D3FEE7B8F1010F1AD04FF482707A
:1036900010494880012F16D00020C880012E14D078
:1036A00000200881082D12D04FF40060888009495D
:1036B0002068FEF794FC2068BDE8F0410121FEF788
:1036C00077BC0020E4E70220E7E70120E9E70020DB
:1036D000ECE700009001002070B504460D46002183
:1036E0002068FEF765FC16480068B0FBF5F008B1ED
:1036F000401E00E0002040EA500040EA900040EA0E
:10370000101040EA102040EA1041491C4842014094
:10371000B1FA81F0C0F12000C1B2491E072900D9D9
:1037200007214FF6FF7000EAC10006498881206832
:10373000FEF755FC2068BDE870400121FEF738BC5B
:10374000540000209001002070B504460D46002C66
:1037500016D02068A0B102212068FEF735FC0028B1
:10376000F9D029462068FEF738FC01212068FEF7D1
:103770002BFC0028F9D02068BDE87040FEF72BBC78
:10378000FEE700002DE9FC4704460A9F8A46914661
:1037900098463748FEF73FFC00250226CDE9006534
:1037A0002B4632465146201DFDF7DCFBCDE9006576
:1037B00000230222494604F11000FDF7D3FBCDE9B6
:1037C000006500230222414604F11C00FDF7CAFBFC
:1037D0002079052200F00F01A068FDF76CFB207C2A
:1037E000052200F00F016069FDF765FB207F0522CF
:1037F00000F00F01206AFDF75EFB781C4FF0010618
:1038000011D0009600230222394604F128000196C7
:10381000FDF7A8FB94F82800052200F00F01E06AEC
:10382000FDF749FB03E012494FF40070488111484D
:10383000206001218014FDF7C5FD7F1C10D00023FE
:103840001A46082120460096FFF708FF0A4920463D
:10385000FFF742FF2068BDE8FC470121FEF7A8BB47
:1038600000231A46082120460095FFF7F7FEEDE7F2
:1038700090010020003001408096980010B510485B
:10388000016841F4807101600D4908310A680D4BEF
:103890001A400A6002680C4B1A400260026822F467
:1038A00080220260086820F47D000860091D002065
:1038B0000860FFF76DFE05494FF00060086010BD1D
:1038C000003802400CC0FF88FEFFFEEE08ED00E06D
:1038D00010B501218C07204600F03BF8002812D0DB
:1038E00000F062F90121204600F024F806488268C1
:1038F000C1688369C0695A4041400A4303D1BDE8A9
:10390000104000F0A9B910BD3000002010B5084CDF
:103910000121204600F01DF8002807D000F03AF9F8
:103920002046BDE81040012100F004B810BD0000A1
:1039300000040040C94301827047002904D0018877
:1039400041F0010101807047018821F001010180EF
:10395000704702460020138A0B4092890A40002BD0
:1039600002D0002A00D001207047002A03D08289AB
:103970000A438281704782898A43828170470000AE
:103980000288B0F1804F08D00F4B984205D00F4B02
:10399000984202D00E4B984203D122F070034A881D
:1039A0001A430C4B984206D00B4B984203D022F49A
:1039B00040730A891A4302804A68C26209880185F5
:1039C000012181827047000000040040000800408F
:1039D000000C0040001000400014004005494968F8
:1039E00004E0814201D10120704709690029F8D122
:1039F00000207047B00000200148007870470000A8
:103A0000B000002010B505480078002803D0BDE8BC
:103A10001040FEF7FDB800F019F810BDB00000200E
:103A200000B5014600F00AF8024600E000BF00F0D1
:103A300005F8801A8842F9D300BD000072B602482A
:103A4000006862B6704700003000002030B500F01A
:103A500017F8094AD2E90434C21A61EB0401521C76
:103A600041F100046421A2FB010504FB0151002384
:103A700002FB031130BD000030000020C820704759
:103A800072B602498868C96862B670473000002083
:103A90002DE9FF412F4D00242C6001210846FDF740
:103AA00075FC1C208DF80C0001268DF80D608DF83A
:103AB0000E608DF80F6003A8FDF776FB0020A8616B
:103AC000E86140F67F450195ADF80040ADF808404B
:103AD000ADF80240B70769463846FFF751FF0122AB
:103AE00011463846FFF741FF01213846FFF725FF11
:103AF00001210220FDF74AFC1D208DF80C008DF8F5
:103B00000D408DF80E408DF80F6003A8FDF74CFBBB
:103B100001950A20ADF80000ADF80840ADF802406C
:103B20000D4C69462046FFF72BFF0022012120465D
:103B3000FFF71BFF00212046FFF7FFFE0122114681
:103B40002046FFF712FF01212046FFF7F6FEBDE8F1
:103B5000FF810000300000200004004010B5034643
:103B6000FFF78EFF0A4AC2E90401652B05D8401C05
:103B700041F100019061D16110BD5B1E6424B3FB73
:103B8000F4F4201841F100039061D36110BD0000EE
:103B90003000002072B603480168491C016062B61B
:103BA000704700003000002072B605488168C26886
:103BB000491C42F100028160C26062B67047000099
:103BC000300000200022026042600272C160026187
:103BD0007047000030B4084B5A68002A04D00468CB
:103BE000091B1160002111720261012101725860EC
:103BF00030BC00F061B80000B000002070B5154A7C
:103C0000546822690025002A02D013680B4418E08A
:103C10000268511A01602061056170BD06689E420C
:103C200009D20368591A016012B11368591A116058
:103C30002061026170BD144612692AB119461668E6
:103C40003344002CEAD170BD0168C91A01602061BB
:103C5000056170BDB000002010B5134C207800281D
:103C600002D1606800281ED0FFF7CCFE61680A68A8
:103C7000824202D20020086007E0101A086004E0C7
:103C800001696160C06800B18047606810B1016877
:103C90000029F5D06168002905D001210172BDE835
:103CA000104000F009B810BDB000002001490870B4
:103CB00070470000B0000020054900224A700978D2
:103CC0000068002901D0FEF77DB8FFF747BF00006C
:103CD000B000002070B505460C46284600F042F8BA
:103CE0000648007810B1FDF78FFF01E0FFF7C6FE30
:103CF000844200D204462C606C6070BDB00000208D
:103D000070B5044672B6002C03D02046FFF766FE5D
:103D100008B162B670BD6168216000202072104D4C
:103D2000686850B1017A01290BD001682068884287
:103D300010D22046FFF74EFF0FE02046FFF74AFF64
:103D40000BE0FFF75FFE69680968814200D2084610
:103D5000091AEBE72046FFF751FF62B670BD00007D
:103D6000B000002070B5044672B6214D696808465F
:103D700000290ED06CB1A14225D1087A0026012875
:103D800009D00869E8B121686860026811440160DF
:103D90002BE062B670BDFFF735FE2168814200D28C
:103DA00008460A1A6968086948B10E7268600168B5
:103DB0001144016001210172FFF77EFF15E06E6082
:103DC00013E06E6011E022680DE0A14209D109699B
:103DD00021B1016108681044086006E0002101611A
:103DE00003E0084609690029EFD162B670BD000002
:103DF000B00000202DE9F0412B4C40F227763146EF
:103E0000204600F0BEF8294D70B105F11C000746B0
:103E1000FDF7B2F918B300223146204600F0D1F880
:103E2000696B09B10020884740F22531204600F037
:103E3000A8F810B1204600F039F940F2255120468B
:103E400000F09FF800282DD0204600F02FF9C4B2D2
:103E5000164828300646FDF797F940B11BE0384672
:103E6000FCF7D2FF0146204600F024F9D8E72146AE
:103E70003046FCF7D8FF0E490A2C05D00D4A0878C9
:103E80001454401C087006E00878302801D901203D
:103E9000487000200870696B002903D0BDE8F0412C
:103EA00001200847BDE8F0810038014018010020DA
:103EB00050000020BC010020002904D0818941F479
:103EC000005181817047818921F4005181817047BF
:103ED00010B5234988420AD101218C032046FDF701
:103EE0007FFA2046BDE810400021FDF779BA1D4950
:103EF00088420AD101214C042046FDF755FA20469C
:103F0000BDE810400021FDF74FBA174988420AD199
:103F100001218C042046FDF747FA2046BDE81040F9
:103F20000021FDF741BA114988420AD10121CC0490
:103F30002046FDF739FA2046BDE810400021FDF784
:103F400033BA0B4988420AD101210C052046FDF7FE
:103F50002BFA2046BDE810400021FDF725BA10BD20
:103F6000003801400044004000480040004C004040
:103F7000005000400246002012880A4200D0012072
:103F8000704770B5002440F66A12C1F3421301F085
:103F90001F05012606FA05F2012B0CD0022B0DD0CD
:103FA000838A1340090A8E40008830400BB100B16B
:103FB0000124204670BD83891340F3E7038A134030
:103FC000F0E710B540F66A13C1F3421301F01F0485
:103FD0000121A140012B07D0022B07D014303AB1A8
:103FE00002680A43026010BD0C30F8E71030F6E7B3
:103FF00002688A43026010BD7FB504460D46208AE0
:1040000020F44051E88808432082A18941F20C60E5
:104010008143A8882A8910436A890A431043A081F2
:10402000A08A20F44071A8890843A0826846FDF761
:10403000E5F91D48844201D1039800E00298A18966
:10404000090408D500EBC00101EB00102968490004
:10405000B0FBF1F007E000EBC00101EB00102968B4
:104060008900B0FBF1F06422B0FBF2F109010B0909
:104070006FF018056B4300EB8300A3891D044FF01C
:10408000320307D503EBC000B0FBF2F000F00700ED
:10409000084306E003EB0010B0FBF2F000F00F0065
:1040A000084320817FBD0000003801408088C0F3B4
:1040B00008007047C1F30801818070472DE9FF4F68
:1040C00085B00446DDE91396129D884625208DF8BB
:1040D00000004FF0080B8DF801B000278DF802703A
:1040E00001208DF803006846FDF75EF8DFF8FCA0BC
:1040F000B8F1000F09D040F22551B8F1010F0AD0F4
:10410000206A98B1E06A88B111E0206A10B1ADF878
:104110000EB013E0FEE7E06A38B101225046FFF727
:1041200050FF0420ADF80E0008E0FEE727620122F0
:104130005046FFF746FF0C20ADF80E00079801909F
:1041400008994FF4805049B1ADF808004DB1012DE8
:104150000AD0022D0BD0032D0ED011E0ADF808705F
:10416000F4E7ADF80A700BE0ADF80A0008E04FF490
:104170000050ADF80A0003E04FF44050ADF80A00DB
:10418000B9F1000F0ED0B9F1010F0ED04FF4C0609D
:10419000ADF80C0076B1012E0FD0022E12D0032EF6
:1041A00015D018E0ADF80C70F4E74FF48060ADF86E
:1041B0000C00EFE7ADF810700DE04FF48070ADF833
:1041C000100008E04FF40070ADF8100003E04FF469
:1041D0004070ADF8100001A95046FFF70DFF012116
:1041E0005046FFF769FE09B0BDE8F08F0038014086
:1041F0002DE9FC41044617461E4621700121880323
:10420000FDF7E0F81248FFF763FE01250095002353
:1042100002223946201D0195FCF7A4FE00950023DB
:104220000222314604F110000195FCF79BFE207933
:10423000072200F00F01A068FCF73DFE207C07225A
:1042400000F00F01606902B0BDE8F041FCF733BE39
:1042500000380140FEE700000FB4054B10B503A97C
:10426000044A029800F084F810BC5DF814FB0000CA
:104270007D460008B80000202DE9F0414F1E00EBFC
:10428000C7010446D1E9000115461E4637F0060273
:104290000DD02A463346FCF720F87F1E04EBC703F7
:1042A000D3E90023FBF772FF37F00602F1D1022FAA
:1042B00025D0042F13D0062F18BFBDE8F0812A4661
:1042C0003346FCF70AF8D4E90A23FBF75FFF2A46D6
:1042D0003346FCF702F8D4E90823FBF757FF2A46D8
:1042E0003346FBF7FAFFD4E90623FBF74FFF2A46D4
:1042F0003346FBF7F2FFD4E90423FBF747FF2A46D6
:104300003346FBF7EAFFD4E90223FBF73FFF2A46D7
:104310003346FBF7E2FFD4E90023BDE8F041FBF7A9
:1043200035BF00000022134610460149FCF747B88C
:104330000000F03F0122FCF7B1B8002213461046FE
:104340001146FCF73CB802E008C8121F08C1002A59
:10435000FAD170477047002001E001C1121F002A06
:10436000FBD170470149086070470000C40000207D
:104370002DE9FF4F89B09B460446002506E025281D
:104380000BD05A460B999047641C6D1C207800286E
:10439000F5D10DB02846BDE8F08F0027B8460122C0
:1043A000474900E0074314F8013F203B02FA03F0BD
:1043B0000842F7D120782E2819D114F8010F47F0C0
:1043C00004072A280ED06FF02F022078A0F13001C8
:1043D00009290CD808EB880102EB410100EB010828
:1043E000641CF2E70A98641C50F8048B0A90207849
:1043F0000028CED0642808D0692806D075281ED0A1
:104400005A460B9990476D1C58E00A994FF00A09DB
:1044100001C90A91002802DA40422D2102E0390543
:1044200004D52B218DF82010012103E0F90704D0D9
:104430002021F7E78A4608AE0DE00021FAE70A9945
:104440004FF00A0901C90A91F7E74946FCF7E8F875
:10445000303106F8011D0028F7D1ADEB060000F160
:104460002009780701D44FF00108C84502DDA8EB08
:10447000090000E000208046002706E008A85A4610
:10448000C05D0B9990476D1C7F1C5745F6DB04E01F
:1044900030205A460B9990476D1CB8F10001A8F1E5
:1044A0000108F5DC05E016F8010B5A460B99904718
:1044B0006D1CB9F10001A9F10109F4DC641C65E788
:1044C000092801002DE9F041C1F30A52A2F2FF369A
:1044D0002F4A304B0D460446142E2FDA002E12DAE6
:1044E000FBF754FE00221346FCF782F84CD2002D55
:1044F000BCBF4FF00045002446DB55EA040018BF5E
:10450000254D19D140E0DFF894C02CFA06F705EAF2
:10451000070C5CEA040C08BFBDE8F081FBF736FE2F
:1045200000221346FCF764F82ED2002D03DD4FF471
:104530008010F0400544BD43002425E0332EC8BF61
:10454000BDE8F081A6F1140C4FF0FF3727FA0CF705
:104550003C4208BFBDE8F081FBF7BCFE00221346D9
:10456000FCF746F810D2002D0DDD142E08BF6D1C8F
:1045700009D0C6F13400012101FA00F02044A04224
:1045800038BF6D1C0446BC4329462046BDE8F08177
:104590009C7500883CE4377E0000F03FFFFF0F0071
:1045A0002DE9F041C1F30A52A2F2FF362F4A304BF7
:1045B0000D460446142E2FDA002E12DAFBF7E6FD24
:1045C00000221346FCF714F84CD2002DA4BF00249F
:1045D000254647DA25F00040204318BF254D41D03D
:1045E00018E0DFF894C02CFA06F705EA070C5CEA3D
:1045F000040C08BFBDE8F081FBF7C8FD002213469C
:10460000FBF7F6FF2ED2002D03DA4FF48010F040B6
:104610000544BD43002425E0332EC8BFBDE8F0812A
:10462000A6F1140C4FF0FF3727FA0CF73C4208BFF5
:10463000BDE8F081FBF74EFE00221346FBF7D8FFE2
:1046400010D2002D0DDA142E08BF6D1C09D0C6F152
:104650003400012101FA00F02044A04238BF6D1C53
:104660000446BC4329462046BDE8F0819C7500887D
:104670003CE4377E0000F0BFFFFF0F0070B504463A
:10468000064DE1B22846FFF715FD40212846FFF709
:1046900071FC0028F9D0204670BD000000380140B0
:1046A00010B5002821D0114B0022001F196803E02B
:1046B000814203D80A4649680029F9D152B11368EA
:1046C000841A9C4204D1006818441060104602E02D
:1046D000506000E0186039B102680B1A934203D1B0
:1046E0000B681A4402604968416010BDBC0000209C
:1046F00070B504462046FBF7F9FE00F0CBF9FBF756
:104700000EFF401CC5B2284600F050FB02460020B8
:104710000A21B4FBF1F301FB134330332E1A164484
:1047200006F8013CB4FBF1F4401C002CF1D100214F
:104730001154104670BD00002DE9F04DC84A002408
:1047400090B0914205DA21F00043934201D805D19F
:1047500020B110B0BDE8F04DFFF7ECBDB1F5801F02
:104760001BDA53EA000209D0002911DA0120FFF711
:10477000F9FD10B0BDE8F04DFFF7DFBD0220FFF7F7
:10478000F1FDFFF7CFFD10B081F00041BDE8F08DE5
:104790006FF035043622FBF781FE04EB2152C1F3A2
:1047A0001308B049A2F2FF33414401F4801282F0B1
:1047B0007F6103EB225281F04051009241EA0801EF
:1047C0000022A94BFBF783FD044608F10200A74E27
:1047D000C0F313000D467E44032867D2D6E90023B8
:1047E0002046FBF7EDFE1ED10098002802BFD6E957
:1047F000000110B0BDE8F08DFBF767FE07460C46E0
:104800009B4A9C4BFBF769FD06460D469A4A9B4B1B
:1048100038462146FBF761FD10B032462B46BDE815
:10482000F04DFBF7B3BC4FF05532954B204629466F
:10483000FBF753FD0022934BFBF74CFD06460F465A
:1048400022462B4610461946FBF747FD32463B46AB
:10485000FBF743FD064600980F46F0B1FBF735FE27
:1048600080468A46824A834BFBF737FD32463B46F9
:10487000FBF730FD22462B46FBF729FD05460C468B
:104880007D4A7E4B40465146FBF727FD10B02A4635
:104890002346BDE8F04DFBF71ABD0B4610B032467B
:1048A00020462946BDE8F04DFBF711BD00224FF030
:1048B00080432046FBF76AFC02460B462046294609
:1048C000FBF77DFD06460F460098FBF7FEFDCDE9A0
:1048D000040132463B4610463946FBF7FEFC0C907D
:1048E00069480C9A4044019009910B461046FBF729
:1048F000F4FC8246024665488B46C8F151080B46D7
:1049000008F5D72803217844FFF7B6FC52465B46EA
:10491000FBF7E3FC0A905E480D9152465B4604218A
:104920007844FFF7A9FC099B0C9AFBF7D6FC844658
:1049300001980D9B40EA080860460A9AFBF726FC9E
:1049400083460891B8F1000F4EDD4FF0FF3220464C
:104950002946FBF7A3FD22462B46FBF7BEFC80460B
:1049600000988A4660B3DDE90401414A414BFBF7F8
:10497000B4FC099100905A4640465146089BFBF70B
:1049800005FC32463B46FBF7A8FC099B009AFBF767
:10499000FDFB42465346FBF79DFC22462B46FBF7A8
:1049A00096FC04460D46DDE90401334A334BFBF720
:1049B00094FC10B022462B46BDE8F04DFBF787BCB7
:1049C0005A464046089BFBF7E1FB32463B46FBF765
:1049D00084FC42465346FBF77DFC10B022462B4632
:1049E000BDE8F04DFBF776BC009840B3DDE904016B
:1049F0001F4A204BFBF771FC80468A465A462046E8
:104A00002946089BFBF763FC32463B46FBF765FCF7
:104A100042465346FBF75BFC22462B46FBF757FC0E
:104A200004460D46DDE90401134A144BFBF755FC1F
:104A300010B022462B46BDE8F04DFBF748BC0B46B4
:104A40005A4620462946FBF742FC32463B46FBF7D6
:104A500044FC10B022462B46BDE8F04DFBF73ABCB3
:104A60000000F07F645F09000000F03F6E08000066
:104A7000763C7935EF39EA3D0000E0FE422EE63F14
:104A80005555D53F0000E03F86EBF9FF06070000D3
:104A9000040700002DE9F04104463048002581421A
:104AA00005DA21F00042824201D805D124B1204626
:104AB000BDE8F041FFF73EBCB1F5801F1BDA52EABA
:104AC000040008D000290FDA0120FFF74BFCBDE8F5
:104AD000F041FFF732BC0220FFF744FCFFF722FC55
:104AE00081F00041BDE8F0816FF0350536222046A7
:104AF000FBF7D4FC044605EB2150A0F2FF32D00FA7
:104B000040F2FF331B1A0D4663F31F551044FBF7A9
:104B1000DCFC06460F4629462046FFF70DFE104AEC
:104B2000104BFBF7DAFB04460D460F4A0F4B30469D
:104B30003946FBF7D2FB22462B46FBF727FB0546FF
:104B40000C460B4A0B4B30463946FBF7C6FB2A4650
:104B50002346BDE8F041FBF719BB00000000F07FE1
:104B60000EE526157BCBDB3F362BF111F3FE593DCD
:104B700000609F501344D33F90B0FBF735FFFBF725
:104B80006FFF0A23092200215B48FFF731FB002455
:104B90000094019423464FF4165202215648029481
:104BA000FFF78CFA564855490160564981605649CD
:104BB00041605649C16056490161564F396888477E
:104BC000F96855488847554805940694CDE907404B
:104BD00001254FF00808CDE901580C20CDE9034527
:104BE000009002230022FE6914212846B047CDE937
:104BF0000845052006940794CDE90445CDE9020453
:104C0000CDE9004801230C22BD6902211846A847BE
:104C10004FF4FA60FBF785FF41A0FFF71DFB002171
:104C20004C48FCF7A0FA4CA0FFF716FBDFF84091C8
:104C3000504D4FF4FA7699F80000002854D0202106
:104C400002A8FBF78CFA4CA0FFF706FB0AA94F4815
:104C5000FCF74CF90AA902A8FBF78CFA4CA102A8B0
:104C6000FBF788FA0DF1330102A8FBF783FA89F804
:104C700000406889401C80B26881B04203D1288915
:104C8000401C28816C812889B04201D1FCF7CAFA06
:104C90006889FFF72DFD80462889FFF729FD8246A8
:104CA0003BA102A8FBF766FA414602A8FBF762FAAD
:104CB00037A102A8FBF75EFA514602A8FBF75AFAA1
:104CC00002A8FFF7C9FA33A0FFF7C6FA3046FBF790
:104CD00028FFBA6A202102A890474046FFF7E0FC6F
:104CE0005046FFF7DDFCA6E74FF47A70FBF719FF9B
:104CF00029A0FFF7B1FA9EE7180100200913000868
:104D0000C80000204512000835130008F112000801
:104D1000D9120008D84E000800A1BC33C0C62D002F
:104D200024504D544B3331342C312C302C302C301A
:104D30002C302C302C302C302C302C302C302C3093
:104D40002C302C302C302C302C302C302C302A3283
:104D5000390D0A00E400002057616974696E67200C
:104D6000666F7220646174612E2E2E0A00000000AE
:104D700051000020000000204E657720475053204E
:104D800072656365697665643A200000BC010020A5
:104D9000202D20000A00000057616974696E6720A9
:104DA000666F72204750530D0A000000F0B50B30BB
:104DB000154D20F007010024144A0FE003688B42D0
:104DC0000BD38B4205D95E1A43184768C3E90067C5
:104DD00000E04368136002C004E0021D1068002870
:104DE000ECD12046002802D1286808B10020F0BD8F
:104DF000064A07481060074A121A22F00702C0E963
:104E0000002401202860D7E7C0000020BC0000205B
:104E10001C0400201806002003E011F8013B00F8F4
:104E2000013B521E92B2F8D2704700002DE9F04DBE
:104E300007460E46FBF798FC04460D463A463346B5
:104E4000FBF748FADFF86CA0DFF86CB01B4B0746A5
:104E5000884616F0004F4FF000020AD0FBF7B0FB77
:104E60000AD900225B4638464146FBF7C1FB1BD2FC
:104E700012E0FBF7A5FB08D2002253462046294644
:104E8000FBF725FA04460D460EE000225B46384645
:104E90004146FBF7ADFB07D8002253462046294682
:104EA000FBF774F904460D463146204665F31E01B2
:104EB000BDE8F08D0000F03F0000E03F0000E0BFE3
:104EC0001F1C1F1E1F1E1F1F1E1F1E1F1F1D1F1EFC
:104ED0001F1E1F1F1E1F1E1FB52200089520000841
:104EE000512C0008D12B0008152400086D2900085A
:104EF000D52E0008FD3100088D200008A1200008F3
:104F0000712A00080131000829310008152D000818
:104F1000C93400080F2A000809350008AB29000829
:104F200015350008BD290008152C0008000C2300C9
:104F30000D1E000ED2001FAA002407002712002811
:104F4000C1002994002AC10030D800358F003B02EF
:104F5000004000004130013143012340280A000095
:104F6000170000001C0C00000F0000003C0F0000A8
:104F70000700000050140000160000009C180000FC
:104F80000E000000781E000006000000A0280000AF
:104F900015000000D43000000D000000F03C0000BF
:104FA000050000004051000014000000A86100004E
:104FB0000C000000447A000004000000E4A200009D
:104FC0001300000050C300000B00000024F4000098
:104FD000030000008545010012000000A0860100CA
:104FE0000A00000048E80100020000002C8B0200CB
:104FF00011000000400D03000900000090D00300E4
:1050000001000000E0930400000000000000000028
:1050100004FA97999999D93FAF788E1DC571CC3F05
:105020009FC678D0099AC33F935555555555E53FCE
:10503000599322942449D23FDE03CB966446C73F5E
:1050400044523EDF12F1C23F0000000000000000A9
:105050007050000800000020C8000000464300080F
:1050600038510008C80000205009000056430008CD
:10507000000005000000000000000000000000002B
:105080000000000000000000000000000000000020
:105090000000000000000000000000000000000010
:1050A00000000000000000000100000000000000FF
:1050B00000000000000000000000000000000000F0
:1050C000000000000048E801030406080C10182046
:1050D0003000000000000000000102030406070881
:1050E00009030406080C101820300000000001021B
:1050F0000304010203040607080900000100000080
:10510000000000004D2400089926000871270008BF
:105110005D280008BD280008000000000000000015
:10512000010000000000000000000000000000007E
:08513000000000000000000077
:04000005080000F5FA
:00000001FF
