:020000040800F2
:10000000780A0020D5000008452F0008DF0000080E
:1000100000000000000000000000000000000000E0
:10002000000000000000000000000000E1000008E7
:100030000000000000000000E3000008F1370008A5
:10004000E7000008E7000008F52F0008E7000008B7
:10005000E7000008030B0008170B00082B0B000833
:1000600000000000E7000008E7000008E7000008C3
:10007000E7000008E700000800000000E7000008B3
:1000800000000000E7000008000000000000000081
:10009000E700000800000000E7000008E700000893
:1000A000E7000008E7000008E7000008F542000844
:1000B000E7000008E7000008000000000000000062
:1000C0000348854600F046FB00480047D14500083C
:1000D000780A00200448804704480047FEE7FEE70E
:1000E000FEE7FEE7FEE7FEE769390008C100000809
:1000F00030B50B46014600202022012409E00D46C0
:10010000D5409D4205D31D469540491B2546954047
:1001100040191546521E002DF1DC30BD70B500248B
:100120002546002801DA01244042002901DA012590
:100130004942FFF7DDFFAC4200D04042002C00D026
:10014000494270BDF0B51FB40646002082B0054696
:100150004024019100901BE0019922460F46304651
:1001600000F036FA049A059B801A994110D3104684
:100170001946224600F01CFA361A8F410197224692
:1001800001200021009F00F013FA38184D41009023
:100190002046641E0028DFDC019B00982946324679
:1001A00007B0F0BD03460B439B0703D009E008C925
:1001B000121F08C0042AFAD203E00B780370401C17
:1001C000491C521EF9D27047F0B507460846584000
:1001D00087B0C00F049048000E46590040084908F7
:1001E000BC1A884105D2384631461E4617460B4692
:1001F00002465800400810434CD0300D0390400593
:100200005900400D490D0590401A0290402872DABD
:1002100018030121000B090508430190049800927E
:10022000002805D001995242002088410092019097
:10023000029840210A1A0199009800F0B9F9054680
:100240000C466B4607CB00F0D4F9C0197141039AF4
:100250000E0D0023D71756401A467A40164344D055
:10026000049A002A2DD0029A012A039A15DC12055D
:10027000C01A914101263605001C7141D20F059E1E
:10028000D2070093019202962A46234600F0D1F944
:1002900007B0F0BD38463146FAE71605224A0F4648
:1002A000B218C01AB74101210905001C4F410018BE
:1002B0007F41114618187941E20F10436D196441CE
:1002C00013E0E2076D0815436408C2071443039A5C
:1002D00001261205C01A91413605001C7141CE0756
:1002E000400830434908C01851412A46234600F0CF
:1002F00093F9CDE7FFE7049801224000C117121AD5
:1003000000238B4104983146C417381AA141EEE707
:1003100030B40124E407634030BC55E730B4012415
:10032000E407614030BC4FE70000E0FFF0B51FB4C8
:1003300088B00B990998002448400999C00F4900DA
:1003400049080991C0070B990090490049080B9191
:1003500009990898A64608431CD00B990A980843A7
:1003600018D0099801244000420D4800410D099819
:1003700024050003000B204309900B980003000B99
:1003800020430B9050181C4940180022019014463D
:10039000104605E0002001460DB0F0BD032801DA4B
:1003A000034600E003239C46C11A0AAE0AE05F0040
:1003B00008ADED5B4F00F75B7D430027AA187C4139
:1003C000491C5B1E6145F2DD410004AB5A52210419
:1003D000120C0A43240C401C0828DFDB0198029011
:1003E0000099704601910090059B049A0799069820
:1003F00000F01FF9D0E700000DFCFFFFF0B50C4640
:100400005C4085B0E40FE40703944C0000266408C8
:1004100059009446490802460296224321D062467A
:100420000A431ED06200570D4A000E032303550DE8
:10043000012402462C492405781B1B0B360B40185F
:1004400023432643614600901C46501AB44103D30F
:100450000098401C009002E0921800985B41002830
:1004600003DA0020014605B0F0BD00200121090596
:100470000746864611E064461D46141BB54106D367
:100480006546521BB341744607430C43A646CD074D
:1004900040084908284392185B4105460D43EAD1BC
:1004A0001046184313D06046194650407140084327
:1004B00006D06046101AB34106D20122002306E09E
:1004C00000220123DB0702E00122D24353100098EF
:1004D00074460105381C6141029C039D0019694165
:1004E00000F09AF8BFE70000FD0300000EB50549D3
:1004F0000291002100910A460B46019100F099F803
:1005000003B000BD330400000EB5054A029200227C
:1005100000921346019200F08CF803B000BD000079
:10052000330400004A0009030123090B1B0519438A
:10053000094B10B5520D9A4201DA002010BD064B4E
:1005400034339A4203DC9A1A00F042F810BD034992
:100550005118884010BD0000FF030000CDFBFFFFD5
:1005600010B5002904DB0124E40740428C412146F8
:10057000002B04DB1C460123DB075242A3418B42C4
:1005800000D1824210BD000010B5002904DB012417
:10059000E40740428C412146002B04DB1C4601232A
:1005A000DB075242A341994200D1904210BD0000A6
:1005B00010B5202A04DB0146203A9140002010BDEE
:1005C000914020239C1A0346E3401943904010BDFC
:1005D00010B5202A04DB0846203AD040002110BD87
:1005E0000B46D340D0402024A21A9140084319461C
:1005F00010BD10B5202A06DBCB170846203A104163
:10060000C1170B4306E00B461341D0402024A21A29
:1006100091400843194610BD10B5002B08DA00249C
:10062000401C614192185B411A4301D140084000CF
:1006300010BDF0B51FB482B005460C0003D00846CB
:1006400003F092FF02E003F08FFF2030024600909B
:1006500021462846FFF7ACFF049B059A04460F4647
:1006600018431143084314D0184610431BD0009878
:1006700040210A1A18460599FFF7AAFF05460E46BB
:10068000009A05990498FFF793FF084305D00120CD
:1006900004E02046394607B0F0BD0020C1170543ED
:1006A0000E432C43374300990E986305401A790591
:1006B000E40A00220C43FD0A0A3002D5002001465C
:1006C000E9E70105101969410C9C0D9D001969416C
:1006D000FFF7A2FFDFE70000F8B505464800400835
:1006E0000C46284304D06000184A400D904201DDBA
:1006F0002846F8BD15493539884210DC88420BDBA5
:10070000290D200308432903014305D0E00F1049B8
:10071000C00741180020F8BD00200146F8BD161A98
:100720004020821B28462146FFF742FF07460091E2
:10073000284621463246FFF74BFF3A46009BFFF71B
:100740006BFF3246FFF734FFF8BD000033040000B2
:100750000000F03F064C0125064E05E0E36807CC9B
:100760002B430C3C98471034B442F7D3FFF7ACFC52
:10077000E84600080847000870B5044600252068D0
:100780008068042108408008002829D020688068FB
:10079000084000280BD0206880680221084000280B
:1007A00005D120688068102108432168886000F026
:1007B00055FF05460EE000F051FF401B0A2809D9FD
:1007C000A06D10210843A065E06D01210843E0659C
:1007D000012070BD20688068042108400028EAD10B
:1007E0000020F6E770B50446002520688068800781
:1007F000800F012807D120680068C007C00F0028BB
:1008000001D0012000E00020002837D02068806857
:1008100005210840012800D100E0002000280AD06E
:1008200000BF206880680221084321688860032097
:100830002168086009E0A06D10210843A065E06D03
:1008400001210843E065012070BD00F007FF054667
:100850000EE000F003FF401B0A2809D9A06D10210B
:100860000843A065E06D01210843E0650120EBE746
:1008700020688068C007C00F0028EAD10020E3E7A5
:1008800070B504460D4607480078002808D10120BD
:10089000044908702946204600F02CF800F004F8BE
:1008A00070BD00002800002010B5002010494860ED
:1008B000032189070E484161002181610721C1613F
:1008C00001210162002141628162C16241630163D1
:1008D00081630421C1638902016400214164816450
:1008E000C16400F031FC0021014800F066FB10BD3E
:1008F000340000207CB505460C460D480D490860C3
:100900000D48406B0121490208430B4948630948DF
:1009100000F0B0FB601C002808D0002000900346C7
:10092000032221460190284600F064F97CBD0000B6
:1009300000240140340000200010024010B504469D
:10094000012C01D102F07CFD0148047010BD0000B3
:100950001200002072B603480078401C014908705C
:10096000704700000300002005480078401E04493D
:10097000087008460078002800D162B67047000071
:100980000300002000B587B031480078002847D127
:1009900000F01EFF02F032FF012000210B4602464C
:1009A000009101902D212B4800F024F900200090A7
:1009B000034602460A21019004A800F01BF904A88E
:1009C00000F0D2FA012821D12349087008222349D6
:1009D000234800F0DAF8FF220132224920480C3087
:1009E00000F0D3F80A23092200211D481C3803F027
:1009F000ADFC0020009001900346E122520202214A
:100A0000029017481C3803F07DFC06E000201249D4
:100A1000087013481C3803F08EFC00F05FF801E00A
:100A200002F05CFF172216210F4802F0E5F90021C1
:100A30000E48FFF725FF0020C0431D231E221F2163
:100A400000900B4802F004FE02F080FD07B000BDEC
:100A500000000020A0000020010000200400002071
:100A60003401002050010020C4000020B800002004
:100A7000D004002000B585B0012000210B460A46B5
:100A800000910190742102A800F0B4F80120002127
:100A90000B460A4600910190752102A800F0AAF8C1
:100AA000012000210B460A4600910190762102A800
:100AB00000F0A0F8012000210B460A4600910190A9
:100AC000782102A800F096F8034B0222114602A8F2
:100AD00000F057FA05B000BD1D0C000810B500F07D
:100AE0007FF8002806D100F069FC00F07BFC00F0E4
:100AF0006FFC05E000F044FC00F056FC00F04AFCFE
:100B000010BD10B502F09CFC012000F08DFC02200D
:100B100000F08AFC10BD10B502F092FC042000F039
:100B200083FC082000F080FC10BD10B502F088FCAA
:100B3000102000F079FC202000F076FC402000F02E
:100B400073FC802000F070FCFF20013000F06CFC92
:100B50000120400200F068FC0120800200F064FCEB
:100B60000120C00200F060FC0120000300F05CFCEA
:100B70000120400300F058FC0120800300F054FCE9
:100B80000120C00300F050FC10BD0023038043800F
:100B900041600281704770B504460D462189681C8A
:100BA000FFF7BCFA88B270BD70B5044621882046B4
:100BB000FFF7F1FF61680D5C21882046FFF7EBFF2E
:100BC0002080284670BD70B504460D4661882046D9
:100BD000FFF7E1FF608061886068455470BD0000E8
:100BE00003480078002801D1012070470020FCE76D
:100BF00001000020FFB583B005460C4616460C9F49
:100C00002011062808D80D980097019032462146F9
:100C10002846069B00F026F807B0F0BDF8B500277F
:100C20000020009000260098000238430646002E5F
:100C300015D00124002510E030462040002808D0BF
:100C4000A80007490858002803D0A900044A5058B2
:100C500080476004040C681C85B2002CECD1F8BD00
:100C60003C030020F0B587B004460E4615461F46EB
:100C70002670701C002801D107B0F0BD2078010754
:100C8000090F01208840608000202056F021084094
:100C9000002810D105200007606000BF3F48C06AEF
:100CA000012108433D49C8620846C06AC007C00F19
:100CB000019000BF42E000202056F021084010289B
:100CC0000FD13748606000BF3448C06A0221084332
:100CD0003249C8620846C06A02210840019000BF3C
:100CE0002CE000202056F021084020280FD12D486C
:100CF000606000BF2948C06A042108432749C862D0
:100D00000846C06A04210840019000BF16E0002098
:100D10002056F021084030280FD12348606000BFE2
:100D20001E48C06A082108431C49C8620846C06AB8
:100D300008210840019000BF00E000BF60880290D9
:100D40000C98A072049002200590002D02D1002082
:100D5000039017E0032D02D10320039012E0022D2F
:100D600009D1012F02D11220039001E0022003904B
:100D70000D98069006E0012F02D11120039001E0AA
:100D80000120039002A9606800F05EFB012D03D1F1
:100D900020460D9900F0D2F800BF6DE70010024028
:100DA0000004005000080050000C005010B504462C
:100DB000002C00D100BF00202056401C002800D18C
:100DC00010BD6188606800F035FCF9E7F0B587B0C8
:100DD00004460D4616461F46002006900520059045
:100DE000002F01D107B0F0BD60880090012D02D125
:100DF0004448019006E0022D02D14348019001E0F1
:100E000042480190A07A02900220039069466068EF
:100E100000F01AFB330003F0BEFB050405080B0FBE
:100E20000E0000BF0320069009E00220069006E0B5
:100E30000120069003E000BF0020069000BF00BF25
:100E40006188FF220132881A91423FD012DC1029BA
:100E500038D008DC01292DD002292CD004292DD02E
:100E600008293DD12BE020292DD040292CD08029E4
:100E700036D12AE00F221202811A90422AD00DDCCC
:100E8000FF380138002822D0FF38FF380238002808
:100E90001ED001218902401A22D11AE0012000034C
:100EA000081A18D001214903401A15D04900401AE8
:100EB00016D112E000BF0520059012E000BF062009
:100EC00005900EE000BF00BF00BF00BF00BF00BF25
:100ED00000BF00BF00BF00BF00BF0720059000E0BB
:100EE00000BF00BF20780007800E09490F50002284
:100EF0000699059800F09EFC059800F08FFC00BF55
:100F000070E70000000011100000211000003110F7
:100F10005002002010B50446002C02D06068002862
:100F200000D100BF00202056401C002800D110BD79
:100F30006188606800F087FB00BFF8E770B5044681
:100F40000D46002C02D06068002800D100BF0020B0
:100F50002056401C002800D170BDEAB2618860684C
:100F600000F075FB00BFF7E710B5044600202056DF
:100F70000011062803D82046FFF718FF10BD0020F7
:100F8000FCE7F8B504460D4616461F4600202056DD
:100F90000011062805D83B46324629462046FFF771
:100FA00015FFF8BD10B50446002020560011062894
:100FB00002D82046FFF7AEFF10BDF8B504460F4635
:100FC0000025002600BF5420005D012801D1022029
:100FD000F8BD01215420015500BF206880688007BA
:100FE000800F012806D1206800680840002801D041
:100FF000012000E0002000282FD1A06DFF21013149
:10100000884302210843A065206880688907084357
:101010002168886000F022FB064611E000F01EFB0C
:10102000801B0A280CD9A06D022188431021084397
:10103000A06500BF00215420015500BF0120C7E773
:1010400020688068C00FC0070028E7D1A06D02218A
:10105000884301210843A06504E0A06D20210843D6
:10106000A065012500BF00215420015500BF28467E
:10107000AEE7000070B504460025002C01D1012028
:1010800070BDA06D02210843A0652046FFF774FBE8
:101090000546002D07D12046FFF7A4FB0546012D8C
:1010A00001D00120A065012D3ED020684068224972
:1010B0000840216848602048C043216808602068D3
:1010C0008068012109078843216888602068C0681A
:1010D0001A4908402168C86020680069184908401A
:1010E0002168086120684069C008C0002168486123
:1010F0002068006A1349084021680862206880302F
:10110000406BC109C901206880304163206880308C
:10111000406BC109C901206880304163204600F05E
:101120002DF90020E065A06500BF00215420015585
:1011300000BF2846A4E7000060F7FFFF00023E83DF
:1011400002FCFF3F00F000F010B50446002C01D176
:10115000012010BDA06D002806D1E06500215420BB
:101160000155204600F00BF9A06D10210840002821
:1011700006D12068806804210840800800280AD031
:10118000A06D10210843A06500BF00215420015527
:1011900000BF0120DDE7A06DFF210131884302215E
:1011A0000843A065206880688007800F012807D168
:1011B00020680068C007C00F002801D0012000E0AF
:1011C000002000283AD100BF0321890760698842C6
:1011D00007D049426069884203D04900606988426B
:1011E0000CD12068006980008008216808612068AF
:1011F0000069616908432168086112E0206800699C
:101200008000800821680861594880680F2189049E
:101210008843574988600846806861690843544993
:10122000886000BF2068C068182188432168C860B2
:101230002068C068A16908432168C8604C4880687C
:101240000121490688434A49886008468068A16CA4
:1012500049060843464988602068806801210907DB
:101260000840002804D1206880680843216888600D
:101270002068C0683F4908402168C860216A606AE8
:10128000022901D1042100E000210843A16A490399
:101290000843A16B49000843216C0843616C890332
:1012A0000843E16CC90308432168C9680843216801
:1012B000C860FF21C231206B884207D0616B206B70
:1012C00008432168C96808432168C860E06A0128AA
:1012D00012D1A06A002807D12068C0680121090442
:1012E00008432168C86007E0A06D20210843A0657D
:1012F000E06D01210843E0656068012816D120688F
:1013000000691D49084021680861A168E068084338
:101310002169084321680969084321680861206838
:10132000006901210843216808610BE02068006919
:10133000C007C00F002805D02068006940084000A1
:101340002168086120684069C008C00021684861C0
:1013500020684069E1690843216848610020E06530
:10136000A06D0221884301210843A0650020F0E61A
:10137000002701401902FEFF03FCFF7F7047704702
:101380000348406840084000014948607047000039
:1013900000580140034840680421884301494860DF
:1013A000704700000058014003484068022188430C
:1013B00001494860704700000058014003484068F8
:1013C000012108430149486070470000005801406E
:1013D0000348406804210843014948607047000001
:1013E0000058014003484068022108430149486011
:1013F000704700000058014070B504460025002CDD
:1014000005DD02E06410681CC5B2012CFAD1A80009
:1014100004490858002803D0A900024A50588047C0
:1014200070BD00005002002010B504460548406918
:101430002040002804D0034844612046FFF7DCFF29
:1014400010BD00000004014070B5034600220024D6
:101450000020DAE0012696400D6835402C46002C2D
:1014600077D04D68022D02D04D68122D15D1D508C8
:10147000AE001D462035A8595507EE0E0F25B54084
:101480000646AE4330465607F60E0D69B540284372
:10149000D508AD001E46203670514D68012D08D08C
:1014A0004D68022D05D04D68112D02D04D68122DCA
:1014B00018D1986856000325B5400646AE4330461D
:1014C0005600CD68B540284398605868012595407E
:1014D0000646AE43304610264D6835402D099540EE
:1014E00028435860186856000325B5400646AE43A9
:1014F00030460D79AD07AD0F5600B5402843186052
:10150000D86856000325B5400646AE43304656001F
:101510008D68B5402843D860012636074D683540B0
:10152000B54271D13C4D6D6B012635433A4E756322
:101530003A4D9608B600A85995072E0F0F25B540CD
:101540000646AE43304605252D07AB4202D10025A5
:1015500015E059E0324DAB4201D101250FE0314D8C
:10156000AB4201D102250AE02F4DAB4201D1032548
:1015700005E02E4DAB4201D1052500E0062596077A
:10158000360FB5402843254D9608B600A851284D82
:1015900028680546A5432846012636044D6835408F
:1015A000B54202D1054625432846214D286068688A
:1015B0000546A5432846012676044D683540B542C8
:1015C00002D1054625432846194D6860A86805469E
:1015D000A5432846012636054D683540B54202D15F
:1015E000054625432846124DA860E8680546A543F0
:1015F0002846012676054D683540B54202D105469C
:10160000254328460A4DE860521C0D68D540002D40
:1016100000D01FE770BD000000100240080001402C
:101620000004005000080050000C0050001C005046
:1016300000040140024613690B40002B01D0012039
:1016400000E00020704742694A4042617047002A2A
:1016500001D0816100E081627047000001480068AC
:10166000704700002400002002463520805C0228DC
:101670000FD03520805C12280BD03520805C2228CA
:1016800007D03520805C322803D03520805C42288A
:1016900001D10220704700BF3420805C012801D1B5
:1016A0000220F7E701233420835400BF02233520B2
:1016B0008354106800684008400013681860106880
:1016C000006801231B0398431368186010680068C2
:1016D00008431368186010680068012318431368F2
:1016E000186001233520835400BF00233420835425
:1016F00000BF0020CEE7000010B50446002C01D149
:10170000012010BD3520005D002805D100213420C6
:101710000155204600F052F802213520015520687D
:10172000006840084000216808600F2109066068D1
:10173000884321680861206880680121C9038843C3
:1017400021688860A06800280FD0E068012806D1D1
:101750000121C903A06808432168886005E02121B0
:101760008902A068084321688860E068022802D1E5
:10177000800221684860206840680F49084321685A
:101780004860616920690843A1690902084321682A
:10179000C860216AE0690843216808602068006821
:1017A00001210843216808600020A0630121352041
:1017B00001550020A5E700000080000270470000EE
:1017C00002480068401C014908607047240000205E
:1017D00010B506480068402108430449086000200D
:1017E00000F006F800F018F8002010BD00200240BC
:1017F00070B504467D21C90006480068FEF778FCF4
:10180000054601F0F1F800222146501E00F012F8C2
:10181000002070BD200000207047000000BFC206FD
:10182000D20E01219140024A116000BF70470000B2
:1018300000E100E070B504460D46164629462046F4
:1018400001F082FB70BD000070B504460025002643
:1018500020212068084020287ED178480068032194
:1018600009050840032212056169114088420DD024
:10187000111160690840884208D170480068012150
:1018800049040840002801D0012070BD6B48806BDE
:101890000121090708436949886369480068891577
:1018A000084367490860FFF7D9FE054606E0FFF7E1
:1018B000D5FE401B642801D90320E6E76048006894
:1018C000FF21013108400028F1D05C484030006918
:1018D000032109040840032212046169114088426F
:1018E0005CD056484030006911468843064653484C
:1018F000403000690121C904084350494031086162
:10190000084600690121C90488434C4940310861F7
:101910000846066140153040002814D0FFF79EFEAF
:10192000054607E0FFF79AFE401B4649884201D969
:101930000320AAE7414840300069012149020840DC
:10194000400A0028EED000BF032109046069084066
:1019500088420DD1394800E020E000680901884341
:10196000032212056169114008433449086006E00A
:1019700032480068032109058843304908602F4830
:10198000403000690321090488430322120461697D
:101990001140084329494031086100BF2078C00741
:1019A000C00F002809D025484030C068800880005A
:1019B0006168084321494031C8600221206808401D
:1019C000022809D11D484030C0680C218843A16815
:1019D00008431A494031C86004212068084004289F
:1019E0000AD116484030C068032189028843E16863
:1019F000084312494031C86008212068084008287F
:101A00000AD10E484030C068032109038843216988
:101A100008430A494031C860802120680840802876
:101A20000AD106484030C068032189048843A1696F
:101A3000084302494031C860002026E700100240F8
:101A4000007000408813000070B504460D46002663
:101A500076480068C007C00FA8420ED273480068DD
:101A60004008400028437149086008460068C007E4
:101A7000C00FA84201D0012070BD0221206808409B
:101A8000022807D16A48C068F0218843A16808434A
:101A90006749C8602078C007C00F00284CD0606834
:101AA000022809D162480068012149040840400C1D
:101AB000002824D10120DFE76068002809D15C48B4
:101AC0000068012149020840400A002817D101207E
:101AD000D2E76068032809D155480068012149060A
:101AE0000840400E00280AD10120C5E75048006890
:101AF000042108408008002801D10120BCE74C489F
:101B0000C06880088000616808434949C860FFF7E1
:101B1000A5FD0646606802280FD107E0FFF79EFD8D
:101B2000801B4449884201D90320A5E74048C0688A
:101B30000C2108400828F1D134E0606803280FD157
:101B400007E0FFF78BFD801B3A49884201D903204B
:101B500092E73748C0680C2108400C28F1D121E0F9
:101B6000606800280FD107E0FFF778FD801B31493E
:101B7000884201D903207FE72D48C0680C21084026
:101B80000028F1D10EE007E0FFF768FD801B29492E
:101B9000884201D903206FE72548C0680C2108401E
:101BA0000428F1D121480068C007C00FA8420ED315
:101BB0001E4800684008400028431C490860084649
:101BC0000068C007C00FA84201D0012054E70421DB
:101BD00020680840042808D11548C0680721090278
:101BE0008843E16808431249C8600821206808401A
:101BF000082809D10E48C0680721C9028843216915
:101C0000C90008430A49C86000F044F80849C96897
:101C1000F02211400909084A515CC8400749086090
:101C20000020FFF7E5FD002026E70000002002402D
:101C30000010024088130000C44600082000002065
:101C400001480068704700002000002000B5FFF741
:101C5000F7FF0549C968072212021140090A034A21
:101C6000515CC84000BD000000100240D44600088E
:101C700000B5FFF7E5FF0549C9680722D202114008
:101C8000C90A034A515CC84000BD00000010024070
:101C9000D4460008F8B50024002600200090002754
:101CA000002532484068072149030840470B2F4868
:101CB000C0680C210840002806D0042809D0082854
:101CC00011D00C2849D110E0781C01218140CD03AE
:101CD00048E02648006810210840002801D0244D23
:101CE00000E0244D3EE0234D3CE02048C0680F2139
:101CF0008904084004461D48C0680321890508403E
:101D00000646A00C1C490C5CB00D461C1748C06868
:101D100001210904084000900098002815D11348BB
:101D2000006810210840002807D011496143084687
:101D30003146FEF7DDF905460EE00E4961430846DF
:101D40003146FEF7D5F9054606E00A4961430846E3
:101D50003146FEF7CDF9054604E0781C01218140AB
:101D6000CD0300BF00BF2846F8BD000000100240B0
:101D700000093D000024F400DC460008F8B50446E4
:101D800000252078C007C00F002870D0FB48C0682D
:101D90000C21084008280BD0F848C06808400C28DF
:101DA00013D1F648C06801210904084088420CD1CB
:101DB000F2480068012149040840400C00286AD01C
:101DC0006068002867D10120F8BD00BF0121090427
:101DD0006068884205D1E94800680843E74908601F
:101DE0002EE0052109046068884215D1E3480068A7
:101DF000012109048843E14908600846006801217F
:101E000089040843DD490860084600680121090487
:101E10000843DA49086013E0D84800680121090442
:101E20008843D64908600846006801210904084033
:101E3000009000BFD148006889008843CF490860FE
:101E400000BF6068002813D0FFF708FC054606E0D5
:101E5000FFF704FC401B642801D90320B4E7C748FE
:101E60000068012149040840400C0028F0D012E02D
:101E7000FFF7F4FB054606E0FFF7F0FB401B642884
:101E800001D90320A0E7BD480068012149040840AA
:101E9000400C0028F0D102212068084002286AD1B5
:101EA000B648C0680C21084004280BD0B348C0686D
:101EB00008400C281DD1B148C06801210904084020
:101EC000002816D1AD480068042108408008002889
:101ED00004D0E068012801D0012075E7A7484068D8
:101EE0001F2109028843216909020843A349486068
:101EF00041E0E068002824D0A04800680921884318
:101F0000E16808439D490860FFF7A8FB054606E025
:101F1000FFF7A4FB401B022801D9032054E7974890
:101F200000680421084080080028F1D093484068E8
:101F30001F21090288432169090208438F4948602B
:101F400019E08E48006809218843E16808438B49FD
:101F50000860FFF783FB054606E0FFF77FFB401BA9
:101F6000022801D903202FE7844800680421084093
:101F700080080028F1D110212068084010287ED167
:101F80007E48C0680C21084000282ED17B4800689C
:101F9000012149020840400A002804D0A069002815
:101FA00001D1012010E775484068072149038843A3
:101FB000216A084371494860084640680002000AE7
:101FC000217F090608436D494860FFF763FE6B49AE
:101FD000C968F02211400909694A515CC840694941
:101FE00008600020FFF704FC49E0A06900282CD01D
:101FF00062480068FF210131084360490860FFF72B
:102000002DFB054606E0FFF729FB401B022801D9FE
:102010000320D9E659480068012149020840400AD6
:102020000028F0D055484068072149038843216AB9
:10203000084352494860084640680002000A217F70
:10204000090608434D49486019E04C480068FF21E3
:102050000131884349490860FFF700FB054606E067
:10206000FFF7FCFA401B022801D90320ACE64348E5
:102070000068012149020840400A0028F0D10821E7
:1020800020680840082839D1606900281BD03B48E7
:102090004030006901210843384940310861FFF7A9
:1020A000DDFA054606E0FFF7D9FA401B022801D900
:1020B000032089E631484030006902210840400889
:1020C0000028F0D01AE02D48403000694008400058
:1020D0002A4940310861FFF7C1FA054606E0FFF7DB
:1020E000BDFA401B022801D903206DE62348403089
:1020F00000690221084040080028F0D1042120682E
:10210000084004287ED1002600271C48806B8906E1
:102110000840002805D11948806B08431749886397
:10212000012619480068FF2101310840002817D115
:10213000154800680843144908600127FFF78EFA24
:10214000054606E0FFF78AFA401B642801D9032000
:102150003AE60D480068FF21013108400028F1D01F
:1021600000BFFF210131A06888420FD103484030F1
:10217000006908430149403108613EE00010024017
:10218000C44600082000002000700040A06800281D
:102190000DD177480069FF210131884374490861F6
:1021A00008460069091588437149086125E0052141
:1021B0000902A068884213D16D480069FF210131EE
:1021C00088436B4908610846006909150843684956
:1021D00008610846006989150843654908610CE0F3
:1021E00063480069FF21013188436149086108465D
:1021F0000069091588435E49086100BFA06800288E
:1022000016D000E03BE0FFF729FA054607E0FFF7AC
:1022100025FA401B5749884201D90320D4E5544888
:102220000069012149020840400A0028EFD013E06C
:10223000FFF714FA054607E0FFF710FA401B4D4977
:10224000884201D90320BFE54948006901214902BC
:102250000840400A0028EFD1012F05D14648006808
:102260003902884344490860012E07D1404840386C
:10227000806B310788433E494039886300BF606AFC
:10228000002872D03A484038C0680C2108400C2819
:1022900069D0606A022848D1354840380068012179
:1022A00009068843324940390860FFF7D7F90546E7
:1022B00006E0FFF7D3F9401B022801D9032083E58C
:1022C0002B4840380068012149060840400E00288C
:1022D000EFD1216BE06A0843A16A084324494039E1
:1022E000C968FD2212049143084321494039C8605E
:1022F000084600680121090608431D494039086065
:10230000FFF7ACF9054606E0FFF7A8F9401B0228E5
:1023100001D9032058E516484038006801214906D4
:102320000840400E0028EFD01FE0114840380068F8
:102330000121090688430E4940390860FFF78EF9EC
:10234000054606E0FFF78AF9401B022801D9032061
:102350003AE5074840380068012149060840400E28
:102360000028EFD101E001202EE500202CE500003F
:102370004010024088130000007000407047704712
:1023800010B5044620688068012109030840000B4D
:10239000002811D02068C06809110840000A0028F0
:1023A0000AD02046FFF7EBFF2068C0688021084074
:1023B000124908432168C8602068806801214903E8
:1023C0000840400B002811D02068C068091108405F
:1023D000400A00280AD02046FFF7D0FF2068C068D6
:1023E00080210840064908432168C8600120400454
:1023F0000449486101212120015510BD7FFEFFFFE6
:102400007FFDFFFF0004014070B504460D46002625
:1024100000BF2020005D012801D1022070BD0121F4
:102420002020015500BF02212120015500BFCA20F4
:102430002168486253202168486200BFFF200130B4
:1024400085422CD1206880682946884321688860AD
:10245000206880682901884321688860FFF7FEF8BA
:10246000064615E0FFF7FAF8801B7D21C900884277
:102470000ED900BFFF202168486200BF0321212040
:10248000015500BF00212020015500BF0320C5E7F2
:102490002068C068C007C00F0028E3D02EE0206885
:1024A000806801214902884321688860206880682B
:1024B00001214903884321688860FFF7CFF8064669
:1024C00015E0FFF7CBF8801B7D21C90088420ED9AB
:1024D00000BFFF202168486200BF03212120015571
:1024E00000BF00212020015500BF032096E720688F
:1024F000C0680221084040080028E2D000BFFF2049
:102500002168486200BF01212120015500BF002140
:102510002020015500BF002080E70000FFB581B0FA
:1025200006460C461746002500200090FF2001308B
:10253000874227D160623068C5693068406C4004CA
:10254000400C00903F2000042840000C20707F20A9
:1025500000022840000A60706806400EA0709003D8
:102560002840000CE070009860603F200006284082
:10257000010E2020015540062840E06122482840F5
:10258000606129E00120400260623068056A3068BD
:10259000806C4004400C00903F2000042840000C58
:1025A00020707F2000022840000A60706806400EFC
:1025B000A070012080052840000CE0700098606049
:1025C0003F2000062840010E2020015540062840EB
:1025D000E0610D48284060610498002811D12078FE
:1025E00000F0EEFC2070607800F0EAFC6070A078EB
:1025F00000F0E6FCA0702021085D00F0E1FC202145
:102600000855002005B0F0BD80808080F0B50646FA
:102610000C461746002530684068124908400546B8
:10262000FF2000042840000CE0701F20000228401A
:10263000000A6070A806800EA070072040032840A2
:10264000400B2070002F0BD1E07800F0B9FCE07057
:10265000607800F0B5FC6070A07800F0B1FCA0706C
:102660000020F0BD3FFFFF00F0B505460C461746C1
:1026700000262868806A6060286800694004400C71
:10268000A060286800681249084006463F20000400
:102690003040000C20707F2000023040000A607043
:1026A0007006400EA070012080053040000CE070E4
:1026B000002F0BD1207800F083FC2070607800F0B0
:1026C0007FFC6070A07800F07BFCA0700020F0BD63
:1026D0007F7F7F00FEB504460D461646002700208A
:1026E0000190009000BF2020005D012801D1022050
:1026F000FEBD01212020015500BF022121200155EE
:10270000002E2AD12068806840210840002800D08F
:1027100002E00020E87000BFE869002800D100E076
:1027200000BF287800F059FC0304687800F055FCDD
:1027300000020343A87800F050FC0343E87800044B
:1027400003432021485D00F048FC00060343E8698C
:1027500003436869034301932FE0206880684021A8
:102760000840002804D0287800F02AFC019002E0FC
:102770000020E87000BFE869002805D12021485DED
:1027800000F01EFC019005E02021485D00F018FCDF
:10279000019000BF28780004697809020843A978ED
:1027A0000843E978090408432021495D09060843E4
:1027B000E9690843696908430190A96968680843A1
:1027C000009000BFCA2021684862532021684862F7
:1027D00000BFFF210131686A884241D120688068CA
:1027E0008843216888602068C068802108404D497E
:1027F00008432168C860FEF731FF074615E0FEF781
:102800002DFFC01B7D21C90088420ED900BFFF20CB
:102810002168486200BF03212120015500BF00212B
:102820002020015500BF032062E72068C068C00770
:10283000C00F0028E3D001982168C8610098216882
:10284000486420688068FF2101310843216888605E
:10285000206880680121090308432168886043E0FB
:1028600020688068012149028843216888602068C7
:10287000C068802108402C4908432168C860FEF7E1
:10288000EDFE074615E0FEF7E9FEC01B7D21C900FD
:1028900088420ED900BFFF202168486200BF032193
:1028A0002120015500BF00212020015500BF032039
:1028B0001EE72068C0680221084040080028E2D0D6
:1028C00001982168086200982168886420688068FF
:1028D000012149020843216888602068806801213D
:1028E00049030843216888601048006801214904B1
:1028F00008430E49086008468068012149040843DE
:102900000A49886000BFFF202168486200BF01219A
:102910002120015500BF00212020015500BF0020CB
:10292000E6E600007FFEFFFF7FFDFFFF00040140A1
:1029300010B50446002C01D1012010BD5120005DCE
:10294000002805D1002150200155204600F037F81D
:1029500002215120015520680068402188432168E8
:102960000860A16860680843E1680843216908437A
:102970006169084301225202A16911400843E169DB
:102980000843216A0843A16A084321680860A069D6
:10299000000C04210840616A0843216848602168EE
:1029A000E06A08612068C069910088432168C861B5
:1029B000002060650121512001550020BDE77047CE
:1029C000042806D10649096904221143044A116109
:1029D00005E00349096904229143014A11617047E6
:1029E00000E000E07047000070B504462546681E10
:1029F0000949884201D901200CE0681E0749486155
:102A00000321081F00F0A0FA002004498861072074
:102A10000861002070BD0000FFFFFF0000E000E043
:102A200010B5FFF7DFFF10BD7047000010B504467A
:102A300001220249024800F0F5F810BD1C000020F8
:102A4000CC02002010B504462068C069C007C00F42
:102A5000002812D020680068FF21013108400028BA
:102A60000BD0012021680862E06E01210843E06676
:102A70002021692001556A2001552068C069022182
:102A80000840002811D020688068C007C00F0028C7
:102A90000BD0022021680862E06E04210843E06642
:102AA0002021692001556A2001552068C069042150
:102AB0000840002811D020688068C007C00F002897
:102AC0000BD0042021680862E06E02210843E06612
:102AD0002021692001556A2001552068C06908211C
:102AE0000840002811D020688068C007C00F002867
:102AF0000BD0082021680862E06E08210843E066D8
:102B00002021692001556A200155E06E002807D078
:102B10002021692001556A2001552046FFF786FFD4
:102B20002068C069012109050840002810D02068EC
:102B300080688900084000280AD08810216808624F
:102B40002021692001556A2001552046FFF76CFFBE
:102B50002068C06920210840002807D0206800684C
:102B60000840002802D0204601F04AF82068C069D9
:102B700080210840002807D020680068084000280D
:102B800002D0204601F0F8FA2068C06940210840D0
:102B9000002807D0206800680840002802D020469E
:102BA00001F01EF810BD10B50446002C01D1012023
:102BB00010BDA069002800D000E000BF6920005DC2
:102BC000002805D1002168200155204600F029F891
:102BD00024216920015520680068400840002168D0
:102BE0000860204601F060F8606A002802D02046A4
:102BF00000F04CFF206840680921C9028843216821
:102C00004860206880682A2188432168886020689D
:102C100000680121084321680860204600F0AEFFEB
:102C2000C6E7704710B503466A20C05C202862D111
:102C3000002901D0002A01D1012010BD00BF682069
:102C4000C05C012801D10220F7E701246820C454A8
:102C500000BF59655820C2525A20C25200BF2403F7
:102C60009868A0420AD11869002803D1234C5C203F
:102C7000C45220E0FF245C20C4521CE09868002865
:102C80000AD11869002803D1FF245C20C45212E045
:102C90007F245C20C4520EE0012424079868A042DF
:102CA00009D11869002803D17F245C20C45202E0B6
:102CB0003F245C20C45200BF0020D86622246A2032
:102CC000C45418680068FF24013420431C68206045
:102CD00018688068012420431C68A06000BF00249D
:102CE0006820C45400BF18680068202420431C6872
:102CF00020600020A1E702209FE70000FF01000004
:102D000010B504460C4800F010F9002804D10B4817
:102D100001780948FDF757FF07482838406B00281D
:102D200004D005482838416B012088470122034917
:102D30000348FFF777FF10BD400100201C00002072
:102D4000CC02002010B503466920C05C20282ED19B
:102D5000002901D0002A01D1012010BD00BF682048
:102D6000C05C012801D10220F7E701246820C45487
:102D700000BFD9645020C2525220C2520020D866EF
:102D800021246920C45418680068FF2401342043BA
:102D90001C68206000BF00246820C45400BF18686D
:102DA0000068802420431C6820600020D5E70220B2
:102DB000D3E7000010B504460C4800F0ADF8002839
:102DC00008D10A48FDF7F0FE0949087001220948B8
:102DD000FFF7B8FF05481C38406B002804D00348B3
:102DE0001C38416B0020884710BD000034010020D2
:102DF0001D000020CC0200207CB504460D4616467E
:102E00000A480078002810D101200849087032468D
:102E10002946204600F042F80548002101230A46D1
:102E200000910190204600F005F87CBD29000020AB
:102E3000801A0600F8B50446069F079E1248806B6C
:102E4000012149050843104988631048864202D190
:102E50000F48606004E00F48864201D10E48606070
:102E60000021A1600121E160002121616161A16176
:102E7000E161216225462846FEF73EFC00212846F6
:102E8000FEF7F2FBF8BD000000100240A086010032
:102E9000BB7C7000801A0600380F30007CB50446F9
:102EA0000E4615461A48806B01214905884318498A
:102EB00088630846806B01214905084314498863EB
:102EC0000846806A0121490508431149886208467D
:102ED000806A0121490588430D4988620D482060B8
:102EE0000120002103460222009101903146204634
:102EF0003C30FDF77FFE01200021034602220091B5
:102F00000190294620464830FDF774FE7CBD000044
:102F10000010024000540040014608884A88904250
:102F200001D1012070470020FCE710B504466188FC
:102F30002046FDF730FE2188884201D1012010BDD6
:102F40000020FCE77047000010B5002819DA1A4A83
:102F500003071B0F083B9B089B00D2588307DC0E1E
:102F6000FF23A3409A438B071B0E8407E40EA34064
:102F70001A43114B0407240F083CA408A4001A515B
:102F800018E00E4A03231B02D21883089B00D25874
:102F90008307DC0EFF23A3409A438B071B0E840795
:102FA000E40EA3401A43054B032424021B19840892
:102FB000A4001A5110BD00001CED00E000E100E08B
:102FC000014600BFF020084000110A235843024682
:102FD0000807000F8018C0B270470146002203E0C6
:102FE000521C08460A38C1B20A29F9D21007000E4D
:102FF0000843704710B50948FFF7C2F9FF210131B6
:103000000648FFF701FA00F01BFA00F0C5F80020AF
:10301000FDF794FC00F0E0FC10BD0000A8020020C9
:103020000FB4F0B589B0182210A903A8FDF7BAF8BB
:1030300000240020029010A8867947790079019039
:1030400010A885780F9C00894F49081A80B2029019
:1030500021400298081880B20290E40A03E04B482D
:10306000241A681C85B249488442F8D206E0E1205F
:103070000001241A0198401C80B20190E120000157
:103080008442F4D202E03C3C781C87B23C2CFAD259
:10309000301986B207E00121C9020298401A80B2B5
:1030A0000290701C86B20121C90202988842F2DAAD
:1030B00004E030463C3886B2781C87B23C2EF8DA01
:1030C00006E038463C3887B20198401C80B2019037
:1030D0003C2FF6DA05E00198183880B20190681CA0
:1030E00085B201981828F6DA10A9C978002908D005
:1030F00010A9C878C117890F091889108900411AC9
:1031000016D110A84078401E2149085CA84225DA53
:1031100010A84078401E0A46115C2846FCF7FEFFC6
:103120008DB26846407B401CC1B26846417315E0D1
:1031300010A84078401E1749085CA8420EDA10A873
:103140004078401E0A46115C2846FCF7E7FF8DB226
:103150006846407B401CC1B2684641730A490298E8
:10316000091A059103A8867147710198C1B2684692
:1031700001748573182203A90E98FDF713F809B09E
:10318000F0BC08BC04B01847FF07000080510100E4
:10319000B8460008AC46000830B597B000240025BA
:1031A0001048007800281BD101A800F005F918226A
:1031B00001A907A8FCF7F6FF0023FF2201320DA9A1
:1031C0000948FFF7ABF909490E980C1A09980D1A2E
:1031D000281B00F0ABF8064908600120014908707F
:1031E00017B030BD14000020A8020020FF07000027
:1031F0001800002070B58CB0054600BF0024002DDB
:1032000008D1684600F0D8F81822694606A8FCF7ED
:10321000C9FF04E01822294606A8FCF7C3FF0020D6
:1032200010E0002807D00146C217920F52189210E2
:103230009200821A02D12749641801E026496418D5
:10324000411C08B26946C97E8142EADC6946C97EF2
:10325000002908D06946C87EC117890F091889104E
:103260008900411A0ED1002006E01C49095C1C4A65
:1032700051430C19411CC8B26946497E491E81421E
:10328000F3DC0DE0002006E01649095C144A5143C6
:103290000C19411CC8B26946497E491E8142F3DCC3
:1032A00006A8817940793C22504309186846007F7E
:1032B000E1221201504309186846807E084A5043B3
:1032C00008180419E102084A0898101A0E18304626
:1032D0000CB070BD0085E2018033E101B846000802
:1032E00080510100AC460008FF070000F1B584B032
:1032F00000BF0498FDF7FAF804460022094BFDF7D9
:1033000015F806460022084BFDF778F80191009069
:1033100001F07EF90391029003990298FDF702F9FA
:1033200005B0F0BD0000704000405F40F1B584B0D2
:1033300000BF0498FDF7DAF804460022094BFCF7B9
:10334000F5FF06460022084BFDF758F80191009062
:1033500001F05EF90391029003990298FDF7E2F8FB
:1033600005B0F0BD00405F40000070400F490968A3
:10337000884209D90E490978012905D100210C4A52
:1033800011700A490968401A0849096888420BD92E
:10339000322803D20021074A117005E00121054AB5
:1033A000117002490968401A704700001800002097
:1033B000100000201100002070B586B005460026E0
:1033C0000024002201A91048FFF74EF9029E0022B6
:1033D00001A90D48FFF748F9029C06E026460022A5
:1033E00001A90948FFF740F9029CA642F6D1002244
:1033F00069460548FFF70AF9182269462846FCF78E
:10340000D1FE06B070BD0000A802002070B50026F5
:10341000002400250020FFF7EDFE04460748FFF7D3
:10342000E9FE0546AC4203D2701E401B061900E0BF
:10343000661B3046FFF77AFF70BD00009002002047
:1034400010B510484068C007C00F012148404840EF
:10345000002806D00B480068042108430949086089
:1034600002E00120084908700848C0680C210840A3
:10347000042804D00548C0680840002801D1FDF7A1
:1034800081FA10BD007000401000002000100240C2
:1034900070B504462046FFF729FF054600F002F804
:1034A00070BD000010B5A0B00446FF2101312548D1
:1034B000FEF7AAFF032C00D8032404A8FFF77CFF23
:1034C000182204A91AA8FCF76DFE18221AA91E4892
:1034D000FCF768FE1CA80FC803936B4607C3214680
:1034E00004A81B9B1A9AFFF79BFD182204A914A895
:1034F000FCF758FEFF2001301390002011900F9030
:103500000F2000061090002108A8C17216980B9099
:1035100014A8817908A8817214A8417908A8417279
:1035200010A8017D08A8017210A8817C01720022F8
:103530000AA90448FFF7CEF8002800D000BF20B049
:1035400010BD0000A8020020900200201CB5012040
:103550000090002302461C2101901A48FDF74AFB07
:1035600000200121034602460091019006211548E2
:10357000C438FDF73FFB00200121034602460091BD
:10358000019007210F48B838FDF734FB00200121D6
:10359000034602460091019010210A48AC38FDF71D
:1035A00029FB0020012103460246009101901221CF
:1035B0000448A038FDF71EFB00210248D038016402
:1035C000C1641CBD4C05002070B5049C00268660BB
:1035D000002901D1C66002E00126F602C660026140
:1035E000436100260662466286620726C662002C98
:1035F00003D1FF250535456001E00025456070BD1C
:1036000070B502460020114D2B6804E0401C5B0899
:10361000072800D301E08B42F8D800BF04250540FD
:10362000002D00D100E0202502260640002E00D10A
:1036300000E010263543C607F60F002E00D100E04B
:1036400008262C463443D46170BD000020000020C1
:10365000FFB583B004460D4617460C9EFDF77AF978
:10366000152D57D15E48406A0121090308435C4982
:1036700048620846406A89148843594948620846A6
:10368000406B89140843564948635648206000201F
:10369000022103460A4600910190294620465830EF
:1036A000FDF7A8FA0020022103460A460091019086
:1036B000394620466430FDF79DFA0020022103467A
:1036C0000A4600910190204670300699FDF792FA63
:1036D000002001210346022200910190314620463C
:1036E0007C30FDF787FA701C00280AD101214902BD
:1036F000A16103460246014600902046FFF764FFA1
:1037000063E0012000231A46194600902046FFF787
:103710005BFF5AE01F2D58D13148806A012189038F
:1037200008432F4988620846806A0121890388433B
:103730002B4988620846806B012189030843284988
:103740008863294820600020022103460A46009130
:103750000190294620465830FDF74CFA00200221FE
:1037600003460A4600910190394620466430FDF731
:1037700041FA0020022103460A46009101902046AA
:1037800070300699FDF736FA002001210346022227
:1037900000910190314620467C30FDF72BFA701CD9
:1037A00000280AD101214902A161034602460146CF
:1037B00000902046FFF708FF07E0012000231A468B
:1037C000194600902046FFF7FFFE08492046FFF704
:1037D00017FF2046FFF7ACF8FDF7C6F807B0F0BDBD
:1037E00000100240003001400038004080969800F0
:1037F00010B5FDF7E5FFFFF713F910BD30B59BB02D
:103800003448406B01210843324948630846806BC5
:10381000090408432F49886300BF0846C06A042191
:1038200008432C49C8620846C06A04210840019038
:1038300000BF00BF284800680321C9028843012156
:10384000C90240182449086005200E900120000498
:103850000F900012109002201790C103189141049C
:10386000199141051A910EA8FEF788FA002800D098
:1038700000BF0120099003200A9000200B900C90BB
:103880000D90012109A8FEF7DFF8002800D000BF45
:103890002920029000200390069001200004079048
:1038A00002A8FDF7D1FF002800D000BFFEF7C8F93D
:1038B00005467D21C900FCF71BFC0446FFF794F880
:1038C0000420FFF77DF800221146501EFDF7B2FFDD
:1038D0001BB030BD00100240007000402048806BDB
:1038E0000121090708431E4988631E480068032117
:1038F000C90288430121C90240181A49086000BF63
:10390000174800680121090408431549086000BFF1
:1039100000BF13480068012149040840400C0028FA
:10392000F7D00F480068C90108430D49086000BF7F
:103930000B480068012149060840400E0028F7D0D6
:103940000748C06880088000C01C0549C86000BFE7
:103950000348C0680C2108400C28F9D170470000CA
:10396000001002400070004015480068FF2101313E
:103970000843134908600846C068124908401049C6
:10398000C86008460068104908400D4908600846AC
:10399000806840084000886008460068012189046A
:1039A0008843074908600846C068FD210904884328
:1039B0000349C86000200861C80304498860704753
:1039C000001002400C40FF88F6FFF6FE00ED00E01C
:1039D00010B5FFF71BFD10BD70B50024224800682C
:1039E000002800D170BDFFF7F3FF04461E480068B1
:1039F0000068A04204D800201B490968086006E05E
:103A0000194800680068001B174909680860002011
:103A10001549096808720BE01348056800680069D9
:103A200011490860E868002801D0E868804700BFB5
:103A30000D480068002804D00B4800680068002882
:103A4000EAD00948006800280CD007480068007ACE
:103A5000012807D00120044909680872024800685B
:103A600000F004F800BFBDE73000002010B50446A8
:103A70000020054908702068FFF778FC2060206866
:103A8000FFF706FD10BD00002C000020818CC90747
:103A9000C90F002908D001684968012252049143E6
:103AA000826A1143026851600222416A1140002972
:103AB00007D001684968D2039143C26A1143026882
:103AC00051600422416A1140002907D00168496809
:103AD00012049143026B1143026851600822416A4B
:103AE0001140002907D00168496812039143426BD5
:103AF0001143026851601022416A1140002907D029
:103B00000168896812029143826B114302689160D7
:103B10002022416A1140002907D0016889681202F9
:103B20009143C26B1143026891604022416A114087
:103B3000002915D00168496892039143026C114332
:103B40000268516001221205016C914208D101689E
:103B50004968032252059143426C11430268516047
:103B60008022416A1140002907D001684968120388
:103B70009143826C114302685160704710B504464E
:103B80002068006808210840082809D1134B00224A
:103B90008104204600F029FB002801D0032010BD3D
:103BA0002068006804210840042809D10B4B00223A
:103BB0000105204600F019FB002801D00320EEE7A4
:103BC00000BF00216820015500BF0020E0662021D1
:103BD000692001556A2001550020E0E7F0550000FA
:103BE00010B50446206800684021884321680860B9
:103BF0002021692001552046FFF7DCF8002010BD88
:103C000070B504465C20065B6A20005D222843D123
:103C100001210903A06888420BD12069002808D13E
:103C2000656D2068406A30402880606D801C60654A
:103C300007E02068406AF1B20840626D511C61657E
:103C400010705A20005B401E81B25A200153002997
:103C500020D100BF2068C069202108400028F9D188
:103C60002068006888432168086020680068FF2198
:103C7000013188432168086020688068400840005E
:103C80002168886020216A2001552046FFF738F816
:103C9000002070BD0020FCE72068806908210843EF
:103CA000216888610220F4E7F0B591B0044600264F
:103CB000002500200F900E90F6492068884201D11F
:103CC000012000E00020002800D000E000BF2169B2
:103CD000A068084361690843E16908430646206813
:103CE0000068ED490840304321680860206840685A
:103CF000032109038843E168084321684860A669F5
:103D0000E4492068884201D1012000E00020002819
:103D100001D1206A0643206880680B21090288438C
:103D200030432168886000BFDC492068884216D192
:103D3000DB48C0688007800F002806D0012808D023
:103D4000022804D0032808D105E0012506E0022559
:103D500004E0042502E0082500E000BF38E0D14976
:103D60002068884216D1CE48C0680C21084000283F
:103D700006D0042808D0082804D00C2808D105E073
:103D8000002506E0022504E0042502E0082500E005
:103D900000BF1DE0BF492068884219D1C048C068F3
:103DA000032189020840002808D001218902401A15
:103DB00008D0401A04D0401A08D105E0002506E0DA
:103DC000022504E0042502E0082500E000BF00BF52
:103DD00000BFB0492068884201D1012000E00020E6
:103DE00000287DD0002D06D0022D38D0042D78D0AB
:103DF000082D77D1BDE0626810460021FCF784FBF6
:103E00000B910A9002220023676838461946FCF796
:103E100099F903910290FCF777FB07910690FDF763
:103E200015FF002101910090FCF76EFB00229E4BD4
:103E300003910290FCF77AFA05910490079B069A89
:103E4000FCF7C2F9099108900B9B0A9AFCF7D6FA85
:103E50000D910C90FCF766FB2168C860AFE09048BC
:103E600040380068102108400009002824D062680A
:103E700010460021FCF748FB0B910A900222002318
:103E8000676838461946FCF75DF905910490FCF720
:103E90003BFB0022854B07910690FCF795F90991B1
:103EA00008900B9B0A9AFCF7A9FA0D910C90FCF76D
:103EB00039FB2168C86027E0626810460021FCF7E2
:103EC00023FB0B910A9002220023676838461946AB
:103ED000FCF738F905910490FCF716FB002202E08C
:103EE0006EE012E06AE0724B07910690FCF76CF905
:103EF000099108900B9B0A9AFCF780FA0D910C909F
:103F0000FCF710FB2168C86059E062681046002188
:103F1000FCF7FAFA0B910A900222002367683846F0
:103F20001946FCF70FF903910290FCF7EDFA07919F
:103F30000690FDF7AFFE002101910090FCF7E4FA36
:103F40000022594B03910290FCF7F0F9059104907F
:103F5000079B069AFCF738F9099108900B9B0A9A7F
:103F6000FCF74CFA0D910C90FCF7DCFA2168C86064
:103F700025E0626810460021FCF7C6FA0B910A9012
:103F800002220023676838461946FCF7DBF80591E2
:103F90000490FCF7B9FA0022464B07910690FCF713
:103FA00013F9099108900B9B0A9AFCF727FA0D91D7
:103FB0000C90FCF7B7FA2168C86000E000BFD3E0BE
:103FC0000121C903E06988427CD12B0000F0E3FAAB
:103FD00009061320513A515151475100FDF736FE61
:103FE000400061684908471838466168FCF780F866
:103FF00080B20E903EE0FDF73BFE4000616849084C
:10400000471838466168FCF773F880B20E9031E0CB
:10401000234840380068102108400009002808D0D3
:1040200061684A08244BD018FCF762F880B20E9001
:1040300007E061684A08214BD018FCF759F880B2B4
:104040000E9017E0FDF726FE40006168490847180A
:1040500038466168FCF74CF880B20E900AE061685F
:104060004A0801231B04D018FCF742F880B20E90D6
:1040700000E000BF00BF12490E9808400F900E9854
:104080000007400F0F9908430F900F982168C860F0
:104090006AE017E000480040F369FFEF0038014094
:1040A0004010024000440040000070408084CE4137
:1040B0008084EE410000604100127A000048E8016F
:1040C000F0FF00002B0000F066FA0906121E4D37C3
:1040D0004D4D4D434D00FDF7B9FD61684908471846
:1040E00038466168FCF704F82168C8603BE0FDF7DA
:1040F000BFFD61684908471838466168FBF7F8FF5B
:104100002168C8602FE019480068102108400009A4
:10411000002808D061684A08154BD018FBF7E8FF63
:104120002168C86007E061684A08124BD018FBF7A5
:10413000DFFF2168C86016E0FDF7ACFD6168490843
:10414000471838466168FBF7D3FF2168C8600AE06A
:1041500061684A080123DB03D018FBF7C9FF216817
:10416000C86000E000BF00BF11B0F0BD0010024009
:1041700000093D000024F40001466920405C21282C
:1041800031D15220405A00280DD1086800688023A0
:1041900098430B68186008680068402318430B6850
:1041A00018600020704701231B03886898420CD1D7
:1041B0000869002809D1CA6C1088C005C00D0B68B9
:1041C0009862C86C801CC86405E0CB6C581CC8643D
:1041D00018780B6898625220405A401E83B25220D1
:1041E00043520020DEE70220DCE7FFB581B0044641
:1041F0000E461D460027FDF731FA074603980028B2
:104200003BD12FE0681C00282CD0002D04D0FDF7F6
:1042100025FAC01BA84225D9206800688021884360
:1042200021680860206800682021884321680860B0
:1042300020680068FF2101318843216808602068F8
:10424000806840084000216888602021692001556D
:104250006A20015500BF00216820015500BF0320DE
:1042600005B0F0BD2068C0693040B04201D10120E6
:1042700000E000200028C5D039E02EE0681C0028AE
:104280002BD0002D04D0FDF7E9F9C01BA84224D99A
:1042900020680068802188432168086020680068E1
:1042A000202188432168086020680068FF210131CF
:1042B00088432168086020688068400840002168C1
:1042C00088602021692001556A20015500BF002126
:1042D0006820015500BF0320C2E72068C069304054
:1042E000B04201D1012000E000200028C6D100200A
:1042F000B6E7000010B50248FEF7A4FB10BD0000B1
:10430000CC020020FFB583B004460D460D9F0C9EE5
:104310006078002800D100BF2078FF2809D00E98CF
:1043200001970096029029462046069B059A00F0C8
:1043300021F807B0F0BD10B5044600206070207869
:10434000FF2802D0204600F0ABF810BDF8B50446B7
:104350000D4616461F466078002809D1012060707E
:10436000FF2D05D03B4632462946204600F0C8F8CE
:10437000F8BD0000FFB581B004460D461F460C9EF7
:1043800044484549086003984860002D07D1206AD9
:10439000002800D100BF08213F48416117E0012DEE
:1043A00007D1E06A002800D100BF04213A484161EA
:1043B0000DE0022D0AD1206A002802D0E06A002810
:1043C00000D100BF0C213448416100E000BF002F44
:1043D00003D100213048816004E0012F02D139036C
:1043E0002D4881600A9800280FD0022802D00328A7
:1043F0000AD104E0012149032748C16009E00321F3
:1044000009032548C16004E000BF00212248C160C3
:1044100000BF00BF0B98002803D100211E48016196
:104420000AE00B98012803D181021B48016103E0D7
:104430000321490218480161002E03D100211648CA
:10444000816110E0012E03D13102134881610AE03D
:10445000022E03D131021048816104E0032E02D103
:1044600031020D48816100210B48C161FEF79BFBC1
:10447000002800D000BF002201211B20FDF7DAF93F
:104480001B20FDF7CBF9012204490348FEF7CAFBC4
:1044900005B0F0BD00380140CC0200201C00002017
:1044A0001CB504461548406A012189030843134995
:1044B00048620846406A0121890388430F494862DF
:1044C0000846406B0121890388430C49486300205A
:1044D000009004210190615603460322201DFCF741
:1044E00089FB0020009010210190615603460322B1
:1044F00020461030FCF77EFB1CBD0000001002407F
:10450000FEB504460D4616461F4625701548406AFE
:10451000012189030843134948620846406A012182
:10452000890388430F4948620846406B012189038B
:1045300008430C4948630420012100230222009112
:1045400001903146201DFCF755FB0420012100237A
:10455000022200910190394620461030FCF74AFBB8
:10456000FEBD0000001002402021020C01D01021ED
:104570001046020A01D010460839020901D010463F
:10458000091F820801D01046891E420801D0881EEA
:104590007047081A704730B47446641E2578641C4E
:1045A000AB4204D3635D5B00E31830BC18471D4683
:1045B000F8E702E008C8121F08C1002AFAD17047C4
:1045C0007047002001E001C1121F002AFBD1704793
:1045D0000EB500BFFCF7D6F9FCF74CFA0A23092206
:1045E00000210948FFF78CFF00200090019003464E
:1045F0004B22D201022102900348FFF7BBFE02E0EA
:104600000248FCF7CFFCFBE718010020A0000020C7
:10461000F0B513B406460199FCF75EF804460D4662
:1046200002460B4630460199FBF772FE064601989A
:104630001B4B0F4600280CDA00223046FBF790FF98
:104640000CD90022174B30463946FBF79DFF1DD28F
:1046500014E000223046FBF783FF08D20022124B01
:1046600020462946FBF754FE04460D460EE0002284
:104670000C4B30463946FBF787FF07D800220A4B20
:1046800020462946FBF7A0FD04460D46019A690025
:104690004908D20FD2072046114303B0F0BD0000F5
:1046A0000000E0BF0000E03F0000F03F1F1C1F1EA5
:1046B0001F1E1F1F1E1F1E1F1F1D1F1E1F1E1F1F11
:1046C0001E1F1E1F00000000000000000102030466
:1046D000060708090000000001020304030406089D
:1046E0000C101820300000000847000800000020CF
:1046F00034000000B24500083C47000834000020A8
:10470000440A0000C245000800000100000000004B
:1047100000000000941100000000000000000000F4
:10472000000000000000000080841E000000000067
:0C4730000000000000000000000000007D
:04000005080000C12E
:00000001FF
