:020000040800F2
:10000000400A0020090100081B280008130100080D
:10001000192800080B0D0008395A000800000000DC
:100020000000000000000000000000001B010008AC
:10003000290D0008000000001F0100082101000830
:100040002301000823010008230100082301000800
:100050002301000823010008490D0008250E0008AF
:10006000550E0008850E0008B50E00082301000893
:1000700023010008230100082301000823010008D0
:1000800023010008230100082301000823010008C0
:10009000230100082301000823010008E50E0008E1
:1000A00023010008230100082301000823010008A0
:1000B000230100087D5000082301000823010008E7
:1000C0002301000823010008230100082301000880
:1000D00023010008495500082301000823010008F6
:1000E000790D0008412C00082301000823010008B5
:1000F00023010008DFF80CD000F0AEFB00480047F9
:10010000ED640008400A0020064880470648004782
:10011000FEE7FEE7FEE7FEE7FEE7FEE7FEE7FEE7B7
:10012000FEE7FEE729500008F500000840EA010359
:100130009B0703D009E008C9121F08C0042AFAD29D
:1001400003E011F8013B00F8013B521EF9D2704761
:10015000D2B201E000F8012B491EFBD27047002209
:10016000F6E710B513460A4604461946FFF7F0FFB6
:10017000204610BD30B505460020034600E05B1C5C
:10018000934205D2EC5CC85C201A01D1002CF6D158
:1001900030BD2DE9FE4F804681EA0300C00F0C46BA
:1001A000009021F0004123F00045B8EB0200A94186
:1001B00005D24046214690461C460B46024623F097
:1001C0000040104347D0270DC7F30A00C3F30A517C
:1001D0000290401A019040286BDAC3F3130040F4F8
:1001E000801B0098924620B10023D2EB030A63EBF8
:1001F0000B0B01985946C0F14002504600F059FAE5
:1002000006460D4650465946019A00F071FA10EB29
:1002100008006141002487EA115284EAE7731A4317
:1002200040D0009A62B3019A012A4FEA075215DCC6
:10023000001B61EB02014FF0004202EA0752CDE9D8
:100240000042001C41F5801132462B4600F071FA45
:1002500003B0BDE8F08F40462146F9E7001B61EB93
:100260000201001C41F5801300185B412018A2F523
:10027000001747EB030140EAD570B6196D4111E054
:100280006D084FEA360645EAC0754FEA0752001B73
:1002900061EB0201001C41F5801149084FEA300072
:1002A0000019514132462B4603B0BDE8F04F00F033
:1002B00031BA0098012240000023D0EB020263EB28
:1002C000E073009821464FEAE074B8EB000061EB60
:1002D0000401E9E783F000435BE781F0004158E760
:1002E0002DE9FE4F81EA030404F0004421F00041AF
:1002F00000944FF0000B23F0004350EA01045ED05D
:1003000052EA03045BD0C3F30A54C1F30A552C44E8
:10031000A4F2F3340194A0FB0254C1F3130141F49D
:100320008011C3F3130343F4801301FB024400FB69
:10033000034E840A970A44EA815447EA8357A4FB90
:10034000076802958D0A05FB07854FEA932C04FB8D
:100350000C542705029D4FEA065847EA1637B5EBBD
:1003600008056EEB070C870E920E47EA811742EAEA
:100370008312A7FB0201B6EB0B0164EB00042B0D0B
:1003800043EA0C335E1844EB1C50DA465146E7FB57
:100390000201C5F313044FEA0B3343EA14534FEA47
:1003A0000432019C43EA0603A4F10C040294009C6D
:1003B000CDE900B400F0BDF903B0BDE8F08F002036
:1003C0000146F9E72DE9F04D81EA030404F0004B02
:1003D00021F0004514464FF0000A23F0004150EA96
:1003E000050220D054EA01021DD0C5F30A57024687
:1003F000C5F31303C1F31300C1F30A5640F480158B
:1004000043F48013A7EB0608101BD64608F2FD380C
:1004100073EB050002D308F1010801E092185B417B
:10042000B8F1000F03DA00200146BDE8F08D00208E
:100430004FF48011064684460EE0171B73EB050748
:1004400005D3121B63EB050306434CEA010C490874
:100450004FEA300092185B4150EA0107EDD152EAB1
:10046000030012D082EA040083EA0501084305D0A4
:10047000101BAB4106D20122002306E000224FF000
:10048000004302E06FF0010253101AEB06004CEB40
:10049000085110EB0A0041EB0B01BDE8F04D00F0F4
:1004A00039B970B521F0004303430CD0C1F30A55AC
:1004B0000024D5EB040564EB0403D617AD1AB34151
:1004C00002DB0020014670BD201841EB025170BDD7
:1004D0000EB5C10F80EAE0700844CA07002140F25F
:1004E00033438DE80E000A460B4600F022F903B0B4
:1004F00000BD0EB540F2334102910021CDE900115B
:100500000A460B4600F015F903B000BD0EB540F2E7
:10051000334202920022CDE90022134600F009F98D
:1005200003B000BD70B5C1F30A5201F000450024CC
:10053000C1F3130140F2FF3341F480119A4201DA12
:10054000002070BD40F233439A42A2F2334203DCF2
:10055000524200F0BDF800E090402C43F1D0404200
:1005600070BDC1F30A5210B5C1F3130140F2FF335D
:1005700041F480119A4201DA002010BD40F2334369
:100580009A42A2F2334203DC524200F0A1F810BDBD
:10059000904010BDC1F30A52C1F3130140F2FF3382
:1005A00041F480119A4202DA00200146704740F27D
:1005B00033439A42A2F2334202DC524200F088B83E
:1005C00000F077B830B5041E71F1000404DB4FF081
:1005D0000044404264EB0101141E73F1000405DB8A
:1005E0001C464FF00043524263EB04038B4208BFAA
:1005F000824230BD30B5041E71F1000404DB4FF0BF
:100600000044404264EB0101141E73F1000405DB59
:100610001C464FF00043524263EB0403994208BF6B
:10062000904230BD30B50B46014600202022012407
:1006300009E021FA02F59D4205D303FA02F5491BB0
:1006400004FA02F52844151EA2F10102F1DC30BDC6
:100650002DE9F05F0546002092469B4688460646F7
:10066000814640241BE0284641464746224600F08A
:100670002FF853465A46C01A914110D311461846D6
:10068000224600F016F82D1A67EB01084F46224665
:100690000120002100F00DF817EB00094E41201E4B
:1006A000A4F10104DFDC484631462A464346BDE852
:1006B000F09F202A04DB203A00FA02F10020704764
:1006C0009140C2F1200320FA03F319439040704790
:1006D000202A04DB203A21FA02F00021704721FA97
:1006E00002F3D040C2F120029140084319467047FE
:1006F000202A06DBCB17203A41FA02F043EAE073E6
:1007000006E041FA02F3D040C2F1200291400843D2
:100710001946704710B5141E73F1000408DA401C26
:1007200041F1000192185B411A4301D120F0010010
:1007300010BD2DE9F04D92469B4611B1B1FA81F200
:1007400002E0B0FA80F220329046FFF7B2FF044692
:100750000F4640EA0A0041EA0B0153465A46084355
:1007600013D0114653EA010019D0C8F14002504697
:10077000FFF7AEFF05460E46504659464246FFF784
:1007800098FF084305D0012004E020463946BDE823
:10079000F08D0020054346EAE0762C4337430A9863
:1007A0006305E40AA0EB08000022FD0A44EA47546E
:1007B0000A3002D500200146E9E701051019694118
:1007C000DDE9084500196941BDE8F04DA2E70000E8
:1007D0002DE9F041054621F000400C46284309D0A0
:1007E000C4F30A5040F23341884205DD28462146D1
:1007F000BDE8F0812846FBE740F2FE31884210DC7C
:100800000CDB4FEA043040EA155050EA053105D0C0
:10081000104804F0004101430020E9E700200146B0
:10082000E6E7A0F233404642C6F1400228462146A0
:10083000FFF73FFF07468846284621463246FFF726
:1008400047FF43463A46FFF765FF3246BDE8F041B1
:10085000FFF72FBF0000F03F064C074D06E0E068B1
:1008600040F0010394E8070098471034AC42F6D3F7
:10087000FFF744FC0068000820680008034A11687C
:1008800021F440310068084310607047042701409C
:1008900010B5074988420AD144150121204602F0CB
:1008A000C9F82046BDE81040002102F0C3B810BDD1
:1008B00000240140826822F0F0020A4382607047FF
:1008C00030B542680F4B1A400C790B6842EA04229B
:1008D0001343436083680C4A1340D1E90342224327
:1008E0004D798C6844EA450422431A438260026BC6
:1008F00022F0F872097D491EC9B242EA0151016332
:1009000030BD0000FFFEFFFCFDF7FFC000210160CD
:100910000171417181604FF04072C260016101213B
:100920000175704738B50446084A1378002B0BD17F
:1009300001231370204600F077F800210B460A4689
:100940002046009100F004F838BD0000B8000020F7
:100950002DE9F04188B00C460E9F16461D46012039
:1009600002F0FCF8212002F0D3F80028FAD04FF46E
:1009700000780121404602F04FF84FF40030079014
:1009800007A8FFF77BFF01A8FFF7C0FF002134B1E4
:10099000012C06D0022C08D0032C0AD00CE00191C7
:1009A0000AE04FF08070019006E04FF00070019077
:1009B00002E04FF0407001908DF80810012316B34B
:1009C0008DF8093015B3012D22D0022D24D04FF01F
:1009D0004050039027B34FF4006005908DF8183015
:1009E000104C01A92046FFF76BFF10212046FFF7AE
:1009F00061FF0021404602F00FF8002002F0AEF83F
:100A000008B0BDE8F0818DF80910DBE70391E1E75C
:100A10004FF080500390DDE74FF000500390D9E78E
:100A20000591DBE7002401407CB504460D460748EC
:100A30002060FFF72DFF0020009003460190032265
:100A40002946201D00F072FB7CBD000000240140FF
:100A500010B50446002C01D002F044FC014884701B
:100A600010BD00001000002038B51C4C2078002874
:100A700032D14FF4407001F005FF4FF0E0200169E2
:100A800021F0020101611648016841F00071016026
:100A900019221821134801F08DFA12480321103849
:100AA000FFF740FF4FF0FF3000900523062207219B
:100AB0000D4804F03DFA02F063FF002004F0A0FCB2
:100AC00000F0BAF804F050FB10B102F0FDFB01E0B9
:100AD00004F096FB0120207038BD00000D000020BE
:100AE00004ED00E0EC0100200C0500207CB50024A2
:100AF00001252346224670214E48CDE9004500F0ED
:100B000015FB4C4800231A4671210C30CDE90045F5
:100B100000F00CFB47480023012272211830CDE978
:100B2000004500F003FB434800231A46732124309C
:100B3000CDE9004500F0FAFA3E4800231A46742138
:100B40003030CDE9004500F0F1FA3A4800231A466A
:100B500075213C30CDE9004500F0E8FA3548002326
:100B60001A4676214830CDE9004500F0DFFA3148D9
:100B700000231A4677215430CDE9004500F0D6FA1B
:100B80002C4800231A4678216030CDE9004500F05A
:100B9000CDFA284800231A4679216C30CDE900456A
:100BA00000F0C4FA234800231A467A217830CDE9B0
:100BB000004500F0BBFA1F48002301227B2184304E
:100BC000CDE9004500F0B2FA1A4800940023012252
:100BD0007C219030019400F0A9FA1648009400237B
:100BE00001227D219C30019400F0A0FA114800946C
:100BF000002301227E21A830019400F097FA01F031
:100C000081FD01F027FD01F0CDFC04F02BF800F090
:100C1000CDFD08480121903000F02CFC0548012151
:100C20009C3000F027FCBDE87C4002480121A83040
:100C300000F020BC2801002010B586B000240094EC
:100C4000234603221D2103A8019400F06FFA0094AB
:100C5000002303221F2103A8019400F067FA0094E7
:100C6000002303221C2103A8019400F05FFA0094E2
:100C700000230322012103A8019400F057FA0094F5
:100C8000002303220B2103A8019400F04FFA0094E3
:100C9000002303220C2103A8019400F047FA0094DA
:100CA00000230322122103A8019400F03FFA0094CC
:100CB000002303221E2103A8019400F037FA032227
:100CC00000940023114603A8019400F02FFA009429
:100CD00000230322162103A8019400F027FA002321
:100CE00000940322194603A8019400F01FFA012181
:100CF000084600F00BF80121022000F007F801215E
:100D0000042000F003F806B010BDFEE7054A0029F4
:100D100003D051680143516070475168814351606D
:100D200070470000002004E0704710B5044604F04E
:100D30001BFA20B12046BDE8104002F0EDB9204674
:100D4000BDE8104004F024BA10B504F00DFA08B163
:100D500002F0C8FA012000F00FF9002808D0054879
:100D6000006800B18047BDE81040012000F0FEB8E7
:100D700010BD00004C02002070B504F0F5F908B178
:100D800002F0B0FA4FF48065284600F0F5F8244CE4
:100D900028B1A06A00B18047284600F0E7F84FF478
:100DA0000065284600F0E8F828B1E06A00B1804705
:100DB000284600F0DBF84FF48055284600F0DCF8B8
:100DC00028B1206B00B18047284600F0CFF84FF4DF
:100DD0000055284600F0D0F828B1606B00B180477C
:100DE000284600F0C3F84FF48045284600F0C4F8C8
:100DF00028B1A06B00B18047284600F0B7F84FF447
:100E00000045284600F0B8F8002807D0E06B00B194
:100E100080472846BDE8704000F0A8B870BD0000CB
:100E20004C02002010B504F09FF908B102F05AFA04
:100E3000022000F0A1F8002808D00548406800B161
:100E40008047BDE81040022000F090B810BD0000BF
:100E50004C02002010B504F087F908B102F042FA04
:100E6000042000F089F8002808D00548806800B107
:100E70008047BDE81040042000F078B810BD0000A5
:100E80004C02002010B504F06FF908B102F02AFA04
:100E9000082000F071F8002808D00548C06800B1AB
:100EA0008047BDE81040082000F060B810BD000089
:100EB0004C02002010B504F057F908B102F012FA04
:100EC000102000F059F8002808D00548006900B14A
:100ED0008047BDE81040102000F048B810BD000069
:100EE0004C02002070B504F03FF908B102F0FAF9A5
:100EF000202000F041F81C4C28B1606900B1804707
:100F0000202000F033F8402000F036F828B1A06926
:100F100000B18047402000F029F8802000F02CF834
:100F200028B1E06900B18047802000F01FF84FF43D
:100F30008075284600F020F828B1206A00B180476B
:100F4000284600F013F84FF40075284600F014F816
:100F5000002807D0606A00B180472846BDE870408D
:100F600000F004B870BD00004C0200200149086088
:100F7000704700001404014001460020024A126834
:100F80000A4200D0012070471404014030B51B4ACA
:100F900083790168002B2AD013688B431360111DDD
:100FA0000B680468A3430B60017911440B68046863
:100FB00023430B60114C0834216803689943216076
:100FC000231D19680568A94319604179102905D0C6
:100FD00011440A68006802430A6030BD2168026853
:100FE00011432160196800680143196030BD007920
:100FF000104402688A43026030BD000000040140D2
:101000000023038043804160028170470089491CAE
:10101000B1FBF0F200FB121080B2704770B50446CD
:1010200020462188FFF7F2FF61680D5C2188204689
:10103000FFF7ECFF2080284670BD70B504460D46D2
:1010400061882046FFF7E2FF608061680D5470BD43
:101050002DE9F041002201274FF0030C07FA02F5B9
:101060000B682B40AB422BD1066853000CFA03F4FB
:10107000A64306600E79D0F800809E4046EA080636
:1010800006600E79012E01D0022E11D18668A6438A
:1010900086604E79D0F808809E4046EA0806866051
:1010A0008688AE43868086888D7995402E438680DB
:1010B000C568A543C560CC799C40C3681C43C46027
:1010C000521C102ACAD3BDE8F08110B54B07DB0EC5
:1010D0009A40C90800EB8100016A0F249C40A1439B
:1010E0000162016A1143016210BD02460020128AAA
:1010F0000A4200D001207047418370470183704746
:101100000021094A52F83130834208D84B1C52F86A
:101110003330834203D902EBC10000797047491C88
:10112000C9B21529EED3FEE7446700087CB5DDE9B6
:1011300006450626B6EB211F04D3CDE9004500F095
:10114000A3F87CBDCDE9004500F001F87CBDF8B501
:101150000446079E0D4617460020009003F02EFD22
:101160002570E81705EB107020F00F00291A0120F8
:10117000884080B26080072903DD0E25000A608068
:1011800002E00F25C0B260806946284603F028FDC2
:10119000012F15D0A0789DF80010084300909DF80D
:1011A0000010284603F048FD94F90000C11700EB39
:1011B000117121F00F01401A072807DD102506E004
:1011C000A1789DF8000088430090E8E71125694662
:1011D000284603F005FD56B1A0789DF8001008439D
:1011E00000909DF80010284603F026FDF8BDA17878
:1011F0009DF8000088430090F3E738B504460020CE
:10120000009094F90000C11700EB117121F00F015B
:10121000401A072801DD102000E01120694603F084
:10122000DFFC60889DF80010084201D1002038BD25
:10123000012038BD7047F8B504460E4600200090E6
:1012400094F90020D01702EB107020F00F00101A54
:10125000072801DD102500E011256946284603F026
:10126000BFFC56B1A0789DF80010084300909DF88F
:101270000010284603F0E0FCF8BDA1789DF80000BE
:1012800088430090F3E700002DE9FC410446DDE9C6
:10129000087815461E46481C32D0C1F30F10208135
:1012A000217001F00F03012101FA03F26280062888
:1012B00008D2144A02EB8022626001FA00F001F0C9
:1012C00081FB08E007D1104860604FF020004FF02C
:1012D000010101F077FB012D03D14146204600F0CA
:1012E0009FF88DF804508DF806608DF80770032084
:1012F0008DF805006088009069466068FFF7A8FED9
:10130000BDE8FC810000024000140240002807D024
:1013100090F90010491C04D041884068FFF7E5BEF1
:10132000FEE70020704700002DE9FE4F04460F46FF
:101330001546002B6FD02078384900F00F0041F897
:1013400020300121084601F067FB207800F00F01F2
:10135000207A03F0DFFC207800F00F01012000FA72
:1013600001F8CDF8008000268DF804604FF00809E0
:101370004FF00C0A012F04D0022F05D0032F06D006
:10138000FEE78DF8059005E08DF805A002E010213C
:101390008DF8051080468DF806006846FFF7F6FDCB
:1013A000207800F00F00052803D2801D8DF808007A
:1013B00008E00A2803D217208DF8080002E0282050
:1013C0008DF8080045B1012D0CD0022D0FD0032D52
:1013D00012D0042D16D0FEE70F208DF809008DF8ED
:1013E0000A6013E08DF809A08DF80A600EE08DF810
:1013F00009908DF80A6009E004208DF809008DF845
:101400000A6003E08DF809608DF80A608DF80B80A2
:1014100002A801F003FABDE8FE8F00004C02002094
:1014200000280AD0426842B190F900305B1C09D014
:1014300021B141881046FFF761BEFEE741881046A2
:10144000FFF75ABE704790F900100622B2EB211F39
:1014500001D3FFF75BBFFFF7D0BE30B490F9004077
:101460000625B5EB241F02D330BCFFF75DBF30BCAF
:10147000FFF7E0BE90F900200623B3EB221F01D353
:10148000FFF7CEBFFFF7D7BE2DE9FC5F0020904AE3
:101490001118CB7C03F00F03CB74401C0A28F7DB38
:1014A0008B48007DFFF725F8044689480D46C07C2F
:1014B000FFF71FF8DFF81C8200224346FEF710FFFB
:1014C00022462B46FEF765FE04460D468048807D89
:1014D000FFF70FF806467E480F46407DFFF709F8F4
:1014E00000224346FEF7FCFE32463B46FEF751FE25
:1014F00006460F467648C07EFEF7FBFF82467448DC
:101500008B46807EFEF7F5FF00224346FEF7E8FE9D
:10151000CDE900016E48407EFEF7EBFF00226E4BE6
:10152000FEF7DEFE80466A488946007EFEF7E1FF50
:1015300000226A4BFEF7D4FE42464B46FEF729FED8
:10154000DDE90023FEF725FE52465B46FEF721FE4D
:1015500080468946624A634B40464946FEF7C0FED4
:1015600032463B46FEF715FE00225F4BFEF72AFF90
:1015700022462B46FEF70DFE5C4AC2E90401544A9E
:10158000527F532A04D1594A81F00041C2E9040133
:1015900000204F4A1118CB7F03F00F03CB77401C7C
:1015A0000A28F7DB4A4890F82100FEF7A2FF04461C
:1015B00047480D4690F82000FEF79BFF0022454B60
:1015C000FEF78EFE064642480F46C07FFEF791FFAB
:1015D000DFF8048100224346FEF782FE32463B4696
:1015E000FEF7D7FD22462B46FEF7D3FD04460D46F7
:1015F000374890F82300FEF77CFF064634480F4634
:1016000090F82200FEF775FF0022324BFEF768FECD
:1016100032463B46FEF7BDFD06460F462C4890F885
:101620002600FEF766FF00224346FEF759FE80467D
:101630002748894690F82500FEF75BFF0022274BDC
:10164000FEF74EFE42464B46FEF7A3FD8046894616
:101650001F4890F82800FEF74CFF82461C488B4636
:1016600090F82700FEF745FF00221A4BFEF738FEE0
:1016700052465B46FEF78DFD42464B46FEF789FD1E
:10168000174A184BFEF72CFEDFF85CA000225346E9
:10169000FEF798FE8046894600225346304639467A
:1016A000FEF790FE22462B46FEF773FD42464B4660
:1016B000FEF76FFD0D4AC2E90601054B93F82A308B
:1016C000572B03D181F00041C2E90601BDE8FC9F20
:1016D000DC050020000024400000594000408F40FD
:1016E0002D431CEBE2361A3F00004E40C0000020A4
:1016F0002DE9F041DFF89480254D264F264C4FF020
:1017000040460022D4E904011346FEF773FF0DD8CA
:10171000D4E9040132463B46FEF7E2FD002243468F
:10172000FEF750FEFEF7FEFE60600BE0D4E9040118
:101730001722FEF7B6FE00224346FEF743FEFEF7F1
:10174000F1FE6060D4E9060100221346FEF752FF65
:101750000ED8D4E9060132463B46FEF7C1FD002211
:101760002B46FEF72FFEFEF7DDFEA060BDE8F08100
:10177000D4E906011722FEF794FE00222B46FEF75D
:1017800021FEFEF7CFFEA060F0E70000008056408B
:1017900000806640FFFF5F41C000002010B5FFF7EA
:1017A00073FEBDE81040FFF7A3BF00000249002010
:1017B000087000F003B80000C00000201CB51048FD
:1017C0000024047080220F490F48FFF719FC0E49CE
:1017D0000E482839486300210D48FFF74BFE0023CF
:1017E00000941A4608210B480194FFF79FFC02B0B1
:1017F0000022BDE81040084B02210648FFF72DBE2D
:101800000E0000208C0200203C0200201D18000861
:1018100040010020080200207518000838B5012892
:1018200021D16946104803F0F8FF00281BD19DF82C
:10183000000000240D4B242802D01978802900D301
:101840001C701A78511CC9B21970094B98540A2897
:1018500009D15C54184600F073F8034803F0D5FF33
:101860000020FFF7F5F838BD140200200E0000201C
:101870000C0300201FB50024039403A800F0A8FA6D
:101880009DF80C0000280FD00A23092200210748E8
:1018900003F0CAFF0094019400234FF41652012173
:1018A0000248029403F0A0FF1FBD000014020020B4
:1018B00070B50346164600240025621E002B02D098
:1018C0000EB1012901DC104670BD1878242808D11A
:1018D000012406E06840C5B2641C8C4201DB10465E
:1018E00070BD18572A28F5D1280900F0E5FF30709F
:1018F00005F00F0000F0E0FF7070601C70BD38B59F
:1019000004460D466A4629462046FFF7D1FF0028C7
:1019100001DA002038BDAD1EA84201DB002038BD31
:1019200021569DF90020914208D120449DF90110D3
:1019300090F90100884201D1012038BD002038BD56
:101940002DE9F0410546012400262878242802D0FC
:101950000020BDE8F0812846FFF7D1FF28B900201C
:10196000F7E7062E01D90020F3E730462044761C25
:10197000285CF6B22C28F4D10020F94F05E0295D4F
:101980003954401CC0B2641CE4B2B042F7D3052203
:10199000F449F348FEF7EEFB48B1F2490522891DF0
:1019A000EF48FEF7E7FB002870D00020D1E70020C9
:1019B00003E00B2801D90020CBE701462144401C5D
:1019C000695CC0B22C29F4D1002106E07B182A5DA5
:1019D0009A71491CC9B2641CE4B28142F6D300205A
:1019E00003E00A2801D90020B3E701462144401C46
:1019F000695CC0B22C29F4D1002106E07B182A5D75
:101A0000DA74491CC9B2641CE4B28142F6D30020E6
:101A100003E0022801D900209BE701462144401C35
:101A2000695CC0B22C29F4D1002106E07B182A5D44
:101A30005A77491CC9B2641CE4B28142F6D3002033
:101A400003E00B2801D9002083E701462144401C14
:101A5000695CC0B22C29F4D1002106E07B182A5D14
:101A6000DA77491CC9B2641CE4B28142F6D3002083
:101A700003E0022801D900206BE701462144401C05
:101A8000695CC0B22C29F4D1002108E0BCE07B18CD
:101A90002A5D83F82A20491CC9B2641CE4B2814241
:101AA000F5D3002003E0022801D9002051E70146C8
:101AB0002144401C695CC0B22C29F4D1002107E00C
:101AC0007B182A5D83F82C20491CC9B2641CE4B23F
:101AD0008142F5D3002003E0032801D9002038E734
:101AE00001462144401C695CC0B22C29F4D100217C
:101AF00007E07B182A5D83F82E20491CC9B2641CBC
:101B0000E4B28142F5D3002003E0062801D9002089
:101B10001FE701462144401C695CC0B22C29F4D166
:101B2000002107E07B182A5D83F83120491CC9B2E7
:101B3000641CE4B28142F5D3002003E0082801D9F7
:101B4000002006E701462144401C695CC0B22C29F4
:101B5000F4D1002107E07B182A5D83F83720491C67
:101B6000C9B2641CE4B28142F5D3002003E002282C
:101B700001D90020EDE601462144401C695CC0B259
:101B80002C29F4D1002107E07B182A5D83F83F203F
:101B9000491CC9B2641CE4B28142F5D3002003E0C1
:101BA000082801D90020D4E601462144401C695C84
:101BB000C0B22C29F4D1002107E07B182A5D83F8FC
:101BC0004120491CC9B2641CE4B28142F5D3002013
:101BD00003E0022801D90020BBE601462144401C55
:101BE000695CC0B22C29F4D1002107E07B182A5D82
:101BF00083F84920491CC9B2641CE4B28142F5D380
:101C0000FFF7CCFD0120A4E6002003E00B2801D95A
:101C100000209EE601462144401C695CC0B22C298C
:101C2000F4D1002106E07B182A5D9A71491CC9B2E3
:101C3000641CE4B28142F6D3002003E0022801D9FB
:101C4000002086E601462144401C695CC0B22C2974
:101C5000F4D1002106E07B182A5D5A74491CC9B2F0
:101C6000641CE4B28142F6D3002003E00A2801D9C3
:101C700000206EE601462144401C695CC0B22C295C
:101C8000F4D1002106E07B182A5DDA74491CC9B240
:101C9000641CE4B28142F6D3002003E0022801D99B
:101CA000002056E601462144401C695CC0B22C2944
:101CB000F4D1002106E07B182A5D5A77491CC9B28D
:101CC000641CE4B28142F6D3002003E00B2801D962
:101CD00000203EE601462144401C695CC0B22C292C
:101CE000F4D1002106E07B182A5DDA77491CC9B2DD
:101CF000641CE4B28142F6D3002003E0022801D93B
:101D0000002026E601462144401C695CC0B22C2913
:101D1000F4D1002107E07B182A5D83F82A20491CB2
:101D2000C9B2641CE4B28142F5D3002003E0082864
:101D300001D900200DE601462144401C695CC0B277
:101D40002C29F4D1002107E07B182A5D83F84B2071
:101D5000491CC9B2641CE4B28142F5D3002007E0FB
:101D6000DC050020F4670008082801D90020F0E510
:101D700001462144401C695CC0B22C29F4D10021E9
:101D800007E07B182A5D83F85320491CC9B2641C04
:101D9000E4B28142F5D3002003E0082801D90020F5
:101DA000D7E501462144401C695CC0B22C29F4D11E
:101DB000002107E07B182A5D83F85B20491CC9B22B
:101DC000641CE4B28142F5D3FFF7E8FC0120C0E5D2
:101DD00070B50446074A01251570D168491CD160C9
:101DE000002020700A2904D3D0600120FEF730FEC5
:101DF000257070BDC0000020002904D0018841F486
:101E0000806101807047018821F480610180704702
:101E1000034600209A8A1B8B1B041A4322F07F4240
:101E2000914300D101207047002904D0018841F07E
:101E3000010101807047018821F001010180704794
:101E400010B50C4988420AD101214C05204600F00A
:101E5000D5FD2046BDE81040002100F0CFBD012196
:101E60008C05204600F0CAFD2046BDE81040002148
:101E700000F0C4BD00540040002904D0018841F4A2
:101E8000807101807047018821F480710180704762
:101E9000002904D0018841F4007101807047018855
:101EA00021F40071018070470CB5024600200092B9
:101EB0000A0F019221F07F41019A002A03D0009A73
:101EC0001432009203E0090C009A18320092009A32
:101ED00012680A4200D001200CBD00007FB5044604
:101EE0000D46A08820F03F06684600F0B1FD02983C
:101EF0002749B0FBF1F189B20E43A680228822F077
:101F000001022280234B2A689A4209D85200B0FB72
:101F1000F2F080B2042800D20420491C218423E07E
:101F2000EB88A3F53F46FF3E0BD002EBC20303EB69
:101F30000212B0FBF2F080B240F48040020506D0FD
:101F400007E002EB4202B0FBF2F080B2F6E740F0AD
:101F5000010040F400404FF4967251434FF47A72FE
:101F6000B1FBF2F1491C2184A083208840F00100DC
:101F7000208020884FF6F5310840A9886A891143EE
:101F800001432180A8892989084320817FBD000061
:101F900040420F00A0860100008AC0B27047002AAC
:101FA00002D041F0010101E001F0FE010182704721
:101FB000018270477CB50546094B1C78002C0DD179
:101FC00001241C70284600F057F806490022CDE98C
:101FD000002101231146284600F006F87CBD0000D0
:101FE000E0000020801A06002DE9FF4704460D4658
:101FF00016461F46DDE90C981DB90020ADF8040017
:1020000008E0012D03D10220ADF8040002E00A200F
:10201000ADF8040026B94BF6FF70ADF8060003E0FA
:102020004FF48040ADF80600012F03D1B802ADF89F
:102030000A0002E00020ADF80A00B9F1000F04D157
:102040004FF48040ADF80C0003E04FF44040ADF891
:102050000C000848804501D9009001E0CDF80080CF
:1020600069462068FFF73AFF01212068FFF7DCFE90
:10207000BDE8FF87801A06007CB504460E4615466B
:10208000154820600121480500F0AAFC2068FFF7F0
:10209000D7FE002000900123022231460190201D2E
:1020A000FFF744F800200090012302222946019006
:1020B00004F11000FFF73AF8227902F00F01042230
:1020C000A068FFF702F8227C02F00F010422606989
:1020D000FEF7FBFF7CBD0000005400402DE9F047F7
:1020E0000446894690461F46089E72B64FF4004546
:1020F0000AE02800A5F1010506D1204600F00CFAFF
:1021000062B60020BDE8F0874FF400312068FFF789
:10211000CBFE0028EDD101212068FFF7ADFE4FF482
:10212000004509E02800A5F1010505D1204600F091
:10213000F3F962B60020E5E789492068FFF768FEF9
:102140000028EFD0002249462068FFF728FF4FF40F
:10215000004509E02800A5F1010505D1204600F061
:10216000DBF962B60020CDE77E492068FFF750FE1C
:102170000028EFD07C480078012818D14FEA1821B8
:102180002068FFF715FF4FF4004509E02800A5F18E
:10219000010505D1204600F0BFF962B60020B1E785
:1021A0007049891E2068FFF733FE0028EED008F042
:1021B000FF012068FFF7FCFE4FF4004509E028000E
:1021C000A5F1010505D1204600F0A6F962B6002070
:1021D00098E76449891E2068FFF71AFE0028EED0B0
:1021E0004FF4004509E02800A5F1010505D120467E
:1021F00000F092F962B6002084E75C492068FFF79E
:1022000053FE0028EFD001212068FFF735FE4FF480
:10221000004509E02800A5F1010505D1204600F0A0
:102220007BF962B600206DE74D492068FFF7F0FDAD
:102230000028EFD0012249462068FFF7B0FE022EA9
:1022400038DA4FF4004509E02800A5F1010505D171
:10225000204600F061F962B6002053E74349891E29
:102260002068FFF721FE0028EED000212068FFF74C
:10227000C3FD2068008B01212068FFF709FE4FF4A1
:10228000004509E02800A5F1010505D1204600F030
:1022900043F962B6002035E734493C312068FFF746
:1022A00003FE0028EED02068FFF776FE3870701E1F
:1022B00086B24EE04FF4004509E02800A5F1010583
:1022C00005D1204600F028F962B600201AE724491B
:1022D000491C2068FFF79CFD0028EED024E0012E69
:1022E00007D100212068FFF787FD01212068FFF753
:1022F000CFFD4FF4004509E02800A5F1010505D107
:10230000204600F009F962B60020FBE617493C318F
:102310002068FFF7C9FD0028EED02068FFF73CFEDB
:1023200038707F1C701E86B2002ED8D14FF4004545
:1023300009E02800A5F1010505D1204600F0ECF8E0
:1023400062B60020DEE62068008800F400700028F5
:10235000EFD101212068FFF74FFD62B60120D1E6E1
:1023600001000300820007000F000020040000109D
:102370002DE9F0470446894616461F46DDF82080C1
:1023800072B64FF400450AE02800A5F1010506D118
:10239000204600F0C1F862B60020BDE8F0874FF497
:1023A00000312068FFF780FD0028EDD10121206871
:1023B000FFF762FD4FF4004509E02800A5F1010593
:1023C00005D1204600F0A8F862B60020E5E74849AC
:1023D0002068FFF71DFD0028EFD000224946206845
:1023E000FFF7DDFD4FF4004509E02800A5F10105E8
:1023F00005D1204600F090F862B60020CDE73D49B7
:102400002068FFF705FD0028EFD03B480078012841
:1024100017D1310A2068FFF7CBFD4FF4004509E0E2
:102420002800A5F1010505D1204600F075F862B637
:102430000020B2E72F49891E2068FFF7E9FC002839
:10244000EED0F1B22068FFF7B3FD4FF4004509E08C
:102450002800A5F1010505D1204600F05DF862B61F
:1024600000209AE72349891E2068FFF7D1FC002845
:10247000EED036E039782068FFF79AFD4FF400453A
:1024800009E02800A5F1010505D1204600F044F837
:1024900062B6002081E71749891E2068FFF7B8FC63
:1024A0000028EED0B8F1010F16D101212068FFF706
:1024B000EFFC4FF4004509E02800A5F1010505D126
:1024C000204600F029F862B6002066E72068008800
:1024D00000F400700028EFD17F1CA8F101001FFA62
:1024E00080F8B8F1000FC5D162B6012055E70000B1
:1024F00001000300820007000F00002038B5049C93
:10250000044D2D78002D03D00094FFF7E7FD38BD72
:10251000002038BDE0000020034A0021117019227C
:102520001821FFF747BD0000E00000202DE9F84327
:102530000546089C0E46174698460E480078002827
:1025400016D043463A46314628460094FFF710FF1E
:1025500010B10120BDE8F88343463A46314628468B
:102560000094FFF705FF08B10120F3E70020F1E731
:102570000020EFE7E000002001884088814201D17F
:10258000012070470020704710B50446204661883E
:10259000FEF73CFD2188884201D1012010BD0020BA
:1025A00010BD000008B5002000900E2000F036F8A5
:1025B0000948417869B9012141706946072000F056
:1025C0000DF89DF80000C42801D0002008BD00F0DF
:1025D00019F8012008BD00007E000020012200F053
:1025E00001B8000008B50B4604490092024609787C
:1025F00003484906090EFFF781FF08BD7E00002051
:10260000EC01002010B51021112000F00DF8012878
:1026100001D0002010BD012010BD0000014908704C
:10262000704700007E00002013B5012201A900F0D0
:1026300001F81CBD08B50B46044900920246097812
:1026400003484906090EFFF771FF08BD7E00002010
:10265000EC01002008B5002000901C2000F036F8A6
:102660000948417869B90121417069460D2000F09F
:102670000DF89DF800001A2801D0002008BD00F0D8
:1026800019F8012008BD000080000020012200F0A0
:1026900001B8000008B50B460449009202460978CB
:1026A00003484906090EFFF729FF08BD80000020F6
:1026B000EC01002010B540212B2000F00DF801287E
:1026C00001D0002010BD012010BD0000014908709C
:1026D000704700008000002013B5012201A900F01E
:1026E00001F81CBD08B50B46044900920246097862
:1026F00003484906090EFFF719FF08BD80000020B6
:10270000EC01002038B500200090602000F058F85F
:102710001A4C607878BB69460C2000F031F89DF8BF
:102720000000C42801D0002038BD00F03DF8694603
:10273000262000F025F89DF800000028F7D1072199
:10274000132000F053F81121282000F04FF88021C9
:10275000292000F04BF800212A2000F047F8A92199
:10276000262000F043F8B0212D2000F03FF800F0C3
:102770002DF801206070012038BD00008400002089
:10278000012200F001B8000008B50B460449009290
:102790000246097803484906090EFFF7AFFE08BD57
:1027A00084000020EC01002010B50421262000F058
:1027B0001DF8012801D0002010BD012010BD00002F
:1027C00001490870704700008400002008B500200F
:1027D000009069462620FFF7D3FF9DF8000040F0E7
:1027E00001010091262000F001F808BD13B5012277
:1027F00001A900F001F81CBD08B50B460449009280
:102800000246097803484906090EFFF78FFE08BD06
:1028100084000020EC010020FEE7704730B50F2354
:10282000C27801250178002A1FD0154A126802F4E7
:10283000E062C2F5E062C2F30722C2F10404D340B1
:102840004278A24084781C401443220101F1E02127
:1028500081F80024007800F01F018D4040098000BD
:1028600000F1E020C0F8005130BD01F01F008540AC
:102870004809800000F1E020C0F8805130BD000020
:102880000CED00E00249084302490860704700006F
:102890000000FA050CED00E0BFF34F8F044801681B
:1028A000044A01F4E06111430160BFF34F8FFEE77A
:1028B0000CED00E00400FA050A2802D2303040B2E4
:1028C0007047102802D2373040B270473F2070471F
:1028D00070B51546124CA180014619221148FDF72A
:1028E00025FCE5801048FEF7AEFD80F001010E48A2
:1028F000FEF7C0FDB4F90600002802DA4042C0B27B
:10290000E0800748A1790830017101210170054874
:1029100003F094F8BDE8704004A003F08FB8000005
:1029200000000020F0000020C40100200A00000088
:10293000FFF7B2FFFFF7B0FF70B50E48FEF783FD5B
:1029400080F001010B48FEF795FD00240A4D0BA015
:10295000295D03F073F8641C042CF8DB297908A0C6
:1029600003F06CF80748C06A80470349042008391F
:10297000087070BDC40100200800002025642D00EF
:1029800025640A00C066000810B50348C06A804785
:1029900002490520087010BDC06600080000002034
:1029A000014908617047000000000E4201490862B9
:1029B0007047000000000E42014948627047000065
:1029C00000000E42054A002903D01168014311603E
:1029D0007047116881431160704700001C38024045
:1029E000054A002903D0116801431160704711683E
:1029F000814311607047000024380240054A0029D5
:102A000003D0116801431160704711688143116060
:102A10007047000018380240054A002903D01168A9
:102A200001431160704711688143116070470000D5
:102A300020380240054A002903D011680143116083
:102A400070471168814311607047000014380240DC
:102A500030B52C4B196801F00C011C1F4FF40045D8
:102A6000002925D0284A042929D0082929D00C2951
:102A700029D02168C1F34231491C8D400560196895
:102A800001F0F0010909214A545C0168E14041600C
:102A90001C6804F4E064240A145D21FA04F48460E0
:102AA0001B6803F46053DB0AD25CD140C16030BDC7
:102AB0002168C1F34231491C8D400560DFE70260A7
:102AC000DDE70260DBE7196801F470111A6802F4AF
:102AD00040020E4C093C04EB91410978012404EBBF
:102AE00092521C6804F480342CB1074C6143B1FB52
:102AF000F2F10160C3E7044C6143B1FBF2F1016004
:102B0000BDE70000083802400024F4006E000020F9
:102B1000024600205109012909D00749096802F03D
:102B20001F02012393400B4200D00120704702494D
:102B300034390968F3E7000034380240024800687D
:102B400000F00C00704700000838024002490022E3
:102B50000A7008707047000002380240014908609E
:102B60007047000000004742024900220A700870C6
:102B70007047000035380240014908667047000080
:102B8000000047420149086070470000D8064742EC
:102B9000C0F30141032907D1094B196821F0C04155
:102BA00000F0C0420A431A60054934310A6822F431
:102BB00040320A600A6800F4403002430A607047FD
:102BC000003802400149086070470000DC064742B7
:102BD000034A116821F003010143116070470000AE
:102BE0000838024038B500220092144CCA222260F4
:102BF00053222260114A1C3A002904D01168014373
:102C00001160012015E01168814311600B4A183AE8
:102C10005514116801EA1021009B5B1C0093009B76
:102C2000AB4201D00029F4D0116811EA102F03D073
:102C30000120FF21216038BD0020FAE72428004050
:102C400010B54FF48054204600F096F800280BD0C1
:102C500000F048FB02F0AAFB204600F029F86001D2
:102C6000BDE81040FEF782B910BD010901EB8101FA
:102C7000490000F00F000844C0B27047002103E093
:102C8000491CC9B20A38C0B20A28F9D2090740EA79
:102C900011607047C0F3100040F08000C14303484A
:102CA000026802F080021143016070470C28004066
:102CB000000980B240F08000C1430348026802F07E
:102CC00080021143016070470C280040012101700F
:102CD000817041700021C1707047000008B500206C
:102CE00000900E490868400615D44FF0FF30086088
:102CF0004B14086800F04000009A521C0092009AA1
:102D00009A4201D00028F4D00868400601D501207D
:102D100008BD002008BD012008BD00000C280040AF
:102D20000248016821F08001016070470C280040D2
:102D300010B502460C460E4801680E480140080CCA
:102D4000E070C1F30423637001F03F03A370C1F38B
:102D500042312170002A0AD1FFF787FFE0706078C6
:102D6000FFF783FF6070A078FFF77FFFA07010BDB2
:102D7000042800403FFFFF0010B500210D4A1268F3
:102D800002F004030B4A383A1268840C20FA04F467
:102D9000024003EAD4331A43064B343B1B6803EA70
:102DA0001010002A03D00004000C00D001210846B6
:102DB00010BD00004028004010B502460C460F48E8
:102DC00001680F480140C1F305402070C1F306239C
:102DD000637001F07F03A37001F48001090CE170BE
:102DE000002A0AD1FFF741FF20706078FFF73DFF0E
:102DF0006070A078FFF739FFA07010BD0028004078
:102E00007F7F7F0030B50F4DCA222A6053222A608F
:102E10000C4C0C4B1C3C20F004021C3300F0040052
:102E2000002906D021681143216019680143196007
:102E300005E0216891432160196881431960FF20F2
:102E4000286030BD2428004070B504460025114E8E
:102E5000CA20306053203060FFF740FFA8B10D4812
:102E60001C38016821F040010160016822681143AB
:102E700001600848A168143801600168A28841EA2D
:102E800002410160FFF74CFF0125FF20306028461A
:102E900070BD00002428004070B505460E4614465B
:102EA00000202B49002D06D00968490608D5207856
:102EB000FFF7DBFE05E00968490607D4E07005E08E
:102EC000E070A068A8B1207BFFF7CFFEADB1A0787D
:102ED0002178E27840EA01406178090241EA024142
:102EE0000843217B40EA0160A16808436168084308
:102EF0001CE0207BFFF7B9FEE8E72078FFF7BEFE75
:102F000005046078FFF7BAFE45EA0025A078FFF7D0
:102F1000B5FE0543E07845EA0045207BFFF7AEFEAD
:102F2000A16845EA00600843616808430849CA226D
:102F30001C310A6053220A60B6F5807F04D00A1F54
:102F40001060FF20086070BD014A14321060F8E77D
:102F50000828004070B505460C460026002D06D115
:102F60006078C10603D520F010000A3060702DB1E2
:102F70006078FFF77AFEA078FFF777FE55B1A0786A
:102F8000E17840EA014560782178000240EA41306A
:102F900005430FE0E078FFF771FE05046078FFF766
:102FA0006DFE45EA0025A078FFF768FE054320780E
:102FB00045EA40350E4CCA20206053202060FFF7C0
:102FC0008DFE88B10B480540094820380560FFF7A1
:102FD000A7FE07481C380068800604D400F066F895
:102FE00010B1012600E00126FF202060304670BDB0
:102FF000242800403FFFFF002DE9F04105460C4624
:1030000000260020244F002D06D03968490608D537
:103010002078FFF72AFE05E03968490602D4E070FF
:1030200000E0E07055B1A078217840EA0145607871
:10303000E178000240EA014005430FE02078FFF705
:103040001DFE05046078FFF719FE45EA0025A0780B
:10305000FFF714FE0543E07845EA00450E4CCA2010
:103060001C34206053202060FFF738FE78B10B48F5
:103070000540094808380560FFF752FE38688006A9
:1030800004D400F013F810B1012600E00126FF205F
:1030900020603046BDE8F081082800407F7F7F0037
:1030A0000021C170017041708170704718B5002017
:1030B0000090104BCA201860532018600D49183931
:1030C000086820F0A0000860CC13086800F0200019
:1030D000009A521C0092009AA24201D00028F4D01B
:1030E0000868800601D5012000E00020FF2119605A
:1030F00018BD00002428004010B54FF4807420460D
:10310000FFF7C8FD00212001FFF77CFE2046BDE847
:1031100010400021FFF766BD2DE9F0414FF47A71B0
:1031200000FB01F4002500F0BBF806460F4600E066
:1031300000BF00F0B5F8801B61EB0701001BA9413F
:10314000F6D3BDE8F08100002DE9FC4100242546BE
:10315000002601A90020FFF72FFE69460020FFF797
:10316000E7FDFFF7A3FF3748C178632905D19DF834
:10317000031011B90179491C01719DF80310C17048
:10318000007905E0304AA41845F10005761CF6B236
:103190008642F7D3002008E0A8B1820713D02B4A5B
:1031A000A41845F10005401CC0B28142F4D80023A8
:1031B00071B188070CD000209DF801701946DFF826
:1031C00090C07F1E21E0234AA41845F10005EAE7DC
:1031D0000020DFF87CC09DF801700CF10C0C194642
:1031E0007F1E07E01CF800201B4E724314194D414E
:1031F000401CC0B28742F5DC09E01CF80020164EE6
:10320000724314194D41401CC0B28742F5DC9DF851
:1032100005009DF80610C0EB001001EB80029DF840
:1032200004004FF4616148439DF8021040F2A32668
:10323000714300EBC110104404195D41204629463A
:10324000BDE8FC8110000020E90B18BC8033E101CF
:10325000A86600080085E2018051010040F26F106D
:103260007047000010B5FFF76FFF0A4AD2E902323B
:10327000C01A61EB0201801C41F10001FDF746F923
:10328000054A064BFDF72CF803F042F8BDE8104064
:10329000FDF767B91000002014AE47E17A845E4064
:1032A00010B5FFF751FF801C41F10001FDF72EF929
:1032B000034A044BFDF714F8BDE81040FDF76AB966
:1032C00014AE47E17A845E4010B5054C20780028A2
:1032D00005D100F067F800F033F80120207010BD30
:1032E0001000002010B501F03FFF002825D0134842
:1032F00041788078814320D072B60120FFF726FC08
:103300003120FFF705FC0028FAD00120FFF734FC3C
:103310003920FFF7FDFB0028FAD00320FFF758FC07
:10332000FFF70CFC0C28FBD10020FFF745FB012028
:10333000FFF736FBFDF798FB62B610BD10000020CA
:1033400030B587B04FF400342046FDF70FFE0594EA
:1033500000248DF8184008208DF8190001258DF8FB
:103360001A5005A8FDF712FE29208DF800008DF8EF
:1033700001408DF802408DF803506846FFF74EFA81
:10338000E8070290C40D01AA21460020FFF784FD42
:1033900000212001FFF736FD00212046FFF722FC27
:1033A00007B030BD00B585B001210807FFF718FB55
:1033B0000120FFF7FBFA0120FFF704FC0020FFF7D4
:1033C00001FC0120FFF7D0FB4920FFF7A1FB0028FB
:1033D000FAD04FF48030FFF7DBFB0120FFF7D2FB80
:1033E00001A8FFF75DFE6846FFF770FC6946002004
:1033F000FFF7B0FD01A90020FFF7FEFDFFF756FE25
:103400000120039004900020029002A8FFF71CFD09
:10341000FFF74CFE05B000BD10B504462046FDF791
:1034200068F80E4A0E4BFDF7CDF801D24FF4B77491
:103430004DF2D8610B488C4202D20021417001E06C
:103440000121417041788078814301D0A4F648542D
:103450002046BDE8104000F007B800008FC2F528F4
:103460005CE37640100000202DE9F04786B004466A
:10347000FFF742FEFFF768FE5C4AC2E9020101A9BC
:103480000020FFF799FC69460020FFF751FC204619
:10349000FDF72FF8564A574BFCF794FFFDF761F8FC
:1034A0005549564C8842A4F10C0521D99DF8068057
:1034B0009DF805609DF804709DF8020019309DF894
:1034C000031059B1890709D09DF80110495D814267
:1034D00060D2B0FBF1F201FB12005BE09DF801103D
:1034E000095D814256D2B0FBF1F201FB120051E0BE
:1034F0003C21B0FBF1F201FB12029DF806301A44A8
:10350000B0FBF1F3B3FBF1F601FB16339DF8056058
:1035100033444FF46166B0FBF6F64FF01809B6FB82
:10352000F9F709FB17669DF8047006EB070C344E9B
:10353000B0FBF6F09DF802603044B2FBF1F601FBFF
:103540001628B2FBF1F61E44B6FBF1F701FB176635
:10355000B2FBF1F71F44B7FBF1F76744B7FBF9FA89
:1035600009FB1A77B2FBF1F21A44B2FBF1F16144A4
:10357000B1FBF9F1084480B29DF8031061B38907EB
:103580002AD09DF80110495D814203D2B0FBF1F2CF
:1035900001FB12008DF80A808DF809608DF8087023
:1035A0008DF814009DF807008DF80B0000200490A2
:1035B00003904FF4807402AA2146FFF76DFCFFF7D9
:1035C00075FD01210803FFF71DFC01212046FFF7CF
:1035D00009FB06B0BDE8F0879DF80110095D814246
:1035E000D8D2B0FBF1F201FB1200D3E710000020AB
:1035F00014AE47E17A845E4080F52000B36600088F
:1036000080510100002904D0018841F0400101806F
:103610007047018821F04001018070470246002078
:1036200012890A4200D00120704780897047818149
:10363000704730B5028802F441530A884C88CD881F
:1036400022438C882C4322430C8922434C892243F9
:103650008C892243CC8922431A430280828B22F434
:1036600000628283098A018230BD0021018041808D
:103670008180C180018141818181C18107210182D5
:10368000704700001CB50024009423460322042147
:1036900006480194FDF74AFD0448009400230322E4
:1036A0002D210C380194FDF741FD1CBDAC03002019
:1036B0001CB500200124CDE9004003462246042128
:1036C0000648FDF733FD05480094002301222D2113
:1036D0000C380194FDF72AFD1CBD0000AC0300204E
:1036E0000120704780207047014890F88C00704797
:1036F000B80400202DE9F34F81B002460020DFF826
:10370000E081002A0CD0012A7ED100242546D8F879
:10371000C800002857D0012858D002285BD158E0B3
:10372000C246D8F8A400FCF7E4FE06460F4602980D
:10373000FCF7DFFE80468946302000F060FC30F068
:10374000F90002D00024674D01E00024254627201F
:1037500000F055FC20F0F800BAF8A810401C08440E
:10376000FCF7C7FE9AF8AA20012A25D000225D4B5B
:10377000FCF70FFD22462B46FCF70BFD42464B465D
:10378000FCF707FD9AF8AC20012A18D00022134656
:10379000FCF7FFFC0322FCF784FE32463B46FCF7B5
:1037A00011FE0022504BFCF79BFD02F033FF03B0EB
:1037B000BDE8F04FFCF7D5BE00221346D8E7002243
:1037C0004FF08043E4E70024484D04E00024484DD6
:1037D00001E0484D0024D8F8CC000121009001FA06
:1037E00000F0FCF775FE02460B4620462946FCF722
:1037F000E9FD02460B4600203A49FCF7E3FD04468A
:103800000D46B8F8D20000E068E0FCF772FE002236
:10381000394BFCF7BEFC22462B46FCF761FD824685
:103820008B4698F8D100001DFCF763FE064698F819
:10383000D0000F4608B1022000E000200099C0EB44
:103840008100FCF756FE804602988946C100009828
:10385000404201EB8001224890F8D60001EB0011B4
:103860001F4890F8D40008B1142000E00020081A86
:103870001C30FCF73EFE42464B46FCF7A3FD02F02F
:1038800047FD32463B46FCF72BFD06460F4600221D
:10389000134630463946FCF7ADFE02D23046394673
:1038A00001E0002001460022144BFCF772FC224686
:1038B0002B46FCF715FD52465B46FCF76AFC0022DE
:1038C000094BFCF70DFD0E4A0E4BFCF762FC02F0B3
:1038D0008DFD03B0BDE8F04FFCF743BEBDE8FE8FA1
:1038E000B80400200000F03F80842E418084FE4018
:1038F00080840E4180841E41000011400000204061
:103900002B8716D9CEF7EF3F70B519494860194992
:10391000194801F001FD18481649143001F0FCFC6B
:1039200015481449283001F0F7FC00F0ADFB0020E9
:1039300000F0F4FC0E48083000F066F800240F4E4A
:1039400004EB4405705D00F0ADFCA8198178407867
:1039500001F004F9641CE4B2102CF1D3002000F053
:10396000A1FC05490020E83981F88C0070BD0000F9
:1039700098000020313F0008A005002014670008CF
:103980007CB5012400940023224610211D48019497
:10399000FDF7CCFB00251B482B462A461121703829
:1039A000CDE90045FDF7C2FB164800231A461A214F
:1039B0006438CDE90045FDF7B9FB124800231A46EB
:1039C0001B215838CDE90045FDF7B0FB0D48002319
:1039D0001A4617214C38CDE90045FDF7A7FB0948E9
:1039E00000231A4615214038CDE90045FDF79EFB1E
:1039F000044800231A4614213438CDE90045FDF768
:103A000095FB7CBD3405002010B50446032201213E
:103A100014482368FDF721FD1248032201210C30D0
:103A20006368FDF71AFD0F48032201211830A368CF
:103A3000FDF713FD0B48032201212430E368FDF755
:103A40000CFD08480322012130302369FDF705FDF4
:103A50000448636903220121BDE810403C30FDF7B2
:103A6000FCBC0000C404002070B506460C46154698
:103A7000304600F017FC204600F0D4FB052000F093
:103A80004DFC0120FDF751F9304600F0EAFA0446FA
:103A900000F060FEAC4201DD002070BD012070BD71
:103AA000F8B5002400948D4F8D4E97F88C000128B6
:103AB0000AD002284FD107F1E80001F0FDFC97F889
:103AC0008D0001287ED1F8E097F88D00B0B1012873
:103AD00041D14021122001F041F8122000F08FFA6C
:103AE00000909DF8000080066DD52021122001F085
:103AF00035F897F8DA00002867D08CE097F8AC002A
:103B000001282FD13F2000F07AFA00909DF80000A4
:103B1000800727D40B213E2001F020F810213F2000
:103B200001F01CF897F8AE00B0B10D2000F067FA74
:103B300040F040010D2001F011F86848FC3001F020
:103B4000BBFC706810B1006900B1804707F8B44F42
:103B50007C70BC817C81F8BD87F88C40614801F0A5
:103B600079FCEAE7B7F8BE105F4D11B9B7F8C000AD
:103B700050B3BE377888091AC9B2284400F06CFAED
:103B800038887880BE3F97F8AE00A8B30D2000F0CB
:103B900036FA40F040010D2000F0E0FF51481438A3
:103BA00001F08AFC706840B1856835B197F9B6209C
:103BB000B7F8BE1000234C48A84707F8B44F7C70F4
:103BC000BC8103E07DE034E002E022E07C81F8BDCE
:103BD00097F8AA0088B1322000F011FAA7F8BE00C9
:103BE00017F8BE1F7888091AC9B2284400F034FAC1
:103BF00038887880BE3FC6E705E03A480121523850
:103C000000F02AFAECE787F88C40364801F022FCF5
:103C1000C4E787F88C403348143801F04DFC7068D5
:103C20000028D4D000690028D1D001B0BDE8F04010
:103C30000047192000F0E3F940B287F8E0000106E0
:103C400005D5C043401CC0F38500454201E0C0F3E8
:103C500085051A2000F0D3F9002D06DA00EB2010BC
:103C600028448B38A7F8E20004E000EB20108B38E2
:103C7000A7F8E200132000F0C2F987F8E40001463B
:103C8000194800F0E9F997F8DA0008B987F88C408C
:103C90001448143801F010FC7068002897D084682C
:103CA000002C94D017F9E03FA446B7F902203979E7
:103CB00001B00D48BDE8F04060470821122000F037
:103CC0004DFF87F88C407068002880D0006800287D
:103CD000A7D001B0BDE8F04000470000B8040020C4
:103CE00098000020C8050020B803002070B5334CB0
:103CF00004F18E0294F88C3012F8010C118E528E61
:103D0000A4F58075012B15D0022B12D1002810D1FB
:103D100023468A1A94F8C310B3F8C03028461844D2
:103D20008A4244DD00F044FF34F8C00FE1780844D3
:103D3000208070BD90B10128FBD12048FC3001F0FB
:103D4000BBFB002084F88C001D4840680028F0D0A0
:103D5000C0680028EDD0BDE87040004741B93AB9CD
:103D600094F8AA00A8B1322000F049F9A4F8BE00E6
:103D700034F8BE1F60880A1A2179BE3C8A420EDDE3
:103D8000284400F069F934F8C00FA1780844208075
:103D900070BD0A480121BE3000F05EF9E8E7D1B2FB
:103DA000284400F059F934F8BE0F608070BDD1B2DC
:103DB00000F0FEFE34F8BE0F608070BDB804002035
:103DC0009800002070B5364C364D214694F88C2072
:103DD00091F88D0091F8D710012A1BD0022A5ED1EC
:103DE00000285CD001285AD1012958D10221122083
:103DF00000F0B4FE6868002851D0406900284ED019
:103E00001C2000F0FCF8696800F03F004969BDE83B
:103E100070400847B8B1012841D101293FD10221A2
:103E2000122000F09BFE6868002838D04069002806
:103E300035D01C2000F0E3F8696800F03F004969C4
:103E4000BDE87040084794F8B400012827D194F8E1
:103E5000B500002823D1144801F02EFB012004F8FE
:103E6000B50F112000F0CBF84008404260701C20D4
:103E700000F0C5F805461B2000F0C1F845EA002017
:103E8000FCF737FB0022094BFCF72AFAFCF74AFB48
:103E9000C4F803000C2000F0B2F84009E07170BDD6
:103EA000B804002098000020C805002080844E40FF
:103EB00010B5154890F88D00002823D0012821D195
:103EC000122000F09CF8114CC0070DD005211220E3
:103ED00000F044FE6068002814D08169002911D0E8
:103EE000BDE81040012008470421122000F036FEF2
:103EF0006068002806D08169002903D0BDE8104021
:103F00000020084710BD0000B804002098000020E1
:103F1000064991F88D00002806D191F8B4000028D8
:103F200002D1012081F8B40070470000B8040020DD
:103F300070B5204C0025204E94F88C0001280CD040
:103F4000022835D184F88C507068002830D0406841
:103F500000282DD0BDE87040004794F88D00A8B926
:103F6000AE34A571E571658225820B213E2000F0FB
:103F7000F5FD10213F2000F0F1FD14F8AE090128F5
:103F80000DD084F88C500D4801F096FA7068002826
:103F90000ED0C06800280BD0BDE8704000470D204F
:103FA00000F02DF840F040010D2000F0D7FDEDE7C6
:103FB00070BD0000B804002098000020C805002053
:103FC00070B50025012000F06DF9FF21112000F0EF
:103FD000C5FD052000F0A2F900240120FCF7A5FE94
:103FE0002C2000F00CF800F00100A0400543641CF8
:103FF000E4B2202CF1D300F0ADFB284670BD08B52B
:104000000122694600F004F89DF8000008BD000098
:104010002DE9F04104460D4616460E48002107469C
:10402000FDF728FA0B4804F07F012838804600F09D
:1040300061FF002406E00021404600F05BFF2855A8
:10404000641CE4B2B442F6D33846BDE8F041012125
:10405000FDF710BA340500200A4601460020FFF79C
:10406000D7BF10B5002804D0012808D04FF0FF308A
:1040700010BD1120FFF7C3FF4008404210BD1B20B8
:10408000FFF7BDFF8B3810BD7CB50125002423460A
:104090002A4602210A48CDE90045FDF747F80120EC
:1040A000FCF743FE00231A4602210548CDE90045EE
:1040B000FDF73CF8BDE87C400620FCF736BE00006A
:1040C000B804002073B5054600203B4C94F88D10D1
:1040D000002902D001296BD12AE00020AA34E08215
:1040E0009DF80410A18214F8AA0950B1322000F002
:1040F00035FD9DF80420501E3F2807D884F8C320C2
:104100000BE0012101A800F053FDF2E729462B48FE
:1041100002F076FA202084F8C300B0342846E17C0F
:1041200000F046FD208AE17C0844208220683FE0C0
:1041300094F8D900012822D03320FFF760FF00F067
:10414000BE01491C332000F009FD1D213B2000F079
:1041500005FD9DF8041084F8E410222000F0FEFC18
:1041600000210E2000F0FAFC00210D2000F0F6FCEA
:104170000120FFF744FF30F0F8000DD011E03320AC
:10418000FFF73DFF00F0BE01332000F0E7FC1921EE
:104190003B2000F0E3FCDCE700F0F0FA0120FCF744
:1041A000C4FD9DF80410284600F002FDD4F8DC00A0
:1041B00000F0F8FA7CBD0000B8040020B80300202D
:1041C00010B50F4991F88820824218D081F88800F4
:1041D00050B100210B48FDF74DF90A480121BDE817
:1041E00010400C30FDF746B901210648FDF742F9B1
:1041F00004480021BDE810400C30FDF73BB910BD6C
:10420000B8040020A003002005490A78824205D0A6
:10421000087008B1FFF736BAFFF74ABA70470000D6
:104220002000002010B50E49C1F89000FCF761F99C
:1042300000220C4BFCF7C6F8FCF793F90446C4F3D4
:104240000741062000F08AFCC4F30721072000F094
:1042500085FCE1B2BDE81040082000F07FBC000002
:10426000B804002080844E4070B504460D462046B8
:1042700000F018F83CB1012C10D12946BDE870407F
:10428000232000F06BBC064890F8AA00002805D156
:104290002946BDE87040322000F060BC70BD0000CF
:1042A000B804002010B51C494A6D002A1CD091F8B2
:1042B0008D2082422ED081F88D00012815D000205B
:1042C00000F02CF80120FFF79AFE00F07F0101209A
:1042D00000F044FC0021402000F040FC3021BDE80B
:1042E0001040412000F03ABCFEE7002000F016F834
:1042F0000120FFF784FE40F08001012000F02EFC39
:104300000021402000F02AFC0021BDE8104041209F
:1043100000F024BC10BD0000B804002010B5044615
:10432000104801788C421CD0047094B10020FFF733
:104330006BFF032C11D00020FFF742FF0120FFF795
:104340005EFE00F0F8012143BDE81040012000F0BE
:1043500005BC0120FFF758FFF0E70120FFF730FF11
:10436000ECE710BD980000202DE9F041054600243F
:10437000DFF89C8198F88D10002902D0012950D1D6
:1043800024E098F8AE404020FFF739FE00F003002B
:1043900040F00C01402000F0E1FB4120FFF72FFE30
:1043A00040F0C101412000F0D9FB3520FFF727FE86
:1043B00000F03F0088F8C200002188F8B41088F8A7
:1043C000B510A8F8C010A8F8BE102AE098F8D900D7
:1043D000012842D03320FFF712FE00F0BE01491C35
:1043E000332000F0BBFB1D213B2000F0B7FB98F809
:1043F000DA4098F8D70001283CD01F21112000F0A6
:10440000ADFB4020FFF7FBFD00F03F01402000F036
:10441000A5FB00210F2000F0A1FB00210D2000F0E2
:104420009DFB4FF480713B48FBF799FE012088F813
:104430008C0045B136482946FC3000F0F5FF344881
:10444000FC3001F007F898F88D0000B3002C58D02C
:10445000BDE8F0410520FFF761BF3320FFF7CFFD36
:1044600040F04101332000F079FB19213B2000F09E
:1044700075FBBCE71D21112000F070FB4020FFF709
:10448000BEFD00F03301402000F068FBC1E70520CD
:10449000FFF744FF002C39D1D8F8A400FCF729F825
:1044A00004460D462720FFF7AAFD20F0F800FCF790
:1044B00020F80022184BFBF76CFE06460F46B8F8B2
:1044C000A800FCF716F832463B46FBF762FE0022D6
:1044D000124BFBF75EFE0322FBF7E3FF22462B465F
:1044E000FBF770FF00220E4BFBF7FAFEFCF739F8E2
:1044F00001460C4800F098FFBDE8F041094800F083
:10450000A9BFBDE8F0410620FFF708BFBDE8F08174
:10451000B8040020B80300200000F03F0000244051
:1045200080842E41C80500202DE9F84F8246DDE940
:104530000E870B9E0D9C0D4691469B465046FFF7FD
:10454000B1FE310A81480091BAF1000F23D0BAF1CF
:10455000010F6ED18246C0F8C850CAF8CC908AF8D4
:10456000D1B0AAF8D2608AF8D4408AF8D5808AF807
:10457000D67010988AF8D70011988AF8D800129847
:104580008AF8D90013988AF8DA00B9F10C0F5AD9D1
:104590004FF00C095CE040F89C5FC0F808900A9965
:1045A0004160847380F80F800774129941741399E5
:1045B000817486814846FBF79CFF02460B4600202B
:1045C0006349FBF7FFFEFBF7CCFF1FFA80F94FEAC8
:1045D0001921022000F0C2FA09F0FF01032000F0C7
:1045E000BDFA2846FCF78CFD0146122000F0B6FA11
:1045F0000A98FCF785FD0146132000F0AFFA25204C
:10460000009900F0ABFAF1B2262000F0A7FA24B12D
:104610004146322000F0A2FA03E0FF21322000F0F0
:104620009DFA3020FFF7EBFC00F06F0114B1002081
:1046300001E088E08020014341EA0711BDE8F84F1E
:10464000302000F08BBAB9F1060F01D24FF0060905
:104650002DB9B9F10B0F44D0B9F10C0F41D0012D98
:1046600002D1B9F10C0F3CD000208AF8D0001D20F7
:10467000FFF7C5FC002040EA851040EACB0040EA85
:1046800084009AF8D01040EA47000843C1B21D20C8
:1046900000F064FA1E20FFF7B2FC0C9900F00C0049
:1046A000032240EA091002EA11210843C1B21E2088
:1046B00000F054FA0C98C1B21F2000F04FFA2020ED
:1046C000009900F04BFAF1B2212000F047FA1CB13A
:1046D0004146222000F042FA9AF8D700012804D07F
:1046E00010E001208AF8D000C1E74B20FFF787FCDB
:1046F00040F080014B2000F031FA9AF8D8102420C5
:1047000000F02CFAB9F1060F0ED03120FFF777FC3C
:1047100000F0F801C91C312000F020FABDE8F84F84
:104720000A21372000F01ABA3120FFF768FC00F0A8
:10473000F801491D312000F011FABDE8F84F0C21B5
:10474000372000F00BBABDE8F88F0000B804002055
:1047500080847E4110B5084800F0AEFE064814384B
:1047600000F0AAFE0020FFF7D9FD03490020FC3924
:1047700081F88C0010BD0000B405002010B5084879
:1047800000F09AFE0648143800F096FE0120FFF76C
:10479000C5FD03490020FC3981F88C0010BD0000E4
:1047A000B405002010B50146284800F03DFE274C16
:1047B000E83C94F88D0010B101282CD119E040207C
:1047C000FFF71DFC00F0030040F01001402000F056
:1047D000C5F94120FFF713FC00F03E01412000F035
:1047E000BDF93520FFF70BFC00F03F0084F8C20054
:1047F00011E094F8D700012818D0F721112000F01B
:10480000ADF94020FFF7FBFB00F03F0040F0400116
:10481000402000F0A3F9022084F88C000B4800F03F
:1048200019FEBDE810400320FFF778BDF5211120E7
:1048300000F094F94020FFF7E2FB00F0330040F075
:104840004001402000F08AF9E5E70000A0050020C3
:104850002DE9FF4F81B010ACDDF8388070CC89466F
:104860009A460198FFF71EFD0920FFF7C8FB00904C
:104870005A20FFF7C4FB0746DFF894B2DBF890003C
:10488000FEF730FF009901F07F01084301062FD5A4
:10489000B9F1110F02DD47F0070702E007F0F80752
:1048A0003F1DF943490711D0B9F1020F01DA4FF06A
:1048B0000209B9F1110F01DD4FF0110900F0F0010B
:1048C000A9F1020000F00F00014322E0B9F1050F49
:1048D00001DA4FF00509B9F1140F01DD4FF01409A9
:1048E00000F0F001A9F1050000F00F00014310E015
:1048F0004FF0FF31894500DA8946B9F10E0F01DD2D
:104900004FF00E0900F0F00109F1010000F00F0076
:104910000143092000F022F939465A2000F01EF91F
:104920000198270A10B3012871D18BF8C490CBF8F5
:10493000C8A0CBF8CC800F988BF8D100ABF8D24050
:104940008BF8D45013988BF8D70014998BF8D810A3
:104950008BF8D66015998BF8D9101699CBF8DC1026
:10496000B8F10C0F5ED94FF00C0860E08BF8949012
:104970000398CBF89800CBF89CA0CBF8A480ABF8B8
:10498000A8408BF8AA508BF8AC6015988BF8AD0056
:104990001698CBF8B0000398FBF7ABFD00225D4BF7
:1049A000FBF710FDFBF7DDFD1FFA80F94FEA192137
:1049B000042000F0D3F809F0FF01052000F0CEF844
:1049C0004046FBF796FD02460B4600205249FBF796
:1049D000F9FCFBF7C6FD1FFA80F84FEA1821022008
:1049E00000F0BCF808F0FF01032000F0B7F83946EA
:1049F000252000F0B3F8E1B2262000F0AFF8302017
:104A0000FFF7FDFA00F06F0115B1002001E07CE036
:104A10008020014305B041EA0611BDE8F04F302087
:104A200000F09CB8B8F1060F01D24FF006084FF025
:104A30000009BAF1000F05D1B8F10B0F0DD0B8F194
:104A40000C0F0AD0BAF1010F02D1B8F10C0F04D04B
:104A50008BF8D090012804D010E001218BF8D01001
:104A6000F8E74B20FFF7CBFA40F080014B2000F035
:104A700075F89BF8D810242000F070F81D20FFF77F
:104A8000BEFA0F9849EA8A1141EAC00040EA85005F
:104A90009BF8D01040EA46000843C1B21D2000F048
:104AA0005DF81E20FFF7ABFA68F31F10C1B21E209D
:104AB00000F054F83946202000F050F8E1B22120EF
:104AC00000F04CF8B8F1060F0FD03120FFF797FA3D
:104AD00000F0F801C91C312000F040F805B00A21AF
:104AE000BDE8F04F372000F039B83120FFF787FAE2
:104AF00000F0F801491D312000F030F805B00C211C
:104B0000BDE8F04F372000F029B805B0BDE8F08FC0
:104B1000B804002080844E4080847E4110B50E4C45
:104B200094F88D00002815D0012813D1FA21112006
:104B300000F014F84020FFF762FA00F03F01402037
:104B400000F00CF8032084F88C00BDE8104007202A
:104B5000FFF7E4BB10BD0000B804002013B501222C
:104B600001A900F001F81CBD2DE9F04104460D46F5
:104B700016460E4800210746FCF77CFC0B4844F023
:104B800080012838804600F0B5F9002405E0295D51
:104B9000404600F0AFF9641CE4B2B442F7D33846A3
:104BA000BDE8F0410121FCF765BC000034050020A0
:104BB0000A4601460020FFF7D7BF000010B5074A9C
:104BC0005078002808D13E2000F030F801205070C5
:104BD000BDE8104000F018B810BD0000940000209F
:104BE000012200F001B8000008B50B46044900920C
:104BF0000246097803484906090EFDF77FFC08BD07
:104C000094000020EC01002010B512217D2000F05E
:104C100013F8012805D134217D2000F00DF801287A
:104C200001D0002010BD012010BD00000149087016
:104C3000704700009400002013B5012201A900F084
:104C400001F81CBD08B50B460449009202460978DC
:104C500003484906090EFDF769FC08BD94000020D1
:104C6000EC01002008B500200090282000F036F864
:104C70000948417869B9012141706946062000F070
:104C80000DF89DF800000F2801D0002008BD00F0AD
:104C900019F8012008BD000096000020012200F054
:104CA00001B8000008B50B46044900920246097895
:104CB00003484906090EFDF721FC08BD96000020B7
:104CC000EC01002010B5DE217F2000F00DF8012856
:104CD00001D0002010BD012010BD00000149087066
:104CE000704700009600002013B5012201A900F0D2
:104CF00001F81CBD08B50B4604490092024609782C
:104D000003484906090EFDF711FC08BD9600002076
:104D1000EC01002010B58A07120F0F23934021F0F9
:104D20000304054921448C689C438C608B68904047
:104D300003438B6010BD0000000001400CB5002251
:104D4000019200922D49086840F4803008604FF4C9
:104D5000A063086800F4003000900198401C0190A6
:104D6000009810B901989842F3D10868800302D5E1
:104D70000120009000E00092009801283CD12048DA
:104D8000026842F004020260026842F0020202601D
:104D9000026842F00102026018482430026842F0C2
:104DA00080520260C214174802604268D206FCD4E6
:104DB00012480830026802600268026002680260FD
:104DC000026822F47D020260026842F40902026075
:104DD0000A6842F080720A600A689201FCD5016894
:104DE00021F003010160016841F0030101600168E5
:104DF000C1F381010329FAD10CBD00000038024043
:104E0000003C0240007000402DE9F0410446DDF80E
:104E100018800D4617461E4600212068FEF7F2FB5B
:104E2000082D01D0102D03D1022F01D2022E00D364
:104E3000FEE7B8F1010F1AD04FF482701049488094
:104E4000012F16D00020C880012E14D00020088128
:104E5000082D12D04FF40060888009492068FEF7C1
:104E6000E8FB2068BDE8F0410121FEF7CBBB002044
:104E7000E4E70220E7E70120E9E70020ECE7000093
:104E80008C03002070B504460D4600212068FEF713
:104E9000B9FB16480068B0FBF5F008B1401E00E011
:104EA000002040EA500040EA900040EA101040EA3A
:104EB000102040EA1041491C48420140B1FA81F0FB
:104EC000C0F12000C1B2491E072900D907214FF6C1
:104ED000FF7000EAC100064988812068FEF7A9FB3F
:104EE0002068BDE870400121FEF78CBB480000201F
:104EF0008C03002070B504460D46002C16D02068A7
:104F0000A0B102212068FEF789FB0028F9D02946CC
:104F10002068FEF78CFB01212068FEF77FFB00284C
:104F2000F9D02068BDE87040FEF77FBBFEE70000C7
:104F30002DE9FC4704460A9F8A4691469846374821
:104F4000FEF793FB00250226CDE900652B4632468D
:104F50005146201DFCF7EAF8CDE900650023022246
:104F6000494604F11000FCF7E1F8CDE900650023A3
:104F70000222414604F11C00FCF7D8F820790522F2
:104F800000F00F01A068FCF7A0F8207C052200F0DB
:104F90000F016069FCF799F8207F052200F00F01EE
:104FA000206AFCF792F8781C4FF0010611D00096A9
:104FB00000230222394604F128000196FCF7B6F8D6
:104FC00094F82800052200F00F01E06AFCF77DF854
:104FD00003E012494FF4007048811148206001211C
:104FE0008014FDF719FD7F1C10D000231A460821FC
:104FF00020460096FFF708FF0A492046FFF742FFC8
:105000002068BDE8FC470121FEF7FCBA00231A46E0
:10501000082120460095FFF7F7FEEDE78C030020FE
:10502000003001408096980010B51048016841F4A6
:10503000807101600D4908310A680D4B1A400A6001
:1050400002680C4B1A400260026822F4802202605F
:10505000086820F47D000860091D00200860FFF743
:105060006DFE05494FF00060086010BD0038024039
:105070000CC0FF88FEFFFEEE08ED00E010B5084C06
:105080000121204600F01DF8002807D000F03AF971
:105090002046BDE81040012100F004B810BD00001A
:1050A00000040040C94301827047002904D00188F0
:1050B00041F0010101807047018821F00101018068
:1050C000704702460020138A0B4092890A40002B49
:1050D00002D0002A00D001207047002A03D0828924
:1050E0000A438281704782898A4382817047000027
:1050F0000288B0F1804F08D00F4B984205D00F4B7B
:10510000984202D00E4B984203D122F070034A8895
:105110001A430C4B984206D00B4B984203D022F412
:1051200040730A891A4302804A68C262098801856D
:105130000121818270470000000400400008004007
:10514000000C004000100040001400400549496870
:1051500004E0814201D10120704709690029F8D19A
:1051600000207047E40000200148007870470000EC
:10517000E400002010B505480078002803D0BDE801
:105180001040FEF76FB800F019F810BDE4000020E1
:1051900000B5014600F00AF8024600E000BF00F04A
:1051A00005F8801A8842F9D300BD000072B60248A3
:1051B000006862B6704700002800002030B500F09B
:1051C00017F8094AD2E90434C21A61EB0401521CEF
:1051D00041F100046421A2FB010504FB01510023FD
:1051E00002FB031130BD000028000020C8207047DA
:1051F00072B602498868C96862B670472800002004
:105200002DE9FF412F4D00242C6001210846FDF7B8
:10521000E7FB1C208DF80C0001268DF80D608DF841
:105220000E608DF80F6003A8FDF7F8FA0020A86162
:10523000E86140F67F450195ADF80040ADF80840C3
:10524000ADF80240B70769463846FFF751FF012223
:1052500011463846FFF741FF01213846FFF725FF89
:1052600001210220FDF7BCFB1D208DF80C008DF8FC
:105270000D408DF80E408DF80F6003A8FDF7CEFAB3
:1052800001950A20ADF80000ADF80840ADF80240E5
:105290000D4C69462046FFF72BFF002201212046D6
:1052A000FFF71BFF00212046FFF7FFFE01221146FA
:1052B0002046FFF712FF01212046FFF7F6FEBDE86A
:1052C000FF810000280000200004004010B50346C4
:1052D000FFF78EFF0A4AC2E90401652B05D8401C7E
:1052E00041F100019061D16110BD5B1E6424B3FBEC
:1052F000F4F4201841F100039061D36110BD000067
:105300002800002072B603480168491C016062B69B
:1053100070470000280000200022026042600272F4
:10532000C16002617047000030B4084B5A68002A1F
:1053300004D00468091B116000211172026101216F
:105340000172586030BC00F061B80000E400002039
:1053500070B5154A546822690025002A02D01368E6
:105360000B4418E00268511A01602061056170BDAC
:1053700006689E4209D20368591A016012B1136887
:10538000591A11602061026170BD144612692AB178
:10539000194616683344002CEAD170BD0168C91A59
:1053A00001602061056170BDE400002010B5134C60
:1053B0002078002802D1606800281ED0FFF7DAFEAE
:1053C00061680A68824202D20020086007E0101A71
:1053D000086004E001696160C06800B180476068EE
:1053E00010B101680029F5D06168002905D00121BC
:1053F0000172BDE8104000F009B810BDE4000020C3
:105400000149087070470000E400002005490022AF
:105410004A7009780068002901D0FDF7FDBFFFF749
:1054200055BF0000E400002070B505460C46284634
:1054300000F042F80648007810B1FDF70FFF01E0D8
:10544000FFF7D4FE844200D204462C606C6070BD2D
:10545000E400002070B5044672B6002C03D020464C
:10546000FFF774FE08B162B670BD6168216000206C
:105470002072104D686850B1017A01290BD0016883
:105480002068884210D22046FFF74EFF0FE02046EA
:10549000FFF74AFF0BE0FFF76DFE6968096881427C
:1054A00000D20846091AEBE72046FFF751FF62B623
:1054B00070BD0000E400002070B5044672B6214DB6
:1054C0006968084600290ED06CB1A14225D1087A3E
:1054D0000026012809D00869E8B1216868600268DF
:1054E000114401602BE062B670BDFFF743FE2168F6
:1054F000814200D208460A1A6968086948B10E72EA
:10550000686001681144016001210172FFF77EFFAC
:1055100015E06E6013E06E6011E022680DE0A142BC
:1055200009D1096921B1016108681044086006E0E9
:105530000021016103E0084609690029EFD162B644
:1055400070BD0000E40000202DE9F041234C40F242
:1055500027763146204600F0AAF8214D70B105F1BA
:105560001C000746FDF708F818B300223146204614
:1055700000F0BDF8696B09B10020884740F2253181
:10558000204600F094F810B1204600F025F940F2D2
:105590002551204600F08BF800281DD0204600F051
:1055A0001BF9C4B20E4828300646FCF7EDFF40B1A7
:1055B0000BE03846FBF732FD0146204600F010F9BB
:1055C000D8E721463046FBF738FD696B002903D048
:1055D000BDE8F04101200847BDE8F08100380140F6
:1055E00014020020002904D0818941F400518181F6
:1055F0007047818921F400518181704710B523499A
:1056000088420AD101218C032046FDF713FA204677
:10561000BDE810400021FDF70DBA1D4988420AD1AE
:1056200001214C042046FDF7E9F92046BDE8104071
:105630000021FDF7E3B9174988420AD101218C0402
:105640002046FDF7DBF92046BDE810400021FDF7BC
:10565000D5B9114988420AD10121CC042046FDF771
:10566000CDF92046BDE810400021FDF7C7B90B4930
:1056700088420AD101210C052046FDF7BFF92046DA
:10568000BDE810400021FDF7B9B910BD0038014058
:105690000044004000480040004C004000500040E2
:1056A0000246002012880A4200D00120704770B5DF
:1056B000002440F66A12C1F3421301F01F050126CF
:1056C00006FA05F2012B0CD0022B0DD0838A134071
:1056D000090A8E40008830400BB100B101242046F9
:1056E00070BD83891340F3E7038A1340F0E710B5D8
:1056F00040F66A13C1F3421301F01F040121A140D7
:10570000012B07D0022B07D014303AB102680A43AC
:10571000026010BD0C30F8E71030F6E702688A43EB
:10572000026010BD7FB504460D46208A20F440512A
:10573000E88808432082A18941F20C608143A8884F
:105740002A8910436A890A431043A081A08A20F461
:105750004071A8890843A0826846FDF779F91D4881
:10576000844201D1039800E00298A189090408D578
:1057700000EBC00101EB001029684900B0FBF1F01B
:1057800007E000EBC00101EB001029688900B0FBC5
:10579000F1F06422B0FBF2F109010B096FF018057A
:1057A0006B4300EB8300A3891D044FF0320307D540
:1057B00003EBC000B0FBF2F000F00700084306E086
:1057C00003EB0010B0FBF2F000F00F000843208163
:1057D0007FBD0000003801408088C0F3080070479A
:1057E000C1F3080181807047FEB5DDE908650A9CB8
:1057F0004778002F08D00778FF2F04D0CDE9006547
:10580000029400F01FF8FEBDFEE700214170017810
:10581000FF2901D000F0B0B870470278FF2A01D00C
:1058200000F0C6B8FF20704730B44478002C06D191
:1058300001244470FF2902D030BC00F0CBB830BC4A
:10584000704700002DE9FF4F85B00446DDE913964F
:10585000129D884625208DF800004FF0080B8DF82A
:1058600001B000278DF8027001208DF80300684612
:10587000FCF7D4FFDFF8FCA0B8F1000F09D040F22C
:105880002551B8F1010F0AD0206A98B1E06A88B1B9
:1058900011E0206A10B1ADF80EB013E0FEE7E06A47
:1058A00038B101225046FFF722FF0420ADF80E0068
:1058B00008E0FEE7276201225046FFF718FF0C20A0
:1058C000ADF80E000798019008994FF4805049B147
:1058D000ADF808004DB1012D0AD0022D0BD0032DDB
:1058E0000ED011E0ADF80870F4E7ADF80A700BE0E7
:1058F000ADF80A0008E04FF40050ADF80A0003E0EC
:105900004FF44050ADF80A00B9F1000F0ED0B9F1D4
:10591000010F0ED04FF4C060ADF80C0076B1012E2F
:105920000FD0022E12D0032E15D018E0ADF80C7057
:10593000F4E74FF48060ADF80C00EFE7ADF81070BD
:105940000DE04FF48070ADF8100008E04FF40070E7
:10595000ADF8100003E04FF44070ADF8100001A95D
:105960005046FFF7DFFE01215046FFF73BFE09B02E
:10597000BDE8F08F003801407CB504460B48FFF7C6
:105980003DFE00250095019594F904102B46032255
:10599000201DFBF7CBFB0095019594F91010002317
:1059A000032204F11000FBF7C1FB7CBD003801406D
:1059B00070B50C4628300546FCF7DEFD08B1012025
:1059C00070BD72B62846FBF729FB207062B6002036
:1059D00070BD00002DE9FC41044617461E462170AB
:1059E00001218803FDF718F81248FFF707FE01258B
:1059F0000095002302223946201D0195FBF796FBF6
:105A0000009500230222314604F110000195FBF7B6
:105A10008DFB2079072200F00F01A068FBF755FBF2
:105A2000207C072200F00F01606902B0BDE8F04160
:105A3000FBF74BBB00380140FEE700000FB4054BFD
:105A400010B503A9044A029800F0CAF810BC5DF82A
:105A500014FB0000C9640008EC00002002E008C844
:105A6000121F08C1002AFAD170477047002001E0D8
:105A700001C1121F002AFBD1704700002DE9FF5F12
:105A8000DDE90220010DDDF838B0024318D044F6FC
:105A90001050A1F2FF3141430D140F98012820D07E
:105AA000A5EB0B00401C5FEA000A4FF00004474ED4
:105AB000DFF81C91A046504616D5CAF1000728E031
:105AC0000F98012443A2012808D0002100980F9BC1
:105AD000C0E90021C0E90243BDE8FF9F6FEA0B0166
