:020000040800F2
:10000000180800200901000809160008130100085B
:100010005D1500084F0B0008274400080000000091
:100020000000000000000000000000001B010008AC
:100030006D0B0008000000001F01000821010008EE
:100040002301000823010008230100082301000800
:100050002301000823010008990B0008750C000813
:10006000A50C0008D50C0008050D000823010008A8
:1000700023010008230100082301000823010008D0
:1000800023010008230100082301000823010008C0
:10009000230100082301000823010008350D000892
:1000A00023010008230100082301000823010008A0
:1000B000B13D0008ED3D00082301000823010008C0
:1000C0002301000823010008230100082301000880
:1000D000230100080543000823010008230100084C
:1000E000C90B00084119000823010008230100087A
:1000F00023010008DFF80CD000F06EFB0048004739
:100100008546000818080020064880470648004732
:10011000FEE7FEE7FEE7FEE7FEE7FEE7FEE7FEE7B7
:10012000FEE7FEE75D3D0008F500000840EA010338
:100130009B0703D009E008C9121F08C0042AFAD29D
:1001400003E011F8013B00F8013B521EF9D2704761
:10015000D2B201E000F8012B491EFBD27047002209
:10016000F6E710B513460A4604461946FFF7F0FFB6
:10017000204610BD421C10F8011B0029FBD1801A3B
:10018000704730B505460020034600E05B1C9342F3
:1001900005D2EC5CC85C201A01D1002CF6D130BD30
:1001A0002DE9FE4F804681EA0300C00F0C46009007
:1001B00021F0004123F00045B8EB0200A94105D22F
:1001C0004046214690461C460B46024623F000401E
:1001D000104347D0270DC7F30A00C3F30A5102901A
:1001E000401A019040286BDAC3F3130040F4801BDF
:1001F0000098924620B10023D2EB030A63EB0B0B6D
:1002000001985946C0F14002504600F013FA0646E4
:100210000D4650465946019A00F02BFA10EB0800A3
:100220006141002487EA115284EAE7731A4340D0FF
:10023000009A62B3019A012A4FEA075215DC001BAB
:1002400061EB02014FF0004202EA0752CDE90042A1
:10025000001C41F5801132462B4600F02BFA03B00A
:10026000BDE8F08F40462146F9E7001B61EB020133
:10027000001C41F5801300185B412018A2F50017FF
:1002800047EB030140EAD570B6196D4111E06D08E6
:100290004FEA360645EAC0754FEA0752001B61EB8C
:1002A0000201001C41F5801149084FEA3000001995
:1002B000514132462B4603B0BDE8F04F00F0EBB998
:1002C0000098012240000023D0EB020263EBE073B0
:1002D000009821464FEAE074B8EB000061EB04019E
:1002E000E9E783F000435BE781F0004158E72DE93F
:1002F000FE4F81EA030404F0004421F00041009421
:100300004FF0000B23F0004350EA01045ED052EAA4
:1003100003045BD0C3F30A54C1F30A552C44A4F27E
:10032000F3340194A0FB0254C1F3130141F4801192
:10033000C3F3130343F4801301FB024400FB034E99
:10034000840A970A44EA815447EA8357A4FB076862
:1003500002958D0A05FB07854FEA932C04FB0C548C
:100360002705029D4FEA065847EA1637B5EB080500
:100370006EEB070C870E920E47EA811742EA831252
:10038000A7FB0201B6EB0B0164EB00042B0D43EA63
:100390000C335E1844EB1C50DA465146E7FB020171
:1003A000C5F313044FEA0B3343EA14534FEA043204
:1003B000019C43EA0603A4F10C040294009CCDE9DD
:1003C00000B400F077F903B0BDE8F08F00200146DB
:1003D000F9E72DE9F04D81EA030404F0004B21F028
:1003E000004514464FF0000A23F0004150EA050290
:1003F00020D054EA01021DD0C5F30A570246C5F3C6
:100400001303C1F31300C1F30A5640F4801543F4FB
:100410008013A7EB0608101BD64608F2FD3873EBD5
:10042000050002D308F1010801E092185B41B8F120
:10043000000F03DA00200146BDE8F08D00204FF4E4
:100440008011064684460EE0171B73EB050705D3A3
:10045000121B63EB050306434CEA010C49084FEA03
:10046000300092185B4150EA0107EDD152EA0300D7
:1004700012D082EA040083EA0501084305D0101B6C
:10048000AB4106D20122002306E000224FF00043D8
:1004900002E06FF0010253101AEB06004CEB08511A
:1004A00010EB0A0041EB0B01BDE8F04D00F0F3B892
:1004B00070B521F0004303430CD0C1F30A5500246A
:1004C000D5EB040564EB0403D617AD1AB34102DB88
:1004D0000020014670BD201841EB025170BD0EB5E1
:1004E000C10F80EAE0700844CA07002140F233439C
:1004F0008DE80E000A460B4600F0DCF803B000BDA4
:100500000EB540F2334102910021CDE900110A46B7
:100510000B4600F0CFF803B000BD0EB540F23342F9
:1005200002920022CDE90022134600F0C3F803B086
:1005300000BD70B5C1F30A5201F000450024C1F3BB
:10054000130140F2FF3341F480119A4201DA002096
:1005500070BD40F233439A42A2F2334203DC52426E
:1005600000F077F800E090402C43F1D0404270BD9D
:10057000C1F30A5210B5C1F3130140F2FF3341F445
:1005800080119A4201DA002010BD40F233439A42B2
:10059000A2F2334203DC524200F05BF810BD9040FF
:1005A00010BDC1F30A52C1F3130140F2FF3341F40D
:1005B00080119A4202DA00200146704740F233432C
:1005C0009A42A2F2334202DC524200F042B800F0FA
:1005D00031B8000030B5041E71F1000404DB4FF0A7
:1005E0000044404264EB0101141E73F1000405DB7A
:1005F0001C464FF00043524263EB04038B4208BF9A
:10060000824230BD30B5041E71F1000404DB4FF0AE
:100610000044404264EB0101141E73F1000405DB49
:100620001C464FF00043524263EB0403994208BF5B
:10063000904230BD202A04DB203A00FA02F100206B
:1006400070479140C2F1200320FA03F31943904010
:100650007047202A04DB203A21FA02F0002170477B
:1006600021FA02F3D040C2F120029140084319461A
:100670007047202A06DBCB17203A41FA02F043EA02
:10068000E07306E041FA02F3D040C2F1200291404B
:1006900008431946704710B5141E73F1000408DAB8
:1006A000401C41F1000192185B411A4301D120F036
:1006B000010010BD2DE9F04D92469B4611B1B1FAF3
:1006C00081F202E0B0FA80F220329046FFF7B2FFEA
:1006D00004460F4640EA0A0041EA0B0153465A46D7
:1006E000084313D0114653EA010019D0C8F1400263
:1006F0005046FFF7AEFF05460E4650465946424665
:10070000FFF798FF084305D0012004E02046394652
:10071000BDE8F08D0020054346EAE0762C433743E0
:100720000A986305E40AA0EB08000022FD0A44EAE7
:1007300047540A3002D500200146E9E701051019A7
:100740006941DDE9084500196941BDE8F04DA2E7BE
:100750002DE9F041054621F000400C46284309D020
:10076000C4F30A5040F23341884205DD2846214651
:10077000BDE8F0812846FBE740F2FE31884210DCFC
:100780000CDB4FEA043040EA155050EA053105D041
:10079000104804F0004101430020E9E70020014631
:1007A000E6E7A0F233404642C6F140022846214621
:1007B000FFF740FF07468846284621463246FFF7A6
:1007C00048FF43463A46FFF766FF3246BDE8F04130
:1007D000FFF730BF0000F03F064C074D06E0E06831
:1007E00040F0010394E8070098471034AC42F6D378
:1007F000FFF784FC444B0008644B0008034A11686F
:1008000021F440310068084310607047042701401C
:1008100010B5074988420AD144150121204600F04D
:10082000E9FF2046BDE81040002100F0E3BF10BD05
:1008300000240140826822F0F0020A43826070477F
:1008400030B542680F4B1A400C790B6842EA04221B
:100850001343436083680C4A1340D1E903422243A7
:100860004D798C6844EA450422431A438260026B46
:1008700022F0F872097D491EC9B242EA01510163B2
:1008800030BD0000FFFEFFFCFDF7FFC0002101604E
:100890000171417181604FF04072C26001610121BC
:1008A0000175704738B50446084A1378002B0BD100
:1008B00001231370204600F077F800210B460A460A
:1008C0002046009100F004F838BD000080000020B0
:1008D0002DE9F04188B00C460E9F16461D460120BA
:1008E00000F0BCFF212000F093FF0028FAD04FF465
:1008F00000780121404600F06FFF4FF40030079070
:1009000007A8FFF77BFF01A8FFF7C0FF002134B164
:10091000012C06D0022C08D0032C0AD00CE0019147
:100920000AE04FF08070019006E04FF000700190F7
:1009300002E04FF0407001908DF80810012316B3CB
:100940008DF8093015B3012D22D0022D24D04FF09F
:100950004050039027B34FF4006005908DF8183095
:10096000104C01A92046FFF76BFF10212046FFF72E
:1009700061FF0021404600F02FFF002000F06EFFD5
:1009800008B0BDE8F0818DF80910DBE70391E1E7DD
:100990004FF080500390DDE74FF000500390D9E70F
:1009A0000591DBE7002401407CB504460D4607486D
:1009B0002060FFF72DFF00200090034601900322E6
:1009C0002946201D00F0F2FA7CBD00000024014001
:1009D00070B586B0154803F07DF801F09FFE002544
:1009E0000124CDE900542B460322602103A800F026
:1009F000DDFACDE9005400230322612103A800F0B1
:100A0000D5FA0226CDE9006400231A462E2103A858
:100A100000F0CCFACDE9006400231A462F2103A888
:100A200000F0C4FA0248057006B070BD440300200F
:100A30000600002038B5194C207800282CD14FF43E
:100A4000407000F017FE4FF0E020016921F0020134
:100A500001611348016841F00071016003211148F0
:100A6000FFF720FF4FF0FF300090052306220721FB
:100A70000D4803F0F7F801F095FE002003F09EFB0F
:100A800000F044F803F028FA10B101F0B9FA01E0DF
:100A900003F06EFA0120207038BD0000060000202F
:100AA00004ED00E03C010020440300207CB500245C
:100AB000012523462A4621461348CDE9004500F08A
:100AC00075FA11480122002311460C30CDE900458A
:100AD00000F06CFA0C480023012208211830CDE9FF
:100AE000004500F063FA0021074800F060FB06486B
:100AF00000210C3000F05BFBBDE87C400248002187
:100B0000183000F054BB00001801002010B586B06A
:100B100000240094234603220B2103A8019400F033
:100B200045FA0094002303220C2103A8019400F04D
:100B30003DFA0121084600F00BF80121022000F0E7
:100B400007F80121042000F003F806B010BDFEE70D
:100B5000054A002903D0516801435160704751682C
:100B60008143516070470000002004E0704700207E
:100B7000401C9628FCD3704710B5044603F0ACF92E
:100B800020B12046BDE8104001F046B92046BDE83E
:100B9000104003F0B5B9000010B503F09DF908B19D
:100BA00001F03CFA012000F00FF9002808D00548B8
:100BB000006800B18047BDE81040012000F0FEB899
:100BC00010BD00008401002070B503F085F908B164
:100BD00001F024FA4FF48065284600F0F5F8244C23
:100BE00028B1A06A00B18047284600F0E7F84FF42A
:100BF0000065284600F0E8F828B1E06A00B18047B7
:100C0000284600F0DBF84FF48055284600F0DCF869
:100C100028B1206B00B18047284600F0CFF84FF490
:100C20000055284600F0D0F828B1606B00B180472D
:100C3000284600F0C3F84FF48045284600F0C4F879
:100C400028B1A06B00B18047284600F0B7F84FF4F8
:100C50000045284600F0B8F8002807D0E06B00B146
:100C600080472846BDE8704000F0A8B870BD00007D
:100C70008401002010B503F02FF908B101F0CEF97E
:100C8000022000F0A1F8002808D00548406800B113
:100C90008047BDE81040022000F090B810BD000071
:100CA0008401002010B503F017F908B101F0B6F97E
:100CB000042000F089F8002808D00548806800B1B9
:100CC0008047BDE81040042000F078B810BD000057
:100CD0008401002010B503F0FFF808B101F09EF97F
:100CE000082000F071F8002808D00548C06800B15D
:100CF0008047BDE81040082000F060B810BD00003B
:100D00008401002010B503F0E7F808B101F086F97E
:100D1000102000F059F8002808D00548006900B1FB
:100D20008047BDE81040102000F048B810BD00001A
:100D30008401002070B503F0CFF808B101F06EF91E
:100D4000202000F041F81C4C28B1606900B18047B8
:100D5000202000F033F8402000F036F828B1A069D8
:100D600000B18047402000F029F8802000F02CF8E6
:100D700028B1E06900B18047802000F01FF84FF4EF
:100D80008075284600F020F828B1206A00B180471D
:100D9000284600F013F84FF40075284600F014F8C8
:100DA000002807D0606A00B180472846BDE870403F
:100DB00000F004B870BD0000840100200149086003
:100DC000704700001404014001460020024A1268E6
:100DD0000A4200D0012070471404014030B51B4A7C
:100DE00083790168002B2AD013688B431360111D8F
:100DF0000B680468A3430B60017911440B68046815
:100E000023430B60114C0834216803689943216027
:100E1000231D19680568A94319604179102905D077
:100E200011440A68006802430A6030BD2168026804
:100E300011432160196800680143196030BD0079D1
:100E4000104402688A43026030BD00000004014083
:100E50000089491CB1FBF0F200FB121080B2704710
:100E600070B5044620462188FFF7F2FF61680D5CEB
:100E700021882046FFF7ECFF2080284670BD70B522
:100E800004460D4661882046FFF7E2FF60806168F6
:100E90000D5470BD10B500200C4A541E217849082D
:100EA0002170135C13B141F080012170401CC0B26D
:100EB0000828F3D300F03AFA4E2000F07BFA2078AD
:100EC00000F078FABDE8104000F052BA8D00002022
:100ED0002DE9F041002201274FF0030C07FA02F53B
:100EE0000B682B40AB422BD1066853000CFA03F47D
:100EF000A64306600E79D0F800809E4046EA0806B8
:100F000006600E79012E01D0022E11D18668A6430B
:100F100086604E79D0F808809E4046EA08068660D2
:100F20008688AE43868086888D7995402E4386805C
:100F3000C568A543C560CC799C40C3681C43C460A8
:100F4000521C102ACAD3BDE8F08110B54B07DB0E46
:100F50009A40C90800EB8100016A0F249C40A1431C
:100F60000162016A1143016210BD02460020128A2B
:100F70000A4200D0012070474183704701837047C7
:100F80000021094A52F83130834208D84B1C52F8EC
:100F90003330834203D902EBC10000797047491C0A
:100FA000C9B21529EED3FEE7944A00087CB5DDE905
:100FB00006540626B6EB211F03D3CDE9005400F0FA
:100FC00001F87CBD2DE9FC410446DDE908781546B1
:100FD0001E46481C32D0C1F30F102081217001F051
:100FE0000F03012101FA03F26280062808D2144A95
:100FF00002EB8022626001FA00F000F0C3FB08E01F
:1010000007D1104860604FF020004FF0010100F060
:10101000B9FB012D03D14146204600F09FF88DF821
:1010200004508DF806608DF8077003208DF80500D8
:101030006088009069466068FFF74AFFBDE8FC8160
:101040000000024000140240002807D090F9001070
:10105000491C04D041884068FFF787BFFEE70020A5
:10106000704700002DE9FE4F04460F461546002B41
:101070006FD02078384900F00F0041F8203001216E
:10108000084600F0A9FB207800F00F01207A02F05A
:10109000A7FC207800F00F01012000FA01F8CDF83C
:1010A000008000268DF804604FF008094FF00C0A0C
:1010B000012F04D0022F05D0032F06D0FEE78DF8B4
:1010C000059005E08DF805A002E010218DF80510CF
:1010D00080468DF806006846FFF780FE207800F015
:1010E0000F00052803D2801D8DF8080008E00A28AB
:1010F00003D217208DF8080002E028208DF80800A0
:1011000045B1012D0CD0022D0FD0032D12D0042D8E
:1011100016D0FEE70F208DF809008DF80A6013E065
:101120008DF809A08DF80A600EE08DF809908DF811
:101130000A6009E004208DF809008DF80A6003E0D8
:101140008DF809608DF80A608DF80B8002A800F018
:101150005DFABDE8FE8F00008401002000280AD05F
:10116000426842B190F900305B1C09D021B141883E
:101170001046FFF703BFFEE741881046FFF7FCBEAD
:10118000704790F900100622B2EB211F01D3FFF740
:101190005BBF0020704730B490F900400625B5EBE6
:1011A000241F02D330BCFFF75DBF30BC704790F9FD
:1011B00000200623B3EB221F01D3FFF7CFBF7047F8
:1011C0000449002802D00120C87001E00020C87046
:1011D000FFF760BE8D00002070B50520FFF7CCFC46
:1011E00003F022F900201A4D00242C54401CC0B2F8
:1011F0000828FAD3FFF74EFE2C70FFF74BFE6C70F9
:10120000FFF748FE032000F063F90520FFF7B4FC68
:10121000032000F05DF90120FFF7AEFC032000F091
:1012200057F90120FFF7A8FC022000F051F9012036
:10123000FFF7A2FC282000F01BF80C2000F018F8A3
:101240000C2000F015F8BDE87040012000F010B847
:101250008D00002000F00CB870B50546002403E0B6
:1012600000F05AF9641CE4B2285D0028F8D170BD82
:1012700070B5044600F0FEF8074D00262E70FFF70B
:1012800009FE6E70FFF706FE200900F021F92046E6
:10129000BDE8704000F01CB98D0000202DE9F0473A
:1012A00080460025204E4FF400794FF48077600689
:1012B000040EFFF75CFC39463046FFF75FFEFFF790
:1012C00056FC49463046FFF750FE08B144F0010491
:1012D000FFF74DFC39463046FFF74EFEFFF747FC5F
:1012E0006D1CEDB2082DE2D3B8F1000F04D04946D1
:1012F0003046FFF743FE03E049463046FFF73CFE29
:10130000FFF735FC39463046FFF738FEFFF72FFC74
:10131000FFF72DFC39463046FFF72EFEFFF727FC7E
:101320002046BDE8F08700000004024070B50F4D74
:101330004FF4007421462846FFF720FEFFF717FC04
:10134000661031462846FFF719FEFFF710FC2146CC
:101350002846FFF711FEFFF70AFC31462846FFF743
:101360000BFEBDE87040FFF702BC00000004024025
:1013700070B50F4D4FF4807421462846FFF7FCFDF1
:10138000FFF7F5FB660031462846FFF7F5FDFFF74E
:10139000EEFB21462846FFF7F1FDFFF7E8FB31465B
:1013A0002846FFF7EBFDBDE87040FFF7E0BB00000B
:1013B000000402402DE9F04105460024214E4FF47F
:1013C0000078B715280604D541463046FFF7D6FD0C
:1013D00003E041463046FFF7CFFDFFF7C8FB394633
:1013E0003046FFF7CBFDFFF7C2FBFFF7C0FB3946E6
:1013F0003046FFF7C1FDFFF7BAFB6806050E641C17
:10140000E4B2082CDED341463046FFF7B7FDFFF7C4
:10141000AEFB39463046FFF7B1FDFFF7A8FB41466A
:101420003046FFF7A2FD08B1012400E00024FFF7D9
:101430009EFB39463046FFF79FFDFFF798FB20469D
:10144000BDE8F0810004024001884088814201D15A
:10145000012070470020704710B50446204661887F
:10146000FFF7F6FC2188884201D1012010BD002041
:1014700010BD00002DE9F041144C0125E571A57166
:1014800065712571FFF706FD00262670FFF702FD46
:101490006570FFF7FFFCA570FFF7FCFCFFF746FF48
:1014A0004F20FFF787FF0120FFF7F8FE0746FFF701
:1014B0005FFFA670FFF7EEFCA570FFF7EBFCA670D0
:1014C000FFF7E8FC3807E6D4BDE8F0818D00002086
:1014D00070B5104C02074FF001014FF0000501D527
:1014E000E17100E0E571420701D5A17100E0A5714D
:1014F000820701D5617100E06571C00701D02171DB
:1015000000E02571A170FFF7C5FCA570BDE8704033
:10151000FFF7C0BC8D00002070B50446FFF7AAFF9E
:10152000084D01202870FFF7B5FC00206870FFF718
:10153000B1FC2009FFF7CCFF2046BDE87040FFF763
:10154000C7BF00008D0000200EB5C0B20A22694658
:1015500003F078F86846FFF77FFE0EBDFEE7000057
:1015600001A0FFF779BE000053697A65202052730D
:1015700073692020536E720010B5C020FFF76AFE19
:101580001F4CA088FFF7E0FF94F90100002808DB5A
:10159000C720FFF75FFE94F9010080B2FFF7D4FF88
:1015A0000EE0C620FFF756FE16A0FFF755FEC72037
:1015B000FFF750FE94F90100404280B2FFF7C4FFEC
:1015C00094F90200002809DBCD20FFF743FE94F9CF
:1015D0000200BDE8104080B2FFF7B6BFCC20FFF795
:1015E00039FE08A0FFF738FECD20FFF733FE94F94F
:1015F0000200BDE81040404280B2FFF7A5BF0000E6
:10160000000000202D0000007047000030B50F23BF
:10161000C27801250178002A1FD0154A126802F409
:10162000E062C2F5E062C2F30722C2F10404D340D3
:101630004278A24084781C401443220101F1E02149
:1016400081F80024007800F01F018D4040098000DF
:1016500000F1E020C0F8005130BD01F01F008540CE
:101660004809800000F1E020C0F8805130BD000042
:101670000CED00E002490843024908607047000091
:101680000000FA050CED00E02DE9F04180460C4623
:1016900016461F460748C16A8847074D2246AC8058
:1016A00041460648FEF742FD6E70AF70012028707B
:1016B000BDE8F081104A000800000020BC000020B6
:1016C00010B50348C06A804702490320087010BD66
:1016D000104A00080000002010B50348C06A804787
:1016E00002490220087010BD104A000800000020C6
:1016F00010B50348C06A804702490420087010BD35
:10170000104A00080000002010B50348C06A804756
:1017100002490520087010BD104A00080000002092
:101720000A4B1A6822F0030202431A600848026852
:1017300042F004020260012905D020BF016821F0B7
:1017400004010160704730BFF8E7000000700040FE
:1017500010ED00E0014988627047000000000E4271
:10176000014908617047000000000E42014908620B
:101770007047000000000E420149486270470000B7
:1017800000000E42054A002903D011680143116090
:101790007047116881431160704700001C38024097
:1017A000054A002903D01168014311607047116890
:1017B000814311607047000024380240054A002927
:1017C00003D01168014311607047116881431160B3
:1017D0007047000018380240054A002903D01168FC
:1017E0000143116070471168814311607047000028
:1017F00020380240054A002903D0116801431160D6
:10180000704711688143116070470000143802402E
:10181000024600205109012909D00749096802F050
:101820001F02012393400B4200D001207047024960
:1018300034390968F3E70000343802400248006890
:1018400000F00C00704700000838024002490022F6
:101850000A700870704700000238024001490860B1
:101860007047000000004742024900220A700870D9
:101870007047000035380240014908667047000093
:10188000000047420149086070470000D8064742FF
:10189000C0F30141032907D1094B196821F0C04168
:1018A00000F0C0420A431A60054934310A6822F444
:1018B00040320A600A6800F4403002430A60704710
:1018C000003802400149086070470000DC064742CA
:1018D000034A116821F003010143116070470000C1
:1018E0000838024038B500220092144CCA22226007
:1018F00053222260114A1C3A002904D01168014386
:101900001160012015E01168814311600B4A183AFB
:101910005514116801EA1021009B5B1C0093009B89
:10192000AB4201D00029F4D0116811EA102F03D086
:101930000120FF21216038BD0020FAE72428004063
:1019400010B54FF48054204600F096F800280BD0D4
:1019500000F064FB02F0F0FB204600F029F8600183
:10196000BDE81040FFF72ABA10BD010901EB810163
:10197000490000F00F000844C0B27047002103E0A6
:10198000491CC9B20A38C0B20A28F9D2090740EA8C
:1019900011607047C0F3100040F08000C14303485D
:1019A000026802F080021143016070470C28004079
:1019B000000980B240F08000C1430348026802F091
:1019C00080021143016070470C2800400121017022
:1019D000817041700021C1707047000008B500207F
:1019E00000900E490868400615D44FF0FF3008609B
:1019F0004B14086800F04000009A521C0092009AB4
:101A00009A4201D00028F4D00868400601D5012090
:101A100008BD002008BD012008BD00000C280040C2
:101A20000248016821F08001016070470C280040E5
:101A300010B502460C460E4801680E480140080CDD
:101A4000E070C1F30423637001F03F03A370C1F39E
:101A500042312170002A0AD1FFF787FFE0706078D9
:101A6000FFF783FF6070A078FFF77FFFA07010BDC5
:101A7000042800403FFFFF0010B500210D4A126806
:101A800002F004030B4A383A1268840C20FA04F47A
:101A9000024003EAD4331A43064B343B1B6803EA83
:101AA0001010002A03D00004000C00D001210846C9
:101AB00010BD00004028004010B502460C460F48FB
:101AC00001680F480140C1F305402070C1F30623AF
:101AD000637001F07F03A37001F48001090CE170D1
:101AE000002A0AD1FFF741FF20706078FFF73DFF21
:101AF0006070A078FFF739FFA07010BD002800408B
:101B00007F7F7F0030B50F4DCA222A6053222A60A2
:101B10000C4C0C4B1C3C20F004021C3300F0040065
:101B2000002906D02168114321601968014319601A
:101B300005E0216891432160196881431960FF2005
:101B4000286030BD2428004070B504460025114EA1
:101B5000CA20306053203060FFF740FFA8B10D4825
:101B60001C38016821F040010160016822681143BE
:101B700001600848A168143801600168A28841EA40
:101B800002410160FFF74CFF0125FF20306028462D
:101B900070BD00002428004070B505460E4614466E
:101BA00000202B49002D06D00968490608D5207869
:101BB000FFF7DBFE05E00968490607D4E07005E0A1
:101BC000E070A068A8B1207BFFF7CFFEADB1A07890
:101BD0002178E27840EA01406178090241EA024155
:101BE0000843217B40EA0160A1680843616808431B
:101BF0001CE0207BFFF7B9FEE8E72078FFF7BEFE88
:101C000005046078FFF7BAFE45EA0025A078FFF7E3
:101C1000B5FE0543E07845EA0045207BFFF7AEFEC0
:101C2000A16845EA00600843616808430849CA2280
:101C30001C310A6053220A60B6F5807F04D00A1F67
:101C40001060FF20086070BD014A14321060F8E790
:101C50000828004070B505460C460026002D06D128
:101C60006078C10603D520F010000A3060702DB1F5
:101C70006078FFF77AFEA078FFF777FE55B1A0787D
:101C8000E17840EA014560782178000240EA41307D
:101C900005430FE0E078FFF771FE05046078FFF779
:101CA0006DFE45EA0025A078FFF768FE0543207821
:101CB00045EA40350E4CCA20206053202060FFF7D3
:101CC0008DFE88B10B480540094820380560FFF7B4
:101CD000A7FE07481C380068800604D400F066F8A8
:101CE00010B1012600E00126FF202060304670BDC3
:101CF000242800403FFFFF002DE9F04105460C4637
:101D000000260020244F002D06D03968490608D54A
:101D10002078FFF72AFE05E03968490602D4E07012
:101D200000E0E07055B1A078217840EA0145607884
:101D3000E178000240EA014005430FE02078FFF718
:101D40001DFE05046078FFF719FE45EA0025A0781E
:101D5000FFF714FE0543E07845EA00450E4CCA2023
:101D60001C34206053202060FFF738FE78B10B4808
:101D70000540094808380560FFF752FE38688006BC
:101D800004D400F013F810B1012600E00126FF2072
:101D900020603046BDE8F081082800407F7F7F004A
:101DA0000021C170017041708170704718B500202A
:101DB0000090104BCA201860532018600D49183944
:101DC000086820F0A0000860CC13086800F020002C
:101DD000009A521C0092009AA24201D00028F4D02E
:101DE0000868800601D5012000E00020FF2119606D
:101DF00018BD00002428004010B54FF48074204620
:101E0000FFF7C8FD00212001FFF77CFE2046BDE85A
:101E100010400021FFF766BD2DE9F0414FF47A71C3
:101E200000FB01F4002500F0D7F806460F4600E05D
:101E300000BF00F0D1F8801B61EB0701001BA94136
:101E4000F6D3BDE8F081000010B50C4841788078E9
:101E5000814312D072B6FEF7BBFD62B60020FFF7D9
:101E60007FFC0120FFF788FC0020FFF773FC0121B5
:101E7000BDE810400846FFF753BC10BD0800002025
:101E80002DE9FC4100242546002601A90020FFF78A
:101E900013FE69460020FFF7CBFDFFF787FF3748A9
:101EA000C178632905D19DF8031011B90179491C46
:101EB00001719DF80310C170007905E0304AA41843
:101EC00045F10005761CF6B28642F7D3002008E003
:101ED000A8B1820713D02B4AA41845F10005401C75
:101EE000C0B28142F4D8002371B188070CD0002021
:101EF0009DF801701946DFF890C07F1E21E0234A4B
:101F0000A41845F10005EAE70020DFF87CC09DF841
:101F100001700CF10C0C19467F1E07E01CF8002024
:101F20001B4E724314194D41401CC0B28742F5DC70
:101F300009E01CF80020164E724314194D41401C54
:101F4000C0B28742F5DC9DF805009DF80610C0EB95
:101F5000001001EB80029DF804004FF461614843DA
:101F60009DF8021040F2A326714300EBC11010440B
:101F700004195D4120462946BDE8FC810800002087
:101F8000E90B18BC8033E101F64900080085E20145
:101F90008051010040F26F107047000010B5FFF74C
:101FA0006FFF0A4AD2E90232C01A61EB0201801CBB
:101FB00041F10001FEF7B1FA054A064BFEF797F929
:101FC00002F064FABDE81040FEF7D2BA0800002023
:101FD00014AE47E17A845E4010B5FFF751FF801CD4
:101FE00041F10001FEF799FA034A044BFEF77FF92D
:101FF000BDE81040FEF7D5BA14AE47E17A845E40E2
:1020000010B5054C2078002805D100F067F800F0E5
:1020100033F80120207010BD0800002010B501F039
:102020005BFF002825D0134841788078814320D079
:1020300072B60120FFF70AFC3120FFF7E9FB002808
:10204000FAD00120FFF718FC3920FFF7E1FB002848
:10205000FAD00320FFF73CFCFFF7F0FB0C28FBD184
:102060000020FFF789FB0120FFF77AFBFEF7E2FC77
:1020700062B610BD0800002030B587B04FF40034C0
:102080002046FEF79BFE059400248DF8184008209A
:102090008DF8190001258DF81A5005A8FEF79EFE4F
:1020A00029208DF800008DF801408DF802408DF850
:1020B00003506846FFF7AAFAE8070290C40D01AA88
:1020C00021460020FFF768FD00212001FFF71AFDDF
:1020D00000212046FFF706FC07B030BD00B585B0F3
:1020E00001210807FFF75CFB0120FFF73FFB012000
:1020F000FFF7E8FB0020FFF7E5FB0120FFF7B4FB4B
:102100004920FFF785FB0028FAD04FF48030FFF715
:10211000BFFB0120FFF7B6FB01A8FFF741FE6846B1
:10212000FFF754FC69460020FFF794FD01A9002049
:10213000FFF7E2FDFFF73AFE012003900490002034
:10214000029002A8FFF700FDFFF730FE05B000BDCA
:1021500010B504462046FEF7D3F90E4A0E4BFEF7A3
:1021600039FA01D24FF4B7744DF2D8610B488C4262
:1021700002D20021417001E0012141704178807854
:10218000814301D0A4F648542046BDE8104000F039
:1021900007B800008FC2F5285CE3764008000020F5
:1021A0002DE9F04786B00446FFF726FEFFF768FEEC
:1021B0005C4AC2E9020101A90020FFF77DFC6946E3
:1021C0000020FFF735FC2046FEF79AF9564A574B98
:1021D000FEF7FFF8FEF7CCF95549564C8842A4F1BA
:1021E0000C0521D99DF806809DF805609DF80470C6
:1021F0009DF8020019309DF8031059B1890709D0E4
:102200009DF80110495D814260D2B0FBF1F201FB03
:1022100012005BE09DF80110095D814256D2B0FBCF
:10222000F1F201FB120051E03C21B0FBF1F201FBA5
:1022300012029DF806301A44B0FBF1F3B3FBF1F63D
:1022400001FB16339DF8056033444FF46166B0FB23
:10225000F6F64FF01809B6FBF9F709FB17669DF87B
:10226000047006EB070C344EB0FBF6F09DF80260EC
:102270003044B2FBF1F601FB1628B2FBF1F61E4426
:10228000B6FBF1F701FB1766B2FBF1F71F44B7FB92
:10229000F1F76744B7FBF9FA09FB1A77B2FBF1F2E1
:1022A0001A44B2FBF1F16144B1FBF9F1084480B288
:1022B0009DF8031061B389072AD09DF80110495D8C
:1022C000814203D2B0FBF1F201FB12008DF80A80CB
:1022D0008DF809608DF808708DF814009DF80700DE
:1022E0008DF80B000020049003904FF4807402AA34
:1022F0002146FFF751FCFFF759FD01210803FFF7C5
:1023000001FC01212046FFF7EDFA06B0BDE8F08799
:102310009DF80110095D8142D8D2B0FBF1F201FBBA
:102320001200D3E70800002014AE47E17A845E4033
:1023300080F52000014A000880510100002904D0E6
:10234000018841F0400101807047018821F040017F
:102350000180704710B5154988420AD184140121C3
:102360002046FFF747FA2046BDE810400021FFF75E
:1023700041BA0F4988420AD1041401212046FFF7CF
:102380001DFA2046BDE810400021FFF717BA0949A1
:1023900088420AD1C41301212046FFF70FFA2046D4
:1023A000BDE810400021FFF709BA10BD0030014020
:1023B00000380040003C00400246002012890A42DA
:1023C00000D001207047808970478181704730B507
:1023D000028802F441530A884C88CD8822438C88B5
:1023E0002C4322430C8922434C8922438C8922436B
:1023F000CC8922431A430280828B22F400628283BA
:10240000098A018230BD0021018041808180C18024
:10241000018141818181C1810721018270470000D2
:102420001CB500240094234603220421064801948D
:10243000FEF7BCFD04480094002303222D210C3834
:102440000194FEF7B3FD1CBDE40100201CB5002083
:102450000124CDE900400346224604210648FEF748
:10246000A5FD05480094002301222D210C3801947C
:10247000FEF79CFD1CBD0000E40100200120704718
:1024800080207047014890F88C007047F0020020CF
:102490002DE9F34F81B002460020DFF8E081002AE9
:1024A0000CD0012A7ED100242546D8F8C800002887
:1024B00057D0012858D002285BD158E0C246D8F83E
:1024C000A400FEF71DF806460F460298FEF718F81E
:1024D00080468946302000F0A4FC30F0F90002D09C
:1024E0000024674D01E000242546272000F099FCD8
:1024F00020F0F800BAF8A810401C0844FEF700F8D5
:102500009AF8AA20012A25D000225D4BFDF748FE4B
:1025100022462B46FDF744FE42464B46FDF740FE61
:102520009AF8AC20012A18D000221346FDF738FE95
:102530000322FDF7BDFF32463B46FDF74AFF00226E
:10254000504BFDF7D4FE02F0E5F903B0BDE8F04FC3
:10255000FEF70EB800221346D8E700224FF0804362
:10256000E4E70024484D04E00024484D01E0484DD4
:102570000024D8F8CC000121009001FA00F0FDF70A
:10258000AEFF02460B4620462946FDF722FF0246D3
:102590000B4600203A49FDF71CFF04460D46B8F8EB
:1025A000D20000E068E0FDF7ABFF0022394BFDF7F9
:1025B000F7FD22462B46FDF79AFE82468B4698F899
:1025C000D100001DFDF79CFF064698F8D0000F468D
:1025D00008B1022000E000200099C0EB8100FDF767
:1025E0008FFF804602988946C1000098404201EB67
:1025F0008001224890F8D60001EB00111F4890F8A6
:10260000D40008B1142000E00020081A1C30FDF7A7
:1026100077FF42464B46FDF7DCFE01F037FF3246BE
:102620003B46FDF764FE06460F4600221346304641
:102630003946FDF7E7FF02D23046394601E0002077
:1026400001460022144BFDF7ABFD22462B46FDF759
:102650004EFE52465B46FDF7A3FD0022094BFDF7F7
:1026600046FE0E4A0E4BFDF79BFD01F07DFF03B0C9
:10267000BDE8F04FFDF77CBFBDE8FE8FF002002003
:102680000000F03F80842E418084FE4080840E4113
:1026900080841E4100001140000020402B8716D985
:1026A000CEF7EF3F70B5194948601949194801F054
:1026B000F9FC18481649143001F0F4FC1548144987
:1026C000283001F0EFFC00F0F1FB002000F038FDB5
:1026D0000E48083000F0AAF800240F4E04EB440521
:1026E000705D00F0F1FCA8198178407801F048F99C
:1026F000641CE4B2102CF1D3002000F0E5FC054985
:102700000020E83981F88C0070BD000060000020D6
:10271000552D0008D8030020644A00081CB501208C
:10272000009002460190002310211D48FEF73EFC58
:1027300000241B480094234622461121703801943E
:10274000FEF734FC1648002300941A461A21643818
:102750000194FEF72BFC1248002300941A461B211B
:1027600058380194FEF722FC0D48002300941A46C5
:1027700017214C380194FEF719FC094800230094F6
:102780001A46152140380194FEF710FC0448002336
:1027900000941A46142134380194FEF707FC1CBD3E
:1027A0006C0300207CB501240094002322461021F4
:1027B0001D480194FEF7FAFB00251B482B462A46CC
:1027C00011217038CDE90045FEF7F0FB16480023D3
:1027D0001A461A216438CDE90045FEF7E7FB124896
:1027E00000231A461B215838CDE90045FEF7DEFBD1
:1027F0000D4800231A4617214C38CDE90045FEF755
:10280000D5FB094800231A4615214038CDE900457B
:10281000FEF7CCFB044800231A4614213438CDE9D6
:102820000045FEF7C3FB7CBD6C03002010B50446D9
:102830000322012114482368FEF7ADFC124803224D
:1028400001210C306368FEF7A6FC0F48032201212A
:102850001830A368FEF79FFC0B48032201212430A7
:10286000E368FEF798FC0848032201213030236911
:10287000FEF791FC0448636903220121BDE8104082
:102880003C30FEF788BC0000FC02002070B5064614
:102890000C461546304600F017FC204600F0D4FBED
:1028A000052000F04DFC0120FEF766F9304600F0EF
:1028B000EAFA044600F060FEAC4201DD002070BD83
:1028C000012070BDF8B5002400948D4F8D4E97F80F
:1028D0008C0001280AD002284FD107F1E80001F04E
:1028E000C9FC97F88D0001287ED1F8E097F88D009B
:1028F000B0B1012841D14021122001F041F812204D
:1029000000F08FFA00909DF8000080066DD5202120
:10291000122001F035F897F8DA00002867D08CE033
:1029200097F8AC0001282FD13F2000F07AFA0090F0
:102930009DF80000800727D40B213E2001F020F8ED
:1029400010213F2001F01CF897F8AE00B0B10D2027
:1029500000F067FA40F040010D2001F011F86848DE
:10296000FC3001F087FC706810B1006900B180474D
:1029700007F8B44F7C70BC817C81F8BD87F88C402F
:10298000614801F045FCEAE7B7F8BE105F4D11B9A8
:10299000B7F8C00050B3BE377888091AC9B22844C6
:1029A00000F06CFA38887880BE3F97F8AE00A8B384
:1029B0000D2000F036FA40F040010D2000F0E0FF5D
:1029C0005148143801F056FC706840B1856835B143
:1029D00097F9B620B7F8BE1000234C48A84707F86F
:1029E000B44F7C70BC8103E07DE034E002E022E083
:1029F0007C81F8BD97F8AA0088B1322000F011FA66
:102A0000A7F8BE0017F8BE1F7888091AC9B2284473
:102A100000F034FA38887880BE3FC6E705E03A48CF
:102A20000121523800F02AFAECE787F88C4036484A
:102A300001F0EEFBC4E787F88C403348143801F00E
:102A400019FC70680028D4D000690028D1D001B0EA
:102A5000BDE8F0400047192000F0E3F940B287F8E4
:102A6000E000010605D5C043401CC0F38500454287
:102A700001E0C0F385051A2000F0D3F9002D06DA35
:102A800000EB201028448B38A7F8E20004E000EBAC
:102A900020108B38A7F8E200132000F0C2F987F865
:102AA000E4000146194800F0E9F997F8DA0008B99E
:102AB00087F88C401448143801F0DCFB706800285B
:102AC00097D08468002C94D017F9E03FA446B7F95A
:102AD0000220397901B00D48BDE8F0406047082177
:102AE000122000F04DFF87F88C407068002880D0DD
:102AF00000680028A7D001B0BDE8F0400047000002
:102B0000F00200206000002000040020F0010020FE
:102B100070B5334C04F18E0294F88C3012F8010C2D
:102B2000118E528EA4F58075012B15D0022B12D177
:102B3000002810D123468A1A94F8C310B3F8C03085
:102B4000284618448A4244DD00F044FF34F8C00FA0
:102B5000E1780844208070BD90B10128FBD1204865
:102B6000FC3001F087FB002084F88C001D48406891
:102B70000028F0D0C0680028EDD0BDE870400047C4
:102B800041B93AB994F8AA00A8B1322000F049F945
:102B9000A4F8BE0034F8BE1F60880A1A2179BE3C32
:102BA0008A420EDD284400F069F934F8C00FA1789C
:102BB0000844208070BD0A480121BE3000F05EF953
:102BC000E8E7D1B2284400F059F934F8BE0F60802C
:102BD00070BDD1B200F0FEFE34F8BE0F608070BD53
:102BE000F00200206000002070B5364C364D2146C2
:102BF00094F88C2091F88D0091F8D710012A1BD001
:102C0000022A5ED100285CD001285AD1012958D16E
:102C10000221122000F0B4FE6868002851D04069FB
:102C200000284ED01C2000F0FCF8696800F03F003E
:102C30004969BDE870400847B8B1012841D1012970
:102C40003FD10221122000F09BFE6868002838D096
:102C50004069002835D01C2000F0E3F8696800F0D6
:102C60003F004969BDE87040084794F8B400012866
:102C700027D194F8B500002823D1144801F0FAFABE
:102C8000012004F8B50F112000F0CBF840084042B5
:102C900060701C2000F0C5F805461B2000F0C1F84C
:102CA00045EA0020FDF72CFC0022094BFDF71FFB35
:102CB000FDF73FFCC4F803000C2000F0B2F8400917
:102CC000E07170BDF00200206000002000040020D0
:102CD00080844E4010B5154890F88D00002823D010
:102CE000012821D1122000F09CF8114CC0070DD012
:102CF0000521122000F044FE6068002814D081698C
:102D0000002911D0BDE810400120084704211220FD
:102D100000F036FE6068002806D08169002903D0E3
:102D2000BDE810400020084710BD0000F002002060
:102D300060000020064991F88D00002806D191F826
:102D4000B400002802D1012081F8B40070470000CF
:102D5000F002002070B5204C0025204E94F88C0025
:102D600001280CD0022835D184F88C5070680028D6
:102D700030D0406800282DD0BDE87040004794F85E
:102D80008D00A8B9AE34A571E571658225820B214D
:102D90003E2000F0F5FD10213F2000F0F1FD14F879
:102DA000AE0901280DD084F88C500D4801F062FA6C
:102DB000706800280ED0C06800280BD0BDE87040B5
:102DC00000470D2000F02DF840F040010D2000F0EC
:102DD000D7FDEDE770BD0000F0020020600000208C
:102DE0000004002070B50025012000F06DF9FF21DE
:102DF000112000F0C5FD052000F0A2F900240120FB
:102E0000FDF7BAFE2C2000F00CF800F00100A04005
:102E10000543641CE4B2202CF1D300F0ADFB28463E
:102E200070BD08B50122694600F004F89DF8000065
:102E300008BD00002DE9F04104460D4616460E4837
:102E400000210746FEF7B3F90B4804F07F0128384C
:102E5000804600F0E9FE002406E00021404600F034
:102E6000E3FE2855641CE4B2B442F6D33846BDE80C
:102E7000F0410121FEF79BB96C0300200A46014690
:102E80000020FFF7D7BF10B5002804D0012808D0D4
:102E90004FF0FF3010BD1120FFF7C3FF4008404244
:102EA00010BD1B20FFF7BDFF8B3810BD7CB5012581
:102EB000002423462A4602210A48CDE90045FEF7B0
:102EC00075F80120FDF758FE00231A460221054837
:102ED000CDE90045FEF76AF8BDE87C400620FDF725
:102EE0004BBE0000F002002073B5054600203B4CAD
:102EF00094F88D10002902D001296BD12AE000201E
:102F0000AA34E0829DF80410A18214F8AA0950B1F5
:102F1000322000F035FD9DF80420501E3F2807D8D0
:102F200084F8C3200BE0012101A800F053FDF2E773
:102F300029462B4801F0E4FC202084F8C300B0347B
:102F40002846E17C00F046FD208AE17C084420828E
:102F500020683FE094F8D900012822D03320FFF701
:102F600060FF00F0BE01491C332000F009FD1D2167
:102F70003B2000F005FD9DF8041084F8E4102220A9
:102F800000F0FEFC00210E2000F0FAFC00210D20D4
:102F900000F0F6FC0120FFF744FF30F0F8000DD000
:102FA00011E03320FFF73DFF00F0BE01332000F0B9
:102FB000E7FC19213B2000F0E3FCDCE700F0F0FA2D
:102FC0000120FDF7D9FD9DF80410284600F002FD10
:102FD000D4F8DC0000F0F8FA7CBD0000F00200201C
:102FE000F001002010B50F4991F88820824218D0D6
:102FF00081F8880050B100210B48FEF7D8F80A4844
:103000000121BDE810400C30FEF7D1B8012106487F
:10301000FEF7CDF804480021BDE810400C30FEF763
:10302000C6B810BDF0020020D801002005490A787A
:10303000824205D0087008B1FFF7F2B9FFF706BA6F
:10304000704700001800002010B50E49C1F890002C
:10305000FDF756FA00220C4BFDF7BBF9FDF788FA95
:103060000446C4F30741062000F08AFCC4F307219C
:10307000072000F085FCE1B2BDE81040082000F018
:103080007FBC0000F002002080844E4070B50446F2
:103090000D46204600F018F83CB1012C10D129460D
:1030A000BDE87040232000F06BBC064890F8AA00F1
:1030B000002805D12946BDE87040322000F060BCF0
:1030C00070BD0000F002002010B51C494A6D002AB6
:1030D0001CD091F88D2082422ED081F88D000128DD
:1030E00015D0002000F02CF80120FFF79AFE00F028
:1030F0007F01012000F044FC0021402000F040FC52
:103100003021BDE81040412000F03ABCFEE700202D
:1031100000F016F80120FFF784FE40F08001012046
:1031200000F02EFC0021402000F02AFC0021BDE828
:103130001040412000F024BC10BD0000F00200202F
:1031400010B50446104801788C421CD0047094B12C
:103150000020FFF76BFF032C11D00020FFF742FF88
:103160000120FFF75EFE00F0F8012143BDE81040AA
:10317000012000F005BC0120FFF758FFF0E7012017
:10318000FFF730FFECE710BD600000202DE9F041B3
:1031900005460024DFF89C8198F88D10002902D0A4
:1031A000012950D124E098F8AE404020FFF739FEC5
:1031B00000F0030040F00C01402000F0E1FB412052
:1031C000FFF72FFE40F0C101412000F0D9FB352070
:1031D000FFF727FE00F03F0088F8C200002188F8C2
:1031E000B41088F8B510A8F8C010A8F8BE102AE0EE
:1031F00098F8D900012842D03320FFF712FE00F0E2
:10320000BE01491C332000F0BBFB1D213B2000F018
:10321000B7FB98F8DA4098F8D70001283CD01F2176
:10322000112000F0ADFB4020FFF7FBFD00F03F0157
:10323000402000F0A5FB00210F2000F0A1FB0021A1
:103240000D2000F09DFB4FF480713B48FCF787FF99
:10325000012088F88C0045B136482946FC3000F042
:10326000C1FF3448FC3000F0D3FF98F88D0000B364
:10327000002C58D0BDE8F0410520FFF761BF332096
:10328000FFF7CFFD40F04101332000F079FB192119
:103290003B2000F075FBBCE71D21112000F070FB06
:1032A0004020FFF7BEFD00F03301402000F068FB36
:1032B000C1E70520FFF744FF002C39D1D8F8A4005E
:1032C000FDF71EF904460D462720FFF7AAFD20F062
:1032D000F800FDF715F90022184BFCF761FF0646D0
:1032E0000F46B8F8A800FDF70BF932463B46FCF74D
:1032F00057FF0022124BFCF753FF0322FDF7D8F8CB
:1033000022462B46FDF765F800220E4BFCF7EFFF37
:10331000FDF72EF901460C4800F064FFBDE8F041CE
:10332000094800F075BFBDE8F0410620FFF708BF6F
:10333000BDE8F081F0020020F00100200000F03F25
:103340000000244080842E41000400202DE9F84F25
:103350008246DDE90E870B9E0D9C0D4691469B46ED
:103360005046FFF7B1FE310A81480091BAF1000FD3
:1033700023D0BAF1010F6ED18246C0F8C850CAF806
:10338000CC908AF8D1B0AAF8D2608AF8D4408AF8F2
:10339000D5808AF8D67010988AF8D70011988AF8E4
:1033A000D80012988AF8D90013988AF8DA00B9F18F
:1033B0000C0F5AD94FF00C095CE040F89C5FC0F844
:1033C00008900A994160847380F80F8007741299FD
:1033D00041741399817486814846FDF791F802463D
:1033E0000B4600206349FCF7F4FFFDF7C1F81FFA14
:1033F00080F94FEA1921022000F0C2FA09F0FF011A
:10340000032000F0BDFA2846FDF7BAFD0146122060
:1034100000F0B6FA0A98FDF7B3FD0146132000F05C
:10342000AFFA2520009900F0ABFAF1B2262000F0A7
:10343000A7FA24B14146322000F0A2FA03E0FF21AE
:10344000322000F09DFA3020FFF7EBFC00F06F0116
:1034500014B1002001E088E08020014341EA071117
:10346000BDE8F84F302000F08BBAB9F1060F01D259
:103470004FF006092DB9B9F10B0F44D0B9F10C0F7B
:1034800041D0012D02D1B9F10C0F3CD000208AF8B7
:10349000D0001D20FFF7C5FC002040EA851040EA5F
:1034A000CB0040EA84009AF8D01040EA4700084375
:1034B000C1B21D2000F064FA1E20FFF7B2FC0C9987
:1034C00000F00C00032240EA091002EA112108432F
:1034D000C1B21E2000F054FA0C98C1B21F2000F0B7
:1034E0004FFA2020009900F04BFAF1B2212000F0B1
:1034F00047FA1CB14146222000F042FA9AF8D70060
:10350000012804D010E001208AF8D000C1E74B2048
:10351000FFF787FC40F080014B2000F031FA9AF869
:10352000D810242000F02CFAB9F1060F0ED031206B
:10353000FFF777FC00F0F801C91C312000F020FAF9
:10354000BDE8F84F0A21372000F01ABA3120FFF702
:1035500068FC00F0F801491D312000F011FABDE8C7
:10356000F84F0C21372000F00BBABDE8F88F0000AF
:10357000F002002080847E4110B5084800F07AFEF9
:103580000648143800F076FE0020FFF7D9FD034905
:103590000020FC3981F88C0010BD0000EC030020F5
:1035A00010B5084800F066FE0648143800F062FEC8
:1035B0000120FFF7C5FD03490020FC3981F88C008C
:1035C00010BD0000EC03002010B50146284800F0B3
:1035D00009FE274CE83C94F88D0010B101282CD14D
:1035E00019E04020FFF71DFC00F0030040F010013F
:1035F000402000F0C5F94120FFF713FC00F03E0128
:10360000412000F0BDF93520FFF70BFC00F03F0032
:1036100084F8C20011E094F8D700012818D0F721EF
:10362000112000F0ADF94020FFF7FBFB00F03F0058
:1036300040F04001402000F0A3F9022084F88C0003
:103640000B4800F0E5FDBDE810400320FFF778BD12
:10365000F521112000F094F94020FFF7E2FB00F083
:10366000330040F04001402000F08AF9E5E7000017
:10367000D80300202DE9FF4F81B010ACDDF8388071
:1036800070CC89469A460198FFF71EFD0920FFF786
:10369000C8FB00905A20FFF7C4FB0746DFF894B23E
:1036A000DBF89000FEF7ECFE009901F07F01084383
:1036B00001062FD5B9F1110F02DD47F0070702E02F
:1036C00007F0F8073F1DF943490711D0B9F1020F80
:1036D00001DA4FF00209B9F1110F01DD4FF01109C4
:1036E00000F0F001A9F1020000F00F00014322E018
:1036F000B9F1050F01DA4FF00509B9F1140F01DD39
:103700004FF0140900F0F001A9F1050000F00F00DE
:10371000014310E04FF0FF31894500DA8946B9F1E5
:103720000E0F01DD4FF00E0900F0F00109F101006C
:1037300000F00F000143092000F022F939465A2019
:1037400000F01EF90198270A10B3012871D18BF8F7
:10375000C490CBF8C8A0CBF8CC800F988BF8D100E0
:10376000ABF8D2408BF8D45013988BF8D70014994B
:103770008BF8D8108BF8D66015998BF8D91016995C
:10378000CBF8DC10B8F10C0F5ED94FF00C0860E0FC
:103790008BF894900398CBF89800CBF89CA0CBF8CA
:1037A000A480ABF8A8408BF8AA508BF8AC601598B1
:1037B0008BF8AD001698CBF8B0000398FCF7A0FE8C
:1037C00000225D4BFCF705FEFCF7D2FE1FFA80F9E4
:1037D0004FEA1921042000F0D3F809F0FF01052079
:1037E00000F0CEF84046FCF78BFE02460B46002068
:1037F0005249FCF7EEFDFCF7BBFE1FFA80F84FEADA
:103800001821022000F0BCF808F0FF01032000F0AE
:10381000B7F83946252000F0B3F8E1B2262000F0D1
:10382000AFF83020FFF7FDFA00F06F0115B100206E
:1038300001E07CE08020014305B041EA0611BDE8CB
:10384000F04F302000F09CB8B8F1060F01D24FF0D5
:1038500006084FF00009BAF1000F05D1B8F10B0FBF
:103860000DD0B8F10C0F0AD0BAF1010F02D1B8F1A6
:103870000C0F04D08BF8D090012804D010E0012167
:103880008BF8D010F8E74B20FFF7CBFA40F080011F
:103890004B2000F075F89BF8D810242000F070F849
:1038A0001D20FFF7BEFA0F9849EA8A1141EAC000CD
:1038B00040EA85009BF8D01040EA46000843C1B2B8
:1038C0001D2000F05DF81E20FFF7ABFA68F31F1013
:1038D000C1B21E2000F054F83946202000F050F804
:1038E000E1B2212000F04CF8B8F1060F0FD03120E2
:1038F000FFF797FA00F0F801C91C312000F040F8FA
:1039000005B00A21BDE8F04F372000F039B831206A
:10391000FFF787FA00F0F801491D312000F030F878
:1039200005B00C21BDE8F04F372000F029B805B0F4
:10393000BDE8F08FF002002080844E4080847E41FC
:1039400010B50E4C94F88D00002815D0012813D125
:10395000FA21112000F014F84020FFF762FA00F07D
:103960003F01402000F00CF8032084F88C00BDE8F3
:1039700010400720FFF7E4BB10BD0000F00200205C
:1039800013B5012201A900F001F81CBD2DE9F04199
:1039900004460D4616460E4800210746FDF707FC73
:1039A0000B4844F080012838804600F03DF900249F
:1039B00005E0295D404600F037F9641CE4B2B442EA
:1039C000F7D33846BDE8F0410121FDF7F0BB000018
:1039D0006C0300200A4601460020FFF7D7BF000015
:1039E00010B58A07120F0F23934021F003040549F5
:1039F00021448C689C438C608B68904003438B60AF
:103A000010BD0000000001400CB5002201920092A0
:103A10002D49086840F4803008604FF4A0630868BE
:103A200000F4003000900198401C0190009810B9FB
:103A300001989842F3D10868800302D501200090D4
:103A400000E00092009801283CD12048026842F032
:103A500004020260026842F002020260026842F060
:103A60000102026018482430026842F0805202606D
:103A7000C214174802604268D206FCD412480830CB
:103A8000026802600268026002680260026822F452
:103A90007D020260026842F4090202600A6842F094
:103AA00080720A600A689201FCD5016821F0030166
:103AB0000160016841F0030101600168C1F3810107
:103AC0000329FAD10CBD000000380240003C02403E
:103AD000007000407CB5044600212068FEF72EFCF3
:103AE0002068FEF737FC00250095019594F9041035
:103AF0002B460122201DFDF759FA0220CDE90005D1
:103B000094F910100023012204F11000FDF74EFA81
:103B10000095019594F91C100023012204F11C006A
:103B2000FDF744FA012000900190024694F9281014
:103B3000002304F12800FDF739FA7CBD2DE9F0419E
:103B40000446DDF818800D4617461E460021206801
:103B5000FEF7F4FB082D01D0102D03D1022F01D266
:103B6000022E00D3FEE7B8F1010F1AD04FF4827095
:103B700010494880012F16D00020C880012E14D093
:103B800000200881082D12D04FF400608880094978
:103B90002068FEF71CFC2068BDE8F0410121FEF71B
:103BA000CDBB0020E4E70220E7E70120E9E70020A1
:103BB000ECE70000C401002070B504460D4600216A
:103BC0002068FEF7BBFB16480068B0FBF5F008B1B3
:103BD000401E00E0002040EA500040EA900040EA29
:103BE000101040EA102040EA1041491C48420140B0
:103BF000B1FA81F0C0F12000C1B2491E072900D9F5
:103C000007214FF6FF7000EAC1000649888120684D
:103C1000FEF7DDFB2068BDE870400121FEF78EBB9A
:103C200040000020C401002070B504460D46002C61
:103C300016D02068A0B102212068FEF7BDFB002845
:103C4000F9D029462068FEF7C0FB01212068FEF765
:103C5000B3FB0028F9D02068BDE87040FEF7B3BB85
:103C6000FEE700002DE9FC4704460A9F8A4691467C
:103C700098463748FEF7C7FB00250226CDE90065C8
:103C80002B4632465146201DFDF790F9CDE90065DF
:103C900000230222494604F11000FDF787F9CDE91F
:103CA000006500230222414604F11C00FDF77EF965
:103CB0002079052200F00F01A068FDF746F9207C6D
:103CC000052200F00F016069FDF73FF9207F052212
:103CD00000F00F01206AFDF738F9781C4FF001065B
:103CE00011D0009600230222394604F128000196E3
:103CF000FDF75CF994F82800052200F00F01E06A56
:103D0000FDF723F903E012494FF400704881114890
:103D1000206001218014FDF75FFD7F1C10D000237F
:103D20001A46082120460096FFF708FF0A49204658
:103D3000FFF742FF2068BDE8FC470121FEF7FEBA0D
:103D400000231A46082120460095FFF7F7FEEDE70D
:103D5000C4010020003001408096980010B5104842
:103D6000016841F4807101600D4908310A680D4B0A
:103D70001A400A6002680C4B1A400260026822F482
:103D800080220260086820F47D000860091D002080
:103D90000860FFF739FE05494FF00060086010BD6C
:103DA000003802400CC0FF88FEFFFEEE08ED00E088
:103DB00010B501218C07204600F03BF8002812D0F6
:103DC00000F062F90121204600F024F806488268DC
:103DD000C1688369C0695A4041400A4303D1BDE8C4
:103DE000104000F0A9B910BD2000002010B5084C0B
:103DF0000121204600F01DF8002807D000F03AF914
:103E00002046BDE81040012100F004B810BD0000BC
:103E100000040040C94301827047002904D0018892
:103E200041F0010101807047018821F0010101800A
:103E3000704702460020138A0B4092890A40002BEB
:103E400002D0002A00D001207047002A03D08289C6
:103E50000A438281704782898A43828170470000C9
:103E60000288B0F1804F08D00F4B984205D00F4B1D
:103E7000984202D00E4B984203D122F070034A8838
:103E80001A430C4B984206D00B4B984203D022F4B5
:103E900040730A891A4302804A68C2620988018510
:103EA00001218182704700000004004000080040AA
:103EB000000C004000100040001400400549496813
:103EC00004E0814201D10120704709690029F8D13D
:103ED00000207047840000200148007870470000EF
:103EE0008400002010B505480078002803D0BDE804
:103EF0001040FEF753B800F019F810BD8400002000
:103F000000B5014600F00AF8024600E000BF00F0EC
:103F100005F8801A8842F9D300BD704772B602488E
:103F2000006862B6704700002000002030B500F045
:103F300017F8094AD2E90434C21A61EB0401521C91
:103F400041F100046421A2FB010504FB015100239F
:103F500002FB031130BD000020000020C820704784
:103F600072B602498868C96862B6704720000020AE
:103F70002DE9FF412F4D00242C6001210846FDF75B
:103F80000FFC1C208DF80C0001268DF80D608DF8BB
:103F90000E608DF80F6003A8FDF738FB0020A861C4
:103FA000E86140F67F450195ADF80040ADF8084066
:103FB000ADF80240B70769463846FFF751FF0122C6
:103FC00011463846FFF741FF01213846FFF725FF2C
:103FD00001210220FDF7E4FB1D208DF80C008DF877
:103FE0000D408DF80E408DF80F6003A8FDF70EFB15
:103FF00001950A20ADF80000ADF80840ADF8024088
:104000000D4C69462046FFF72BFF00220121204678
:10401000FFF71BFF00212046FFF7FFFE012211469C
:104020002046FFF712FF01212046FFF7F6FEBDE80C
:10403000FF810000200000200004004010B503466E
:10404000FFF78EFF0A4AC2E90401652B05D8401C20
:1040500041F100019061D16110BD5B1E6424B3FB8E
:10406000F4F4201841F100039061D36110BD000009
:104070002000002072B603480168491C016062B646
:10408000704700002000002072B605488168C268B1
:10409000491C42F100028160C26062B670470000B4
:1040A000200000200022026042600272C1600261B2
:1040B0007047000030B4084B5A68002A04D00468E6
:1040C000091B116000211172026101210172586007
:1040D00030BC00F079B800008400002070B5154AAB
:1040E000546822690025002A02D013680B4418E0A6
:1040F0000268511A01602061056170BD06689E4228
:1041000009D20368591A016012B11368591A116073
:104110002061026170BD144612692AB11946166801
:104120003344002CEAD170BD0168C91A01602061D6
:10413000056170BD8400002010B5134C2078002864
:1041400002D1606800281ED0FFF7CCFE61680A68C3
:10415000824202D20020086007E0101A086004E0E2
:1041600001696160C06800B18047606810B1016892
:104170000029F5D06168002905D001210172BDE850
:10418000104000F021B810BD840000200A494868A2
:10419000002808D0007A012805D14878052803D2E4
:1041A0004878401C4870704700204870087808B173
:1041B000FDF74ABEFFF7B1BE840000200149087038
:1041C0007047000084000020054900224A700978E9
:1041D0000068002901D0FDF7BBBFFFF72FBF00002B
:1041E0008400002070B505460C46284600F042F8D1
:1041F0000648007810B1FDF7CDFE01E0FFF7AEFEF6
:10420000844200D204462C606C6070BD84000020A3
:1042100070B5044672B6002C03D02046FFF74EFE60
:1042200008B162B670BD6168216000202072104D37
:10423000686850B1017A01290BD001682068884272
:1042400010D22046FFF736FF0FE02046FFF732FF7F
:104250000BE0FFF747FE69680968814200D2084613
:10426000091AEBE72046FFF739FF62B670BD000080
:104270008400002070B5044672B6214D6968084676
:1042800000290ED06CB1A14225D1087A0026012860
:1042900009D00869E8B121686860026811440160CA
:1042A0002BE062B670BDFFF71DFE2168814200D28F
:1042B00008460A1A6968086948B10E7268600168A0
:1042C0001144016001210172FFF77EFF15E06E606D
:1042D00013E06E6011E022680DE0A14209D1096986
:1042E00021B1016108681044086006E00021016105
:1042F00003E0084609690029EFD162B670BD0000ED
:10430000840000202DE9F041234C40F2277631460D
:10431000204600F045F8214D70B105F11C0007461C
:10432000FDF792F818B300223146204600F058F805
:10433000696B09B10020884740F22531204600F022
:104340002FF810B1204600F066F840F225512046C3
:1043500000F026F800281DD0204600F05CF8C4B21A
:104360000E4828300646FDF777F840B10BE0384696
:10437000FCF776FD0146204600F051F8D8E72146CB
:104380003046FCF77CFD696B002903D0BDE8F041A5
:1043900001200847BDE8F081003801404C010020B1
:1043A00070B5002440F66A12C1F3421301F01F05F4
:1043B000012606FA05F2012B0CD0022B0DD0838AC0
:1043C0001340090A8E40008830400BB100B101242F
:1043D000204670BD83891340F3E7038A1340F0E75A
:1043E00010B540F66A13C1F3421301F01F04012116
:1043F000A140012B07D0022B07D014303AB102683C
:104400000A43026010BD0C30F8E71030F6E702688E
:104410008A43026010BD8088C0F308007047C1F372
:10442000080181807047FEE71CB501210220FDF7DD
:10443000D3F94FF44070009003208DF8050001205F
:104440008DF80400084C69462046FCF741FD6115D3
:104450002046FCF793FDA1152046FCF78FFDFCF7E5
:1044600086FBFCF784FB1CBD0004024002E008C888
:10447000121F08C1002AFAD170477047002001E0DE
:1044800001C1121F002AFBD1704700002DE9F04145
:10449000C1F30A52A2F2FF362F4A304B0D460446B2
:1044A000142E2FDA002E12DAFBF77AFE00221346C2
:1044B000FCF7A8F84CD2002DBCBF4FF000450024FB
:1044C00046DB55EA040018BF254D19D140E0DFF85E
:1044D00094C02CFA06F705EA070C5CEA040C08BF46
:1044E000BDE8F081FBF75CFE00221346FCF78AF87A
:1044F0002ED2002D03DD4FF48010F0400544BD4363
:10450000002425E0332EC8BFBDE8F081A6F1140CCD
:104510004FF0FF3727FA0CF73C4208BFBDE8F081A7
:10452000FBF7E2FE00221346FCF76CF810D2002DD8
:104530000DDD142E08BF6D1C09D0C6F13400012119
:1045400001FA00F02044A04238BF6D1C0446BC4371
:1045500029462046BDE8F0819C7500883CE4377E02
:104560000000F03FFFFF0F002DE9F041C1F30A52B8
:10457000A2F2FF362F4A304B0D460446142E2FDA96
:10458000002E12DAFBF70CFE00221346FCF73AF875
:104590004CD2002DA4BF0024254647DA25F0004068
:1045A000204318BF254D41D018E0DFF894C02CFA05
:1045B00006F705EA070C5CEA040C08BFBDE8F081C9
:1045C000FBF7EEFD00221346FCF71CF82ED2002D5F
:1045D00003DA4FF48010F0400544BD43002425E089
:1045E000332EC8BFBDE8F081A6F1140C4FF0FF37A1
:1045F00027FA0CF73C4208BFBDE8F081FBF774FED8
:1046000000221346FBF7FEFF10D2002D0DDA142E08
:1046100008BF6D1C09D0C6F13400012101FA00F079
:104620002044A04238BF6D1C0446BC4329462046A6
:10463000BDE8F0819C7500883CE4377E0000F0BF47
:10464000FFFF0F00F0B4034600201E460C4CB3FBE6
:10465000F2F502FB1535675D0546401C4F55B3FB6F
:10466000F2F3002BF3D1002E03DA2D230246401C77
:104670008B5400220A54F0BC084600F095B90000A3
:10468000950000208AB00124FCF7D4F9FCF70EFA5B
:10469000FCF7A2FD0120FCF793FDFCF761FFFCF79E
:1046A0006BFF8A4888490160894981608949416076
:1046B0008949C16089490161894D29688847E9684C
:1046C000884888470027884805970697CDE90770EE
:1046D00001264FF00808CDE90168CDE903760B20EB
:1046E00000900223D5F81CC03A4614213046E0471A
:1046F000CDE90876CDE90476052006970797CDE940
:104700000207CDE9007801230B22AE690221184689
:10471000B047696B75488847DFF8B081744E4FF039
:104720004D0B4FF04F094FF04E0AA8F1400830787A
:10473000062861D2DFE800F0C40399998CC094B3D5
:10474000B088002857D0614807226A494038FBF7F3
:1047500018FD60B167495D48072208394038FBF70A
:1047600010FD80B30124696B6048884743E06248CC
:10477000FCF707FD80F001015F48FCF718FD88F8A1
:1047800000B088F8019088F802A088F803904B20C8
:1047900088F8040088F8059088F806A0FCF7ECFE7D
:1047A0000720B28804E018E0C11F08F80010401C80
:1047B0009042F9D30120FCF7DFF94448AA6A317925
:1047C0004038904717E0FFE7002401214B48FCF7F1
:1047D000EEFC696B454888470DE0B08858B1454903
:1047E0003A48072208394038FBF7CBFC28B10124AE
:1047F000696B3E488847377062E03F48FCF7C1FC70
:1048000080F001013C48FCF7D2FC88F800B088F841
:10481000019088F802A088F803904B2088F80400E3
:1048200088F8059088F806A0FCF7A6FE0720B28855
:1048300003E0C11F08F80010401C9042F9D301208A
:10484000FCF79AF92148AA6A317940389047D2E7B3
:104850002A48FCF796FC80F001012848FCF7A7FCE9
:10486000696B2248884737702AE004B388F800B0A3
:1048700088F8019088F802A088F803904B2088F807
:10488000040088F8059088F806A00720B28803E0A5
:10489000C11F08F80010401C9042F9D30120FCF71A
:1048A0006BF90A48AA6A31794038904702E0696B8F
:1048B0000E488847377003E0696B0C4888473770AB
:1048C000FFF764FC33E70000F1160008FC0000204D
:1048D0008916000809170008D9160008C116000833
:1048E000104A000800A1BC33C0C62D0040420F0092
:1048F00000000020EE4900083001002024010020C3
:1049000003E011F8013B00F8013B521E92B2F8D2CD
:10491000704700002DE9F04D07460E46FBF718FFE3
:1049200004460D463A463346FBF7DEFCDFF86CA042
:10493000DFF86CB01B4B0746884616F0004F4FF06F
:1049400000020AD0FBF746FE0AD900225B46384631
:104950004146FBF757FE1BD212E0FBF73BFE08D2A5
:104960000022534620462946FBF7BBFC04460D4671
:104970000EE000225B4638464146FBF743FE07D86F
:104980000022534620462946FBF70AFC04460D4602
:104990003146204665F31E01BDE8F08D0000F03F72
:1049A0000000E03F0000E0BF70B50546002D08D0D4
:1049B000287830B12846FBF7DDFB2C460119491E4B
:1049C0000DE0284670BD22780878424022700B78AE
:1049D000534001F801392078584004F8010BA142F6
:1049E000F1D8284670BD4D4F4E4F4B4F4E004D4FA6
:1049F0004E4F4B4F4E001F1C1F1E1F1E1F1F1E1F02
:104A00001E1F1F1D1F1E1F1E1F1F1E1F1E1F0000FB
:104A1000A526000885240008C93000084930000890
:104A20008D280008E52D00084D3300087536000874
:104A30007D24000891240008E92E0008793500083B
:104A4000A13500088D31000841390008872E000883
:104A500081390008232E00088D390008352E000802
:104A60008D300008000C23000D1E000ED2001FAA7E
:104A70000024070027120028C1002994002AC10041
:104A800030D800358F003B0200400000413001313A
:104A900043012340280A0000170000001C0C0000FE
:104AA0000F0000003C0F0000070000005014000041
:104AB000160000009C1800000E000000781E000088
:104AC00006000000A028000015000000D4300000FF
:104AD0000D000000F03C0000050000004051000007
:104AE00014000000A86100000C000000447A0000DF
:104AF00004000000E4A200001300000050C3000006
:104B00000B00000024F400000300000085450100B4
:104B100012000000A08601000A00000048E8010021
:104B2000020000002C8B020011000000400D030069
:104B30000900000090D0030001000000E093040091
:104B400000000000644B000800000020BC000000D2
:104B50006C440008204C0008BC0000205C070000EA
:104B60007C4400080000000040000000000000003D
:104B70000000000000000000000000000000000035
:104B80000000000000000000000000000100000024
:104B90000000000000000000000000000000000015
:104BA000000000000048E801030406080C1018206B
:104BB00030000000000000000001020304060708A6
:104BC000090000000100000000000000C5280008E6
:104BD000112B0008E92B0008D52C0008352D000802
:104BE00000000000000000000100000000000000C4
:104BF0000000000000000000003031323334353650
:104C00003738396162636465666768696A6B6C6DC1
:104C10006E6F707172737475767778797A000000B0
:04000005080000F5FA
:00000001FF
