:020000040800F2
:10000000600A0020090100084328000813010008C5
:1000100041280008EB0C0008515C000800000000BB
:100020000000000000000000000000001B010008AC
:10003000090D0008000000001F0100082101000850
:100040002301000823010008230100082301000800
:100050002301000823010008290D0008050E0008EF
:10006000350E0008650E0008950E000823010008F3
:1000700023010008230100082301000823010008D0
:1000800023010008230100082301000823010008C0
:10009000230100082301000823010008C50E000801
:1000A00023010008230100082301000823010008A0
:1000B00019520008555200082301000823010008C6
:1000C0002301000823010008230100082301000880
:1000D000230100086D5700082301000823010008D0
:1000E000590D0008512C00082301000823010008C5
:1000F00023010008DFF80CD000F066FB0048004741
:10010000295E0008600A002006488047064800472C
:10011000FEE7FEE7FEE7FEE7FEE7FEE7FEE7FEE7B7
:10012000FEE7FEE7C5510008F500000840EA0103BC
:100130009B0703D009E008C9121F08C0042AFAD29D
:1001400003E011F8013B00F8013B521EF9D2704761
:10015000D2B201E000F8012B491EFBD27047002209
:10016000F6E710B513460A4604461946FFF7F0FFB6
:10017000204610BD30B505460020034600E05B1C5C
:10018000934205D2EC5CC85C201A01D1002CF6D158
:1001900030BD2DE9FE4F804681EA0300C00F0C46BA
:1001A000009021F0004123F00045B8EB0200A94186
:1001B00005D24046214690461C460B46024623F097
:1001C0000040104347D0270DC7F30A00C3F30A517C
:1001D0000290401A019040286BDAC3F3130040F4F8
:1001E000801B0098924620B10023D2EB030A63EBF8
:1001F0000B0B01985946C0F14002504600F012FA2C
:1002000006460D4650465946019A00F02AFA10EB70
:1002100008006141002487EA115284EAE7731A4317
:1002200040D0009A62B3019A012A4FEA075215DCC6
:10023000001B61EB02014FF0004202EA0752CDE9D8
:100240000042001C41F5801132462B4600F02AFA8C
:1002500003B0BDE8F08F40462146F9E7001B61EB93
:100260000201001C41F5801300185B412018A2F523
:10027000001747EB030140EAD570B6196D4111E054
:100280006D084FEA360645EAC0754FEA0752001B73
:1002900061EB0201001C41F5801149084FEA300072
:1002A0000019514132462B4603B0BDE8F04F00F033
:1002B000EAB90098012240000023D0EB020263EB70
:1002C000E073009821464FEAE074B8EB000061EB60
:1002D0000401E9E783F000435BE781F0004158E760
:1002E0002DE9FE4F81EA030404F0004421F00041AF
:1002F00000944FF0000B23F0004350EA01045ED05D
:1003000052EA03045BD0C3F30A54C1F30A552C44E8
:10031000A4F2F3340194A0FB0254C1F3130141F49D
:100320008011C3F3130343F4801301FB024400FB69
:10033000034E840A970A44EA815447EA8357A4FB90
:10034000076802958D0A05FB07854FEA932C04FB8D
:100350000C542705029D4FEA065847EA1637B5EBBD
:1003600008056EEB070C870E920E47EA811742EAEA
:100370008312A7FB0201B6EB0B0164EB00042B0D0B
:1003800043EA0C335E1844EB1C50DA465146E7FB57
:100390000201C5F313044FEA0B3343EA14534FEA47
:1003A0000432019C43EA0603A4F10C040294009C6D
:1003B000CDE900B400F076F903B0BDE8F08F00207D
:1003C0000146F9E72DE9F04D81EA030404F0004B02
:1003D00021F0004514464FF0000A23F0004150EA96
:1003E000050220D054EA01021DD0C5F30A57024687
:1003F000C5F31303C1F31300C1F30A5640F480158B
:1004000043F48013A7EB0608101BD64608F2FD380C
:1004100073EB050002D308F1010801E092185B417B
:10042000B8F1000F03DA00200146BDE8F08D00208E
:100430004FF48011064684460EE0171B73EB050748
:1004400005D3121B63EB050306434CEA010C490874
:100450004FEA300092185B4150EA0107EDD152EAB1
:10046000030012D082EA040083EA0501084305D0A4
:10047000101BAB4106D20122002306E000224FF000
:10048000004302E06FF0010253101AEB06004CEB40
:10049000085110EB0A0041EB0B01BDE8F04D00F0F4
:1004A000F2B870B521F0004303430CD0C1F30A55F4
:1004B0000024D5EB040564EB0403D617AD1AB34151
:1004C00002DB0020014670BD201841EB025170BDD7
:1004D0000EB5C10F80EAE0700844CA07002140F25F
:1004E00033438DE80E000A460B4600F0DBF803B0FC
:1004F00000BD0EB540F2334102910021CDE900115B
:100500000A460B4600F0CEF803B000BD0EB540F22F
:10051000334202920022CDE90022134600F0C2F8D5
:1005200003B000BD70B5C1F30A5201F000450024CC
:10053000C1F3130140F2FF3341F480119A4201DA12
:10054000002070BD40F233439A42A2F2334203DCF2
:10055000524200F076F800E090402C43F1D0404247
:1005600070BDC1F30A5210B5C1F3130140F2FF335D
:1005700041F480119A4201DA002010BD40F2334369
:100580009A42A2F2334203DC524200F05AF810BD04
:10059000904010BDC1F30A52C1F3130140F2FF3382
:1005A00041F480119A4202DA00200146704740F27D
:1005B00033439A42A2F2334202DC524200F041B885
:1005C00000F030B830B5041E71F1000404DB4FF0C8
:1005D0000044404264EB0101141E73F1000405DB8A
:1005E0001C464FF00043524263EB04038B4208BFAA
:1005F000824230BD30B5041E71F1000404DB4FF0BF
:100600000044404264EB0101141E73F1000405DB59
:100610001C464FF00043524263EB0403994208BF6B
:10062000904230BD202A04DB203A00FA02F100207B
:1006300070479140C2F1200320FA03F31943904020
:100640007047202A04DB203A21FA02F0002170478B
:1006500021FA02F3D040C2F120029140084319462A
:100660007047202A06DBCB17203A41FA02F043EA12
:10067000E07306E041FA02F3D040C2F1200291405B
:1006800008431946704710B5141E73F1000408DAC8
:10069000401C41F1000192185B411A4301D120F046
:1006A000010010BD2DE9F04D92469B4611B1B1FA03
:1006B00081F202E0B0FA80F220329046FFF7B2FFFA
:1006C00004460F4640EA0A0041EA0B0153465A46E7
:1006D000084313D0114653EA010019D0C8F1400273
:1006E0005046FFF7AEFF05460E4650465946424675
:1006F000FFF798FF084305D0012004E02046394663
:10070000BDE8F08D0020054346EAE0762C433743F0
:100710000A986305E40AA0EB08000022FD0A44EAF7
:1007200047540A3002D500200146E9E701051019B7
:100730006941DDE9084500196941BDE8F04DA2E7CE
:100740002DE9F041054621F000400C46284309D030
:10075000C4F30A5040F23341884205DD2846214661
:10076000BDE8F0812846FBE740F2FE31884210DC0C
:100770000CDB4FEA043040EA155050EA053105D051
:10078000104804F0004101430020E9E70020014641
:10079000E6E7A0F233404642C6F140022846214631
:1007A000FFF740FF07468846284621463246FFF7B6
:1007B00048FF43463A46FFF766FF3246BDE8F04140
:1007C000FFF730BF0000F03F064C074D06E0E06841
:1007D00040F0010394E8070098471034AC42F6D388
:1007E000FFF78CFCA8620008C8620008034A116881
:1007F00021F440310068084310607047042701402D
:1008000010B5074988420AD144150121204602F05B
:1008100019F92046BDE81040002102F013B910BDBF
:1008200000240140826822F0F0020A43826070478F
:1008300030B542680F4B1A400C790B6842EA04222B
:100840001343436083680C4A1340D1E903422243B7
:100850004D798C6844EA450422431A438260026B56
:1008600022F0F872097D491EC9B242EA01510163C2
:1008700030BD0000FFFEFFFCFDF7FFC0002101605E
:100880000171417181604FF04072C26001610121CC
:100890000175704738B50446084A1378002B0BD110
:1008A00001231370204600F077F800210B460A461A
:1008B0002046009100F004F838BD0000B800002088
:1008C0002DE9F04188B00C460E9F16461D460120CA
:1008D00002F04CF9212002F023F90028FAD04FF45D
:1008E00000780121404602F09FF84FF40030079055
:1008F00007A8FFF77BFF01A8FFF7C0FF002134B175
:10090000012C06D0022C08D0032C0AD00CE0019157
:100910000AE04FF08070019006E04FF00070019007
:1009200002E04FF0407001908DF80810012316B3DB
:100930008DF8093015B3012D22D0022D24D04FF0AF
:100940004050039027B34FF4006005908DF81830A5
:10095000104C01A92046FFF76BFF10212046FFF73E
:1009600061FF0021404602F05FF8002002F0FEF82F
:1009700008B0BDE8F0818DF80910DBE70391E1E7ED
:100980004FF080500390DDE74FF000500390D9E71F
:100990000591DBE7002401407CB504460D4607487D
:1009A0002060FFF72DFF00200090034601900322F6
:1009B0002946201D00F0AAFB7CBD00000024014058
:1009C00010B50446002C01D002F0B0FC0148847040
:1009D00010BD00001000002070B586B0174801F06F
:1009E000D9FA174804F0AAFA03F020F800250124E8
:1009F000CDE900542B460322602103A800F086FBBA
:100A0000CDE9005400230322612103A800F07EFBFE
:100A10000226CDE9006400231A462E2103A800F027
:100A200075FBCDE9006400231A462F2103A800F0CE
:100A30006DFB0448057006B070BD00000C0200207C
:100A40002C0500200600002038B51C4C207800281A
:100A500032D14FF4407001F029FF4FF0E0200169DE
:100A600021F0020101611648016841F00071016046
:100A700019221821134801F095FA12480321103861
:100A8000FFF708FF4FF0FF300090052306220721F3
:100A90000D4804F01BFB03F00DF8002004F0C2FD2C
:100AA00000F0BAF804F04CFC10B102F031FC01E0A7
:100AB00004F092FC0120207038BD000006000020E8
:100AC00004ED00E00C0200202C0500207CB5002481
:100AD00001252346224670214E48CDE9004500F00D
:100AE00015FB4C4800231A4671210C30CDE9004516
:100AF00000F00CFB47480023012272211830CDE999
:100B0000004500F003FB434800231A4673212430BC
:100B1000CDE9004500F0FAFA3E4800231A46742158
:100B20003030CDE9004500F0F1FA3A4800231A468A
:100B300075213C30CDE9004500F0E8FA3548002346
:100B40001A4676214830CDE9004500F0DFFA3148F9
:100B500000231A4677215430CDE9004500F0D6FA3B
:100B60002C4800231A4678216030CDE9004500F07A
:100B7000CDFA284800231A4679216C30CDE900458A
:100B800000F0C4FA234800231A467A217830CDE9D0
:100B9000004500F0BBFA1F48002301227B2184306E
:100BA000CDE9004500F0B2FA1A4800940023012272
:100BB0007C219030019400F0A9FA1648009400239B
:100BC00001227D219C30019400F0A0FA114800948C
:100BD000002301227E21A830019400F097FA01F051
:100BE000A5FD01F04BFD01F0F1FC04F0D5F800F09B
:100BF000CDFD08480121903000F02CFC0548012172
:100C00009C3000F027FCBDE87C4002480121A83060
:100C100000F020BC4801002010B586B000240094EC
:100C2000234603221D2103A8019400F06FFA0094CB
:100C3000002303221F2103A8019400F067FA009407
:100C4000002303221C2103A8019400F05FFA009402
:100C500000230322012103A8019400F057FA009415
:100C6000002303220B2103A8019400F04FFA009403
:100C7000002303220C2103A8019400F047FA0094FA
:100C800000230322122103A8019400F03FFA0094EC
:100C9000002303221E2103A8019400F037FA032247
:100CA00000940023114603A8019400F02FFA009449
:100CB00000230322162103A8019400F027FA002341
:100CC00000940322194603A8019400F01FFA0121A1
:100CD000084600F00BF80121022000F007F801217E
:100CE000042000F003F806B010BDFEE7054A002915
:100CF00003D051680143516070475168814351608E
:100D000070470000002004E0704710B5044604F06E
:100D100017FB20B12046BDE8104002F005BA20467E
:100D2000BDE8104004F020BB10B504F009FB08B189
:100D300002F0FCFA012000F00FF9002808D0054865
:100D4000006800B18047BDE81040012000F0FEB807
:100D500010BD00006C02002070B504F0F1FA08B17B
:100D600002F0E4FA4FF48065284600F0F5F8244CD0
:100D700028B1A06A00B18047284600F0E7F84FF498
:100D80000065284600F0E8F828B1E06A00B1804725
:100D9000284600F0DBF84FF48055284600F0DCF8D8
:100DA00028B1206B00B18047284600F0CFF84FF4FF
:100DB0000055284600F0D0F828B1606B00B180479C
:100DC000284600F0C3F84FF48045284600F0C4F8E8
:100DD00028B1A06B00B18047284600F0B7F84FF467
:100DE0000045284600F0B8F8002807D0E06B00B1B5
:100DF00080472846BDE8704000F0A8B870BD0000EC
:100E00006C02002010B504F09BFA08B102F08EFAD3
:100E1000022000F0A1F8002808D00548406800B181
:100E20008047BDE81040022000F090B810BD0000DF
:100E30006C02002010B504F083FA08B102F076FAD3
:100E4000042000F089F8002808D00548806800B127
:100E50008047BDE81040042000F078B810BD0000C5
:100E60006C02002010B504F06BFA08B102F05EFAD3
:100E7000082000F071F8002808D00548C06800B1CB
:100E80008047BDE81040082000F060B810BD0000A9
:100E90006C02002010B504F053FA08B102F046FAD3
:100EA000102000F059F8002808D00548006900B16A
:100EB0008047BDE81040102000F048B810BD000089
:100EC0006C02002070B504F03BFA08B102F02EFA73
:100ED000202000F041F81C4C28B1606900B1804727
:100EE000202000F033F8402000F036F828B1A06947
:100EF00000B18047402000F029F8802000F02CF855
:100F000028B1E06900B18047802000F01FF84FF45D
:100F10008075284600F020F828B1206A00B180478B
:100F2000284600F013F84FF40075284600F014F836
:100F3000002807D0606A00B180472846BDE87040AD
:100F400000F004B870BD00006C0200200149086088
:100F5000704700001404014001460020024A126854
:100F60000A4200D0012070471404014030B51B4AEA
:100F700083790168002B2AD013688B431360111DFD
:100F80000B680468A3430B60017911440B68046883
:100F900023430B60114C0834216803689943216096
:100FA000231D19680568A94319604179102905D0E6
:100FB00011440A68006802430A6030BD2168026873
:100FC00011432160196800680143196030BD007940
:100FD000104402688A43026030BD000000040140F2
:100FE0000023038043804160028170470089491CCF
:100FF000B1FBF0F200FB121080B2704770B50446EE
:1010000020462188FFF7F2FF61680D5C21882046A9
:10101000FFF7ECFF2080284670BD70B504460D46F2
:1010200061882046FFF7E2FF608061680D5470BD63
:101030002DE9F041002201274FF0030C07FA02F5D9
:101040000B682B40AB422BD1066853000CFA03F41B
:10105000A64306600E79D0F800809E4046EA080656
:1010600006600E79012E01D0022E11D18668A643AA
:1010700086604E79D0F808809E4046EA0806866071
:101080008688AE43868086888D7995402E438680FB
:10109000C568A543C560CC799C40C3681C43C46047
:1010A000521C102ACAD3BDE8F08110B54B07DB0EE5
:1010B0009A40C90800EB8100016A0F249C40A143BB
:1010C0000162016A1143016210BD02460020128ACA
:1010D0000A4200D001207047418370470183704766
:1010E0000021094A52F83130834208D84B1C52F88B
:1010F0003330834203D902EBC10000797047491CA9
:10110000C9B21529EED3FEE7EC6100087CB5DDE934
:1011100006450626B6EB211F04D3CDE9004500F0B5
:10112000A3F87CBDCDE9004500F001F87CBDF8B521
:101130000446079E0D4617460020009003F0D8FD98
:101140002570E81705EB107020F00F00291A012018
:10115000884080B26080072903DD0E25000A608088
:1011600002E00F25C0B260806946284603F0D2FD38
:10117000012F15D0A0789DF80010084300909DF82D
:101180000010284603F0F2FD94F90000C11700EBAF
:10119000117121F00F01401A072807DD102506E024
:1011A000A1789DF8000088430090E8E71125694682
:1011B000284603F0AFFD56B1A0789DF80010084313
:1011C00000909DF80010284603F0D0FDF8BDA178EE
:1011D0009DF8000088430090F3E738B504460020EE
:1011E000009094F90000C11700EB117121F00F017C
:1011F000401A072801DD102000E01120694603F0A5
:1012000089FD60889DF80010084201D1002038BD9A
:10121000012038BD7047F8B504460E460020009006
:1012200094F90020D01702EB107020F00F00101A74
:10123000072801DD102500E011256946284603F046
:1012400069FD56B1A0789DF80010084300909DF804
:101250000010284603F08AFDF8BDA1789DF8000033
:1012600088430090F3E700002DE9FC410446DDE9E6
:10127000087815461E46481C32D0C1F30F10208155
:10128000217001F00F03012101FA03F262800628A8
:1012900008D2144A02EB8022626001FA00F001F0E9
:1012A00099FB08E007D1104860604FF020004FF034
:1012B000010101F08FFB012D03D14146204600F0D2
:1012C0009FF88DF804508DF806608DF807700320A4
:1012D0008DF805006088009069466068FFF7A8FEF9
:1012E000BDE8FC810000024000140240002807D045
:1012F00090F90010491C04D041884068FFF7E5BE12
:10130000FEE70020704700002DE9FE4F04460F461F
:101310001546002B6FD02078384900F00F0041F8B7
:1013200020300121084601F07FFB207800F00F01FA
:10133000207A03F089FD207800F00F01012000FAE7
:1013400001F8CDF8008000268DF804604FF0080900
:101350004FF00C0A012F04D0022F05D0032F06D026
:10136000FEE78DF8059005E08DF805A002E010215C
:101370008DF8051080468DF806006846FFF7F6FDEB
:10138000207800F00F00052803D2801D8DF808009A
:1013900008E00A2803D217208DF8080002E0282070
:1013A0008DF8080045B1012D0CD0022D0FD0032D72
:1013B00012D0042D16D0FEE70F208DF809008DF80D
:1013C0000A6013E08DF809A08DF80A600EE08DF830
:1013D00009908DF80A6009E004208DF809008DF865
:1013E0000A6003E08DF809608DF80A608DF80B80C3
:1013F00002A801F027FABDE8FE8F00006C02002071
:1014000000280AD0426842B190F900305B1C09D034
:1014100021B141881046FFF761BEFEE741881046C2
:10142000FFF75ABE704790F900100622B2EB211F59
:1014300001D3FFF75BBFFFF7D0BE30B490F9004097
:101440000625B5EB241F02D330BCFFF75DBF30BCCF
:10145000FFF7E0BE90F900200623B3EB221F01D373
:10146000FFF7CEBFFFF7D7BE2DE9FC5F0020904A03
:101470001118CB7C03F00F03CB74401C0A28F7DB58
:101480008B48007DFFF735F8044689480D46C07C3F
:10149000FFF72FF8DFF81C8200224346FEF720FFFB
:1014A00022462B46FEF775FE04460D468048807D99
:1014B000FFF71FF806467E480F46407DFFF719F8F4
:1014C00000224346FEF70CFF32463B46FEF761FE24
:1014D00006460F467648C07EFFF70BF882467448F2
:1014E0008B46807EFFF705F800224346FEF7F8FEA4
:1014F000CDE900016E48407EFEF7FBFF00226E4BF7
:10150000FEF7EEFE80466A488946007EFEF7F1FF50
:1015100000226A4BFEF7E4FE42464B46FEF739FED8
:10152000DDE90023FEF735FE52465B46FEF731FE4D
:1015300080468946624A634B40464946FEF7D0FEE4
:1015400032463B46FEF725FE00225F4BFEF73AFF90
:1015500022462B46FEF71DFE5C4AC2E90401544AAE
:10156000527F532A04D1594A81F00041C2E9040153
:1015700000204F4A1118CB7F03F00F03CB77401C9C
:101580000A28F7DB4A4890F82100FEF7B2FF04462C
:1015900047480D4690F82000FEF7ABFF0022454B70
:1015A000FEF79EFE064642480F46C07FFEF7A1FFAB
:1015B000DFF8048100224346FEF792FE32463B46A6
:1015C000FEF7E7FD22462B46FEF7E3FD04460D46F7
:1015D000374890F82300FEF78CFF064634480F4644
:1015E00090F82200FEF785FF0022324BFEF778FECE
:1015F00032463B46FEF7CDFD06460F462C4890F896
:101600002600FEF776FF00224346FEF769FE80467D
:101610002748894690F82500FEF76BFF0022274BEC
:10162000FEF75EFE42464B46FEF7B3FD8046894616
:101630001F4890F82800FEF75CFF82461C488B4646
:1016400090F82700FEF755FF00221A4BFEF748FEE0
:1016500052465B46FEF79DFD42464B46FEF799FD1E
:10166000174A184BFEF73CFEDFF85CA000225346F9
:10167000FEF7A8FE8046894600225346304639468A
:10168000FEF7A0FE22462B46FEF783FD42464B4660
:10169000FEF77FFD0D4AC2E90601054B93F82A309B
:1016A000572B03D181F00041C2E90601BDE8FC9F40
:1016B000FC050020000024400000594000408F40FD
:1016C0002D431CEBE2361A3F00004E40C0000020C4
:1016D0002DE9F041DFF89480254D264F264C4FF040
:1016E00040460022D4E904011346FEF783FF0DD8DB
:1016F000D4E9040132463B46FEF7F2FD00224346A0
:10170000FEF760FEFEF70EFF60600BE0D4E9040117
:101710001722FEF7C6FE00224346FEF753FEFEF7F1
:1017200001FF6060D4E9060100221346FEF762FF64
:101730000ED8D4E9060132463B46FEF7D1FD002221
:101740002B46FEF73FFEFEF7EDFEA060BDE8F08100
:10175000D4E906011722FEF7A4FE00222B46FEF76D
:1017600031FEFEF7DFFEA060F0E70000008056408B
:1017700000806640FFFF5F41C000002010B5FFF70A
:1017800073FEBDE81040FFF7A3BF00000249002030
:10179000087000F003B80000C00000201CB510481D
:1017A0000024047080220F490F48FFF719FC0E49EE
:1017B0000E482839486300210D48FFF74BFE0023EF
:1017C00000941A4608210B480194FFF79FFC02B0D1
:1017D0000022BDE81040084B02210648FFF72DBE4D
:1017E00007000020AC0200205C020020FD1700086A
:1017F00060010020280200205518000838B5012893
:1018000021D16946104804F014F900281BD19DF835
:10181000000000240D4B242802D01978802900D321
:101820001C701A78511CC9B21970094B98540A28B7
:1018300009D15C54184600F073F8034804F0F1F83D
:101840000020FFF7BDF838BD34020020070000205B
:101850002C0300201FB50024039403A800F0A8FA6D
:101860009DF80C0000280FD00A2309220021074808
:1018700004F0E6F80094019400234FF4165201217D
:101880000248029404F0BCF81FBD0000340200209E
:1018900070B50346164600240025621E002B02D0B8
:1018A0000EB1012901DC104670BD1878242808D13A
:1018B000012406E06840C5B2641C8C4201DB10467E
:1018C00070BD18572A28F5D1280900F0F9FF3070AB
:1018D00005F00F0000F0F4FF7070601C70BD38B5AB
:1018E00004460D466A4629462046FFF7D1FF0028E8
:1018F00001DA002038BDAD1EA84201DB002038BD52
:1019000021569DF90020914208D120449DF90110F3
:1019100090F90100884201D1012038BD002038BD76
:101920002DE9F0410546012400262878242802D01C
:101930000020BDE8F0812846FFF7D1FF28B900203C
:10194000F7E7062E01D90020F3E730462044761C45
:10195000285CF6B22C28F4D10020F94F05E0295D6F
:101960003954401CC0B2641CE4B2B042F7D3052223
:10197000F449F348FEF7FEFB48B1F2490522891D00
:10198000EF48FEF7F7FB002870D00020D1E70020D9
:1019900003E00B2801D90020CBE701462144401C7D
:1019A000695CC0B22C29F4D1002106E07B182A5DC5
:1019B0009A71491CC9B2641CE4B28142F6D300207A
:1019C00003E00A2801D90020B3E701462144401C66
:1019D000695CC0B22C29F4D1002106E07B182A5D95
:1019E000DA74491CC9B2641CE4B28142F6D3002007
:1019F00003E0022801D900209BE701462144401C56
:101A0000695CC0B22C29F4D1002106E07B182A5D64
:101A10005A77491CC9B2641CE4B28142F6D3002053
:101A200003E00B2801D9002083E701462144401C34
:101A3000695CC0B22C29F4D1002106E07B182A5D34
:101A4000DA77491CC9B2641CE4B28142F6D30020A3
:101A500003E0022801D900206BE701462144401C25
:101A6000695CC0B22C29F4D1002108E0BCE07B18ED
:101A70002A5D83F82A20491CC9B2641CE4B2814261
:101A8000F5D3002003E0022801D9002051E70146E8
:101A90002144401C695CC0B22C29F4D1002107E02C
:101AA0007B182A5D83F82C20491CC9B2641CE4B25F
:101AB0008142F5D3002003E0032801D9002038E754
:101AC00001462144401C695CC0B22C29F4D100219C
:101AD00007E07B182A5D83F82E20491CC9B2641CDC
:101AE000E4B28142F5D3002003E0062801D90020AA
:101AF0001FE701462144401C695CC0B22C29F4D187
:101B0000002107E07B182A5D83F83120491CC9B207
:101B1000641CE4B28142F5D3002003E0082801D917
:101B2000002006E701462144401C695CC0B22C2914
:101B3000F4D1002107E07B182A5D83F83720491C87
:101B4000C9B2641CE4B28142F5D3002003E002284C
:101B500001D90020EDE601462144401C695CC0B279
:101B60002C29F4D1002107E07B182A5D83F83F205F
:101B7000491CC9B2641CE4B28142F5D3002003E0E1
:101B8000082801D90020D4E601462144401C695CA4
:101B9000C0B22C29F4D1002107E07B182A5D83F81C
:101BA0004120491CC9B2641CE4B28142F5D3002033
:101BB00003E0022801D90020BBE601462144401C75
:101BC000695CC0B22C29F4D1002107E07B182A5DA2
:101BD00083F84920491CC9B2641CE4B28142F5D3A0
:101BE000FFF7CCFD0120A4E6002003E00B2801D97B
:101BF00000209EE601462144401C695CC0B22C29AD
:101C0000F4D1002106E07B182A5D9A71491CC9B203
:101C1000641CE4B28142F6D3002003E0022801D91B
:101C2000002086E601462144401C695CC0B22C2994
:101C3000F4D1002106E07B182A5D5A74491CC9B210
:101C4000641CE4B28142F6D3002003E00A2801D9E3
:101C500000206EE601462144401C695CC0B22C297C
:101C6000F4D1002106E07B182A5DDA74491CC9B260
:101C7000641CE4B28142F6D3002003E0022801D9BB
:101C8000002056E601462144401C695CC0B22C2964
:101C9000F4D1002106E07B182A5D5A77491CC9B2AD
:101CA000641CE4B28142F6D3002003E00B2801D982
:101CB00000203EE601462144401C695CC0B22C294C
:101CC000F4D1002106E07B182A5DDA77491CC9B2FD
:101CD000641CE4B28142F6D3002003E0022801D95B
:101CE000002026E601462144401C695CC0B22C2934
:101CF000F4D1002107E07B182A5D83F82A20491CD3
:101D0000C9B2641CE4B28142F5D3002003E0082884
:101D100001D900200DE601462144401C695CC0B297
:101D20002C29F4D1002107E07B182A5D83F84B2091
:101D3000491CC9B2641CE4B28142F5D3002007E01B
:101D4000FC0500209C620008082801D90020F0E56D
:101D500001462144401C695CC0B22C29F4D1002109
:101D600007E07B182A5D83F85320491CC9B2641C24
:101D7000E4B28142F5D3002003E0082801D9002015
:101D8000D7E501462144401C695CC0B22C29F4D13E
:101D9000002107E07B182A5D83F85B20491CC9B24B
:101DA000641CE4B28142F5D3FFF7E8FC0120C0E5F2
:101DB00070B50446074A01251570D168491CD160E9
:101DC000002020700A2904D3D0600120FEF7F8FD1E
:101DD000257070BDC0000020002904D0018841F4A6
:101DE000806101807047018821F480610180704723
:101DF000034600209A8A1B8B1B041A4322F07F4261
:101E0000914300D101207047002904D0018841F09E
:101E1000010101807047018821F0010101807047B4
:101E200010B50C4988420AD101214C05204600F02A
:101E3000EDFD2046BDE81040002100F0E7BD012186
:101E40008C05204600F0E2FD2046BDE81040002150
:101E500000F0DCBD00540040002904D0018841F4AA
:101E6000807101807047018821F480710180704782
:101E7000002904D0018841F4007101807047018875
:101E800021F40071018070470CB5024600200092D9
:101E90000A0F019221F07F41019A002A03D0009A93
:101EA0001432009203E0090C009A18320092009A52
:101EB00012680A4200D001200CBD00007FB5044624
:101EC0000D46A08820F03F06684600F0C9FD029844
:101ED0002749B0FBF1F189B20E43A680228822F097
:101EE00001022280234B2A689A4209D85200B0FB93
:101EF000F2F080B2042800D20420491C218423E09F
:101F0000EB88A3F53F46FF3E0BD002EBC20303EB89
:101F10000212B0FBF2F080B240F48040020506D01D
:101F200007E002EB4202B0FBF2F080B2F6E740F0CD
:101F3000010040F400404FF4967251434FF47A721E
:101F4000B1FBF2F1491C2184A083208840F00100FC
:101F5000208020884FF6F5310840A9886A8911430E
:101F600001432180A8892989084320817FBD000081
:101F700040420F00A0860100008AC0B27047002ACC
:101F800002D041F0010101E001F0FE010182704741
:101F900001827047024A0021117000F01DB8000054
:101FA000E00000207CB50546094B1C78002C0DD1C3
:101FB00001241C70284600F073F806490022CDE980
:101FC000002101231146284600F022F87CBD0000C4
:101FD000E0000020801A06001CB504462068FFF7C8
:101FE0001FFF00200090019094F904100346032283
:101FF000201DFFF78BF800200090019094F910103D
:102000000346032204F11000FFF780F81CBD000016
:102010002DE9FF4704460D4616461F46DDE90C989C
:102020001DB90020ADF8040008E0012D03D1022005
:10203000ADF8040002E00A20ADF8040026B94BF622
:10204000FF70ADF8060003E04FF48040ADF80600E5
:10205000012F03D1B802ADF80A0002E00020ADF86C
:102060000A00B9F1000F04D14FF48040ADF80C0024
:1020700003E04FF44040ADF80C000848804501D91A
:10208000009001E0CDF8008069462068FFF716FF58
:1020900001212068FFF7B8FEBDE8FF87801A06001F
:1020A0007CB504460E4615461548206001214805BA
:1020B00000F09EFC2068FFF7B3FE00200090012393
:1020C000022231460190201DFFF720F800200090E9
:1020D000012302222946019004F11000FFF716F8AF
:1020E000227902F00F010422A068FEF7DEFF227CB5
:1020F00002F00F0104226069FEF7D7FF7CBD0000EB
:10210000005400402DE9F0470446894690461F469A
:10211000089E72B64FF400450AE02800A5F10105BB
:1021200006D1204600F00CFA62B60020BDE8F08728
:102130004FF400312068FFF7A7FE0028EDD1012100
:102140002068FFF789FE4FF4004509E02800A5F15B
:10215000010505D1204600F0F3F962B60020E5E75D
:1021600089492068FFF744FE0028EFD00022494645
:102170002068FFF704FF4FF4004509E02800A5F1AF
:10218000010505D1204600F0DBF962B60020CDE75D
:102190007E492068FFF72CFE0028EFD07C480078AD
:1021A000012818D14FEA18212068FFF7F1FE4FF4FB
:1021B000004509E02800A5F1010505D1204600F001
:1021C000BFF962B60020B1E77049891E2068FFF7A9
:1021D0000FFE0028EED008F0FF012068FFF7D8FEC0
:1021E0004FF4004509E02800A5F1010505D120467E
:1021F00000F0A6F962B6002098E76449891E2068BD
:10220000FFF7F6FD0028EED04FF4004509E0280066
:10221000A5F1010505D1204600F092F962B6002033
:1022200084E75C492068FFF72FFE0028EFD00121EA
:102230002068FFF711FE4FF4004509E02800A5F1E2
:10224000010505D1204600F07BF962B600206DE75C
:102250004D492068FFF7CCFD0028EFD00122494608
:102260002068FFF78CFE022E38DA4FF4004509E0B3
:102270002800A5F1010505D1204600F061F962B6FC
:10228000002053E74349891E2068FFF7FDFD002821
:10229000EED000212068FFF79FFD2068008B012110
:1022A0002068FFF7E5FD4FF4004509E02800A5F19F
:1022B000010505D1204600F043F962B6002035E75C
:1022C00034493C312068FFF7DFFD0028EED020685C
:1022D000FFF752FE3870701E86B24EE04FF4004594
:1022E00009E02800A5F1010505D1204600F028F9F4
:1022F00062B600201AE72449491C2068FFF778FDE0
:102300000028EED024E0012E07D100212068FFF73D
:1023100063FD01212068FFF7ABFD4FF4004509E0A4
:102320002800A5F1010505D1204600F009F962B6A3
:102330000020FBE617493C312068FFF7A5FD002887
:10234000EED02068FFF718FE38707F1C701E86B232
:10235000002ED8D14FF4004509E02800A5F1010571
:1023600005D1204600F0ECF862B60020DEE62068D9
:10237000008800F400700028EFD101212068FFF7E9
:102380002BFD62B60120D1E60100030082000700A8
:1023900008000020040000102DE9F047044689469B
:1023A00016461F46DDF8208072B64FF400450AE05D
:1023B0002800A5F1010506D1204600F0C1F862B65B
:1023C0000020BDE8F0874FF400312068FFF75CFD86
:1023D0000028EDD101212068FFF73EFD4FF40045B4
:1023E00009E02800A5F1010505D1204600F0A8F874
:1023F00062B60020E5E748492068FFF7F9FC0028AD
:10240000EFD0002249462068FFF7B9FD4FF40045A0
:1024100009E02800A5F1010505D1204600F090F85B
:1024200062B60020CDE73D492068FFF7E1FC0028B7
:10243000EFD03B480078012817D1310A2068FFF718
:10244000A7FD4FF4004509E02800A5F1010505D1DD
:10245000204600F075F862B60020B2E72F49891EC9
:102460002068FFF7C5FC0028EED0F1B22068FFF726
:102470008FFD4FF4004509E02800A5F1010505D1C5
:10248000204600F05DF862B600209AE72349891ED5
:102490002068FFF7ADFC0028EED036E039782068E0
:1024A000FFF776FD4FF4004509E02800A5F101058E
:1024B00005D1204600F044F862B6002081E71749B4
:1024C000891E2068FFF794FC0028EED0B8F1010FB8
:1024D00016D101212068FFF7CBFC4FF4004509E03D
:1024E0002800A5F1010505D1204600F029F862B6C3
:1024F000002066E72068008800F400700028EFD113
:102500007F1CA8F101001FFA80F8B8F1000FC5D1B7
:1025100062B6012055E700000100030082000700B9
:102520000800002038B5049C044D2D78002D03D000
:102530000094FFF7E7FD38BD002038BDE000002023
:10254000034A0021117019221821FFF72BBD00004A
:10255000E00000202DE9F8430546089C0E4617468A
:1025600098460E480078002816D043463A46314631
:1025700028460094FFF710FF10B10120BDE8F88352
:1025800043463A46314628460094FFF705FF08B116
:102590000120F3E70020F1E70020EFE7E000002052
:1025A00001884088814201D1012070470020704796
:1025B00010B5044620466188FEF718FD2188884240
:1025C00001D1012010BD002010BD000008B5002081
:1025D00000900E2000F036F80948417869B90121D1
:1025E00041706946072000F00DF89DF80000C428EE
:1025F00001D0002008BD00F019F8012008BD00003E
:102600007E000020012200F001B8000008B50B4652
:10261000044900920246097803484906090EFFF76B
:1026200081FF08BD7E0000200C02002010B51021A3
:10263000112000F00DF8012801D0002010BD01206C
:1026400010BD000001490870704700007E000020A6
:1026500013B5012201A900F001F81CBD08B50B4615
:10266000044900920246097803484906090EFFF71B
:1026700071FF08BD7E0000200C02002008B500207C
:1026800000901C2000F036F80948417869B9012112
:10269000417069460D2000F00DF89DF800001A28E1
:1026A00001D0002008BD00F019F8012008BD00008D
:1026B00080000020012200F001B8000008B50B46A0
:1026C000044900920246097803484906090EFFF7BB
:1026D00029FF08BD800000200C02002010B5402119
:1026E0002B2000F00DF8012801D0002010BD0120A2
:1026F00010BD0000014908707047000080000020F4
:1027000013B5012201A900F001F81CBD08B50B4664
:10271000044900920246097803484906090EFFF76A
:1027200019FF08BD800000200C02002038B50020F1
:102730000090602000F058F81A4C607878BB694629
:102740000C2000F031F89DF80000C42801D00020D2
:1027500038BD00F03DF86946262000F025F89DF8C8
:1027600000000028F7D10721132000F053F81121B1
:10277000282000F04FF88021292000F04BF800219C
:102780002A2000F047F8A921262000F043F8B021C4
:102790002D2000F03FF800F02DF80120607001209E
:1027A00038BD000084000020012200F001B80000C4
:1027B00008B50B46044900920246097803484906C9
:1027C000090EFFF7AFFE08BD840000200C020020B8
:1027D00010B50421262000F01DF8012801D00020AA
:1027E00010BD012010BD00000149087070470000B5
:1027F0008400002008B50020009069462620FFF7DD
:10280000D3FF9DF8000040F001010091262000F068
:1028100001F808BD13B5012201A900F001F81CBDA3
:1028200008B50B4604490092024609780348490658
:10283000090EFFF78FFE08BD840000200C02002067
:10284000FEE7704730B50F23C27801250178002AD2
:102850001FD0154A126802F4E062C2F5E062C2F3CA
:102860000722C2F10404D3404278A24084781C407D
:102870001443220101F1E02181F80024007800F0E6
:102880001F018D404009800000F1E020C0F8005198
:1028900030BD01F01F0085404809800000F1E020B4
:1028A000C0F8805130BD00000CED00E00249084343
:1028B00002490860704700000000FA050CED00E0D6
:1028C0000A2802D2303040B27047102802D2373086
:1028D00040B270473F2070472DE9F04180460C46DA
:1028E00016461F460748C16A8847074D2246AC80F6
:1028F00041460648FDF71AFC6E70AF700120287043
:10290000BDE8F0816861000800000020EC000020B4
:1029100010B50348C06A804702490320087010BD03
:10292000686100080000002010B50348C06A8047B5
:1029300002490220087010BD6861000800000020F4
:1029400010B50348C06A804702490420087010BDD2
:10295000686100080000002010B50348C06A804785
:1029600002490520087010BD6861000800000020C1
:102970000A4B1A6822F0030202431A6008480268F0
:1029800042F004020260012905D020BF016821F055
:1029900004010160704730BFF8E70000007000409C
:1029A00010ED00E0014988627047000000000E420F
:1029B000014908617047000000000E4201490862A9
:1029C0007047000000000E42014948627047000055
:1029D00000000E42054A002903D01168014311602E
:1029E0007047116881431160704700001C38024035
:1029F000054A002903D0116801431160704711682E
:102A0000814311607047000024380240054A0029C4
:102A100003D0116801431160704711688143116050
:102A20007047000018380240054A002903D0116899
:102A300001431160704711688143116070470000C5
:102A400020380240054A002903D011680143116073
:102A500070471168814311607047000014380240CC
:102A600030B52C4B196801F00C011C1F4FF40045C8
:102A7000002925D0284A042929D0082929D00C2941
:102A800029D02168C1F34231491C8D400560196885
:102A900001F0F0010909214A545C0168E1404160FC
:102AA0001C6804F4E064240A145D21FA04F48460D0
:102AB0001B6803F46053DB0AD25CD140C16030BDB7
:102AC0002168C1F34231491C8D400560DFE7026097
:102AD000DDE70260DBE7196801F470111A6802F49F
:102AE00040020E4C093C04EB91410978012404EBAF
:102AF00092521C6804F480342CB1074C6143B1FB42
:102B0000F2F10160C3E7044C6143B1FBF2F10160F3
:102B1000BDE70000083802400024F4006E000020E9
:102B2000024600205109012909D00749096802F02D
:102B30001F02012393400B4200D00120704702493D
:102B400034390968F3E7000034380240024800686D
:102B500000F00C00704700000838024002490022D3
:102B60000A7008707047000002380240014908608E
:102B70007047000000004742024900220A700870B6
:102B80007047000035380240014908667047000070
:102B9000000047420149086070470000D8064742DC
:102BA000C0F30141032907D1094B196821F0C04145
:102BB00000F0C0420A431A60054934310A6822F421
:102BC00040320A600A6800F4403002430A607047ED
:102BD000003802400149086070470000DC064742A7
:102BE000034A116821F0030101431160704700009E
:102BF0000838024038B500220092144CCA222260E4
:102C000053222260114A1C3A002904D01168014362
:102C10001160012015E01168814311600B4A183AD8
:102C20005514116801EA1021009B5B1C0093009B66
:102C3000AB4201D00029F4D0116811EA102F03D063
:102C40000120FF21216038BD0020FAE72428004040
:102C500010B54FF48054204600F096F800280BD0B1
:102C600000F064FB02F09CFC204600F029F86001B3
:102C7000BDE81040FEF76AB910BD010901EB810102
:102C8000490000F00F000844C0B27047002103E083
:102C9000491CC9B20A38C0B20A28F9D2090740EA69
:102CA00011607047C0F3100040F08000C14303483A
:102CB000026802F080021143016070470C28004056
:102CC000000980B240F08000C1430348026802F06E
:102CD00080021143016070470C28004001210170FF
:102CE000817041700021C1707047000008B500205C
:102CF00000900E490868400615D44FF0FF30086078
:102D00004B14086800F04000009A521C0092009A90
:102D10009A4201D00028F4D00868400601D501206D
:102D200008BD002008BD012008BD00000C2800409F
:102D30000248016821F08001016070470C280040C2
:102D400010B502460C460E4801680E480140080CBA
:102D5000E070C1F30423637001F03F03A370C1F37B
:102D600042312170002A0AD1FFF787FFE0706078B6
:102D7000FFF783FF6070A078FFF77FFFA07010BDA2
:102D8000042800403FFFFF0010B500210D4A1268E3
:102D900002F004030B4A383A1268840C20FA04F457
:102DA000024003EAD4331A43064B343B1B6803EA60
:102DB0001010002A03D00004000C00D001210846A6
:102DC00010BD00004028004010B502460C460F48D8
:102DD00001680F480140C1F305402070C1F306238C
:102DE000637001F07F03A37001F48001090CE170AE
:102DF000002A0AD1FFF741FF20706078FFF73DFFFE
:102E00006070A078FFF739FFA07010BD0028004067
:102E10007F7F7F0030B50F4DCA222A6053222A607F
:102E20000C4C0C4B1C3C20F004021C3300F0040042
:102E3000002906D0216811432160196801431960F7
:102E400005E0216891432160196881431960FF20E2
:102E5000286030BD2428004070B504460025114E7E
:102E6000CA20306053203060FFF740FFA8B10D4802
:102E70001C38016821F0400101600168226811439B
:102E800001600848A168143801600168A28841EA1D
:102E900002410160FFF74CFF0125FF20306028460A
:102EA00070BD00002428004070B505460E4614464B
:102EB00000202B49002D06D00968490608D5207846
:102EC000FFF7DBFE05E00968490607D4E07005E07E
:102ED000E070A068A8B1207BFFF7CFFEADB1A0786D
:102EE0002178E27840EA01406178090241EA024132
:102EF0000843217B40EA0160A168084361680843F8
:102F00001CE0207BFFF7B9FEE8E72078FFF7BEFE64
:102F100005046078FFF7BAFE45EA0025A078FFF7C0
:102F2000B5FE0543E07845EA0045207BFFF7AEFE9D
:102F3000A16845EA00600843616808430849CA225D
:102F40001C310A6053220A60B6F5807F04D00A1F44
:102F50001060FF20086070BD014A14321060F8E76D
:102F60000828004070B505460C460026002D06D105
:102F70006078C10603D520F010000A3060702DB1D2
:102F80006078FFF77AFEA078FFF777FE55B1A0785A
:102F9000E17840EA014560782178000240EA41305A
:102FA00005430FE0E078FFF771FE05046078FFF756
:102FB0006DFE45EA0025A078FFF768FE05432078FE
:102FC00045EA40350E4CCA20206053202060FFF7B0
:102FD0008DFE88B10B480540094820380560FFF791
:102FE000A7FE07481C380068800604D400F066F885
:102FF00010B1012600E00126FF202060304670BDA0
:10300000242800403FFFFF002DE9F04105460C4613
:1030100000260020244F002D06D03968490608D527
:103020002078FFF72AFE05E03968490602D4E070EF
:1030300000E0E07055B1A078217840EA0145607861
:10304000E178000240EA014005430FE02078FFF7F5
:103050001DFE05046078FFF719FE45EA0025A078FB
:10306000FFF714FE0543E07845EA00450E4CCA2000
:103070001C34206053202060FFF738FE78B10B48E5
:103080000540094808380560FFF752FE3868800699
:1030900004D400F013F810B1012600E00126FF204F
:1030A00020603046BDE8F081082800407F7F7F0027
:1030B0000021C170017041708170704718B5002007
:1030C0000090104BCA201860532018600D49183921
:1030D000086820F0A0000860CC13086800F0200009
:1030E000009A521C0092009AA24201D00028F4D00B
:1030F0000868800601D5012000E00020FF2119604A
:1031000018BD00002428004010B54FF480742046FC
:10311000FFF7C8FD00212001FFF77CFE2046BDE837
:1031200010400021FFF766BD2DE9F0414FF47A71A0
:1031300000FB01F4002500F0D7F806460F4600E03A
:1031400000BF00F0D1F8801B61EB0701001BA94113
:10315000F6D3BDE8F081000010B50C4841788078C6
:10316000814312D072B6FDF737FC62B60020FFF73C
:103170001FFC0120FFF728FC0020FFF713FC0121B2
:10318000BDE810400846FFF7F3BB10BD100000205B
:103190002DE9FC4100242546002601A90020FFF767
:1031A00013FE69460020FFF7CBFDFFF787FF374886
:1031B000C178632905D19DF8031011B90179491C23
:1031C00001719DF80310C170007905E0304AA41820
:1031D00045F10005761CF6B28642F7D3002008E0E0
:1031E000A8B1820713D02B4AA41845F10005401C52
:1031F000C0B28142F4D8002371B188070CD00020FE
:103200009DF801701946DFF890C07F1E21E0234A27
:10321000A41845F10005EAE70020DFF87CC09DF81E
:1032200001700CF10C0C19467F1E07E01CF8002001
:103230001B4E724314194D41401CC0B28742F5DC4D
:1032400009E01CF80020164E724314194D41401C31
:10325000C0B28742F5DC9DF805009DF80610C0EB72
:10326000001001EB80029DF804004FF461614843B7
:103270009DF8021040F2A326714300EBC1101044E8
:1032800004195D4120462946BDE8FC81100000205C
:10329000E90B18BC8033E101506100080085E201B0
:1032A0008051010040F26F107047000010B5FFF729
:1032B0006FFF0A4AD2E90232C01A61EB0201801C98
:1032C00041F10001FDF722F9054A064BFDF708F828
:1032D00002F0CEFCBDE81040FDF743B9100000201D
:1032E00014AE47E17A845E4010B5FFF751FF801CB1
:1032F00041F10001FDF70AF9034A044BFCF7F0FF26
:10330000BDE81040FDF746B914AE47E17A845E404F
:1033100010B5054C2078002805D100F067F800F0C2
:1033200033F80120207010BD1000002010B502F00D
:1033300007F8002825D0134841788078814320D0B1
:1033400072B60120FFF70AFC3120FFF7E9FB0028E5
:10335000FAD00120FFF718FC3920FFF7E1FB002825
:10336000FAD00320FFF73CFCFFF7F0FB0C28FBD161
:103370000020FFF729FB0120FFF71AFBFDF764FB94
:1033800062B610BD1000002030B587B04FF4003495
:103390002046FDF7DBFD059400248DF81840082039
:1033A0008DF8190001258DF81A5005A8FDF7DEFDEE
:1033B00029208DF800008DF801408DF802408DF82D
:1033C00003506846FFF73EFAE8070290C40D01AAD1
:1033D00021460020FFF768FD00212001FFF71AFDBC
:1033E00000212046FFF706FC07B030BD00B585B0D0
:1033F00001210807FFF7FCFA0120FFF7DFFA01209F
:10340000FFF7E8FB0020FFF7E5FB0120FFF7B4FB27
:103410004920FFF785FB0028FAD04FF48030FFF7F2
:10342000BFFB0120FFF7B6FB01A8FFF741FE68468E
:10343000FFF754FC69460020FFF794FD01A9002026
:10344000FFF7E2FDFFF73AFE012003900490002011
:10345000029002A8FFF700FDFFF730FE05B000BDA7
:1034600010B504462046FDF744F80E4A0E4BFDF712
:10347000A9F801D24FF4B7744DF2D8610B488C42D1
:1034800002D20021417001E0012141704178807831
:10349000814301D0A4F648542046BDE8104000F016
:1034A00007B800008FC2F5285CE3764010000020CA
:1034B0002DE9F04786B00446FFF726FEFFF768FEC9
:1034C0005C4AC2E9020101A90020FFF77DFC6946C0
:1034D0000020FFF735FC2046FDF70BF8564A574B06
:1034E000FCF770FFFDF73DF85549564C8842A4F1B2
:1034F0000C0521D99DF806809DF805609DF80470A3
:103500009DF8020019309DF8031059B1890709D0C0
:103510009DF80110495D814260D2B0FBF1F201FBE0
:1035200012005BE09DF80110095D814256D2B0FBAC
:10353000F1F201FB120051E03C21B0FBF1F201FB82
:1035400012029DF806301A44B0FBF1F3B3FBF1F61A
:1035500001FB16339DF8056033444FF46166B0FB00
:10356000F6F64FF01809B6FBF9F709FB17669DF858
:10357000047006EB070C344EB0FBF6F09DF80260C9
:103580003044B2FBF1F601FB1628B2FBF1F61E4403
:10359000B6FBF1F701FB1766B2FBF1F71F44B7FB6F
:1035A000F1F76744B7FBF9FA09FB1A77B2FBF1F2BE
:1035B0001A44B2FBF1F16144B1FBF9F1084480B265
:1035C0009DF8031061B389072AD09DF80110495D69
:1035D000814203D2B0FBF1F201FB12008DF80A80A8
:1035E0008DF809608DF808708DF814009DF80700BB
:1035F0008DF80B000020049003904FF4807402AA11
:103600002146FFF751FCFFF759FD01210803FFF7A1
:1036100001FC01212046FFF7EDFA06B0BDE8F08776
:103620009DF80110095D8142D8D2B0FBF1F201FB97
:103630001200D3E71000002014AE47E17A845E4008
:1036400080F520005B61000880510100002904D052
:10365000018841F0400101807047018821F040015C
:103660000180704710B5154988420AD184140121A0
:103670002046FFF7E7F92046BDE810400021FFF79C
:10368000E1B90F4988420AD1041401212046FFF70D
:10369000BDF92046BDE810400021FFF7B7B9094940
:1036A00088420AD1C41301212046FFF7AFF9204612
:1036B000BDE810400021FFF7A9B910BD003001405E
:1036C00000380040003C00400246002012890A42B7
:1036D00000D001207047808970478181704730B5E4
:1036E000028802F441530A884C88CD8822438C8892
:1036F0002C4322430C8922434C8922438C89224348
:10370000CC8922431A430280828B22F40062828396
:10371000098A018230BD0021018041808180C18001
:10372000018141818181C1810721018270470000AF
:103730001CB500240094234603220421064801946A
:10374000FDF7E4FC04480094002303222D210C38EB
:103750000194FDF7DBFC1CBDCC0300201CB5002050
:103760000124CDE900400346224604210648FDF726
:10377000CDFC05480094002301222D210C38019432
:10378000FDF7C4FC1CBD0000CC03002001207047E5
:1037900080207047014890F88C007047D8040020C2
:1037A0002DE9F34F81B002460020DFF8E081002AC6
:1037B0000CD0012A7ED100242546D8F8C800002864
:1037C00057D0012858D002285BD158E0C246D8F81B
:1037D000A400FCF78EFE06460F460298FCF789FE11
:1037E00080468946302000F0A4FC30F0F90002D079
:1037F0000024674D01E000242546272000F099FCB5
:1038000020F0F800BAF8A810401C0844FCF771FE3C
:103810009AF8AA20012A25D000225D4BFCF7B9FCBA
:1038200022462B46FCF7B5FC42464B46FCF7B1FC62
:103830009AF8AC20012A18D000221346FCF7A9FC04
:103840000322FCF72EFE32463B46FCF7BBFD00226E
:10385000504BFCF745FD02F029FC03B0BDE8F04FEA
:10386000FCF77FBE00221346D8E700224FF08043CA
:10387000E4E70024484D04E00024484D01E0484DB1
:103880000024D8F8CC000121009001FA00F0FCF7E8
:103890001FFE02460B4620462946FCF793FD0246D2
:1038A0000B4600203A49FCF78DFD04460D46B8F85A
:1038B000D20000E068E0FCF71CFE0022394BFCF768
:1038C00068FC22462B46FCF70BFD82468B4698F897
:1038D000D100001DFCF70DFE064698F8D0000F46FB
:1038E00008B1022000E000200099C0EB8100FCF745
:1038F00000FE804602988946C1000098404201EBD4
:103900008001224890F8D60001EB00111F4890F882
:10391000D40008B1142000E00020081A1C30FCF785
:10392000E8FD42464B46FCF74DFD02F0A1F9324658
:103930003B46FCF7D5FC06460F46002213463046B0
:103940003946FCF757FE02D23046394601E00020E6
:1039500001460022144BFCF71CFC22462B46FCF7C8
:10396000BFFC52465B46FCF714FC0022094BFCF7F7
:10397000B7FC0E4A0E4BFCF70CFC02F0E7F903B063
:10398000BDE8F04FFCF7EDBDBDE8FE8FD804002088
:103990000000F03F80842E418084FE4080840E41F0
:1039A00080841E4100001140000020402B8716D962
:1039B000CEF7EF3F70B5194948601949194801F031
:1039C000A5FD18481649143001F0A0FD154814490A
:1039D000283001F09BFD00F0F1FB002000F038FDE5
:1039E0000E48083000F0AAF800240F4E04EB4405FE
:1039F000705D00F0F1FCA8198178407801F048F979
:103A0000641CE4B2102CF1D3002000F0E5FC054961
:103A10000020E83981F88C0070BD0000980000207B
:103A200065400008C0050020BC6100081CB50120ED
:103A3000009002460190002310211D48FDF766FB0F
:103A400000241B480094234622461121703801941B
:103A5000FDF75CFB1648002300941A461A216438CF
:103A60000194FDF753FB1248002300941A461B21D2
:103A700058380194FDF74AFB0D48002300941A467C
:103A800017214C380194FDF741FB094800230094AD
:103A90001A46152140380194FDF738FB04480023ED
:103AA00000941A46142134380194FDF72FFB1CBDF5
:103AB000540500207CB501240094002322461021E7
:103AC0001D480194FDF722FB00251B482B462A4682
:103AD00011217038CDE90045FDF718FB1648002389
:103AE0001A461A216438CDE90045FDF70FFB12484C
:103AF00000231A461B215838CDE90045FDF706FB87
:103B00000D4800231A4617214C38CDE90045FDF732
:103B1000FDFA094800231A4615214038CDE9004531
:103B2000FDF7F4FA044800231A4614213438CDE98D
:103B30000045FDF7EBFA7CBD5405002010B50446A6
:103B40000322012114482368FDF777FC1248032261
:103B500001210C306368FDF770FC0F48032201213E
:103B60001830A368FDF769FC0B48032201212430BB
:103B7000E368FDF762FC0848032201213030236925
:103B8000FDF75BFC0448636903220121BDE8104096
:103B90003C30FDF752BC0000E404002070B506463E
:103BA0000C461546304600F017FC204600F0D4FBCA
:103BB000052000F04DFC0120FDF7A7F8304600F08D
:103BC000EAFA044600F060FEAC4201DD002070BD60
:103BD000012070BDF8B5002400948D4F8D4E97F8EC
:103BE0008C0001280AD002284FD107F1E80001F02B
:103BF00075FD97F88D0001287ED1F8E097F88D00CB
:103C0000B0B1012841D14021122001F041F8122029
:103C100000F08FFA00909DF8000080066DD52021FD
:103C2000122001F035F897F8DA00002867D08CE010
:103C300097F8AC0001282FD13F2000F07AFA0090CD
:103C40009DF80000800727D40B213E2001F020F8CA
:103C500010213F2001F01CF897F8AE00B0B10D2004
:103C600000F067FA40F040010D2001F011F86848BB
:103C7000FC3001F033FD706810B1006900B180477D
:103C800007F8B44F7C70BC817C81F8BD87F88C400C
:103C9000614801F0F1FCEAE7B7F8BE105F4D11B9D9
:103CA000B7F8C00050B3BE377888091AC9B22844A3
:103CB00000F06CFA38887880BE3F97F8AE00A8B361
:103CC0000D2000F036FA40F040010D2000F0E0FF3A
:103CD0005148143801F002FD706840B1856835B173
:103CE00097F9B620B7F8BE1000234C48A84707F84C
:103CF000B44F7C70BC8103E07DE034E002E022E060
:103D00007C81F8BD97F8AA0088B1322000F011FA42
:103D1000A7F8BE0017F8BE1F7888091AC9B2284450
:103D200000F034FA38887880BE3FC6E705E03A48AC
:103D30000121523800F02AFAECE787F88C40364827
:103D400001F09AFCC4E787F88C403348143801F03E
:103D5000C5FC70680028D4D000690028D1D001B01B
:103D6000BDE8F0400047192000F0E3F940B287F8C1
:103D7000E000010605D5C043401CC0F38500454264
:103D800001E0C0F385051A2000F0D3F9002D06DA12
:103D900000EB201028448B38A7F8E20004E000EB89
:103DA00020108B38A7F8E200132000F0C2F987F842
:103DB000E4000146194800F0E9F997F8DA0008B97B
:103DC00087F88C401448143801F088FC706800288B
:103DD00097D08468002C94D017F9E03FA446B7F937
:103DE0000220397901B00D48BDE8F0406047082154
:103DF000122000F04DFF87F88C407068002880D0BA
:103E000000680028A7D001B0BDE8F04000470000DE
:103E1000D804002098000020E8050020D8030020E6
:103E200070B5334C04F18E0294F88C3012F8010C0A
:103E3000118E528EA4F58075012B15D0022B12D154
:103E4000002810D123468A1A94F8C310B3F8C03062
:103E5000284618448A4244DD00F044FF34F8C00F7D
:103E6000E1780844208070BD90B10128FBD1204842
:103E7000FC3001F033FC002084F88C001D484068C1
:103E80000028F0D0C0680028EDD0BDE870400047A1
:103E900041B93AB994F8AA00A8B1322000F049F922
:103EA000A4F8BE0034F8BE1F60880A1A2179BE3C0F
:103EB0008A420EDD284400F069F934F8C00FA17879
:103EC0000844208070BD0A480121BE3000F05EF930
:103ED000E8E7D1B2284400F059F934F8BE0F608009
:103EE00070BDD1B200F0FEFE34F8BE0F608070BD30
:103EF000D80400209800002070B5364C364D21467D
:103F000094F88C2091F88D0091F8D710012A1BD0DD
:103F1000022A5ED100285CD001285AD1012958D14B
:103F20000221122000F0B4FE6868002851D04069D8
:103F300000284ED01C2000F0FCF8696800F03F001B
:103F40004969BDE870400847B8B1012841D101294D
:103F50003FD10221122000F09BFE6868002838D073
:103F60004069002835D01C2000F0E3F8696800F0B3
:103F70003F004969BDE87040084794F8B400012843
:103F800027D194F8B500002823D1144801F0A6FBEE
:103F9000012004F8B50F112000F0CBF84008404292
:103FA00060701C2000F0C5F805461B2000F0C1F829
:103FB00045EA0020FCF79DFA0022094BFCF790F936
:103FC000FCF7B0FAC4F803000C2000F0B2F8400986
:103FD000E07170BDD804002098000020E8050020A2
:103FE00080844E4010B5154890F88D00002823D0ED
:103FF000012821D1122000F09CF8114CC0070DD0EF
:104000000521122000F044FE6068002814D0816968
:10401000002911D0BDE810400120084704211220DA
:1040200000F036FE6068002806D08169002903D0C0
:10403000BDE810400020084710BD0000D804002053
:1040400098000020064991F88D00002806D191F8CB
:10405000B400002802D1012081F8B40070470000AC
:10406000D804002070B5204C0025204E94F88C0018
:1040700001280CD0022835D184F88C5070680028B3
:1040800030D0406800282DD0BDE87040004794F83B
:104090008D00A8B9AE34A571E571658225820B212A
:1040A0003E2000F0F5FD10213F2000F0F1FD14F856
:1040B000AE0901280DD084F88C500D4801F00EFB9C
:1040C000706800280ED0C06800280BD0BDE8704092
:1040D00000470D2000F02DF840F040010D2000F0C9
:1040E000D7FDEDE770BD0000D80400209800002047
:1040F000E805002070B50025012000F06DF9FF21D2
:10410000112000F0C5FD052000F0A2F900240120D7
:10411000FCF7FBFD2C2000F00CF800F00100A040A3
:104120000543641CE4B2202CF1D300F0ADFB28461B
:1041300070BD08B50122694600F004F89DF8000042
:1041400008BD00002DE9F04104460D4616460E4814
:1041500000210746FDF77EF90B4804F07F0128385F
:10416000804600F095FF002406E00021404600F064
:104170008FFF2855641CE4B2B442F6D33846BDE83C
:10418000F0410121FDF766B9540500200A460146B9
:104190000020FFF7D7BF10B5002804D0012808D0B1
:1041A0004FF0FF3010BD1120FFF7C3FF4008404221
:1041B00010BD1B20FFF7BDFF8B3810BD7CB501255E
:1041C000002423462A4602210A48CDE90045FCF78F
:1041D0009DFF0120FCF799FD00231A4602210548A6
:1041E000CDE90045FCF792FFBDE87C400620FCF7D6
:1041F0008CBD0000D804002073B5054600203B4C60
:1042000094F88D10002902D001296BD12AE00020FA
:10421000AA34E0829DF80410A18214F8AA0950B1D2
:10422000322000F035FD9DF80420501E3F2807D8AD
:1042300084F8C3200BE0012101A800F053FDF2E750
:1042400029462B4801F028FF202084F8C300B03411
:104250002846E17C00F046FD208AE17C084420826B
:1042600020683FE094F8D900012822D03320FFF7DE
:1042700060FF00F0BE01491C332000F009FD1D2144
:104280003B2000F005FD9DF8041084F8E410222086
:1042900000F0FEFC00210E2000F0FAFC00210D20B1
:1042A00000F0F6FC0120FFF744FF30F0F8000DD0DD
:1042B00011E03320FFF73DFF00F0BE01332000F096
:1042C000E7FC19213B2000F0E3FCDCE700F0F0FA0A
:1042D0000120FCF71AFD9DF80410284600F002FDAD
:1042E000D4F8DC0000F0F8FA7CBD0000D80400200F
:1042F000D803002010B50F4991F88820824218D0C9
:1043000081F8880050B100210B48FDF7A3F80A4856
:104310000121BDE810400C30FDF79CB80121064892
:10432000FDF798F804480021BDE810400C30FDF777
:1043300091B810BDD8040020C003002005490A78B8
:10434000824205D0087008B1FFF7F2B9FFF706BA4C
:10435000704700002000002010B50E49C1F8900001
:10436000FCF7C7F800220C4BFCF72CF8FCF7F9F827
:104370000446C4F30741062000F08AFCC4F3072179
:10438000072000F085FCE1B2BDE81040082000F0F5
:104390007FBC0000D804002080844E4070B50446E5
:1043A0000D46204600F018F83CB1012C10D12946EA
:1043B000BDE87040232000F06BBC064890F8AA00CE
:1043C000002805D12946BDE87040322000F060BCCD
:1043D00070BD0000D804002010B51C494A6D002AA9
:1043E0001CD091F88D2082422ED081F88D000128BA
:1043F00015D0002000F02CF80120FFF79AFE00F005
:104400007F01012000F044FC0021402000F040FC2E
:104410003021BDE81040412000F03ABCFEE700200A
:1044200000F016F80120FFF784FE40F08001012023
:1044300000F02EFC0021402000F02AFC0021BDE805
:104440001040412000F024BC10BD0000D804002022
:1044500010B50446104801788C421CD0047094B109
:104460000020FFF76BFF032C11D00020FFF742FF65
:104470000120FFF75EFE00F0F8012143BDE8104087
:10448000012000F005BC0120FFF758FFF0E70120F4
:10449000FFF730FFECE710BD980000202DE9F04158
:1044A00005460024DFF89C8198F88D10002902D081
:1044B000012950D124E098F8AE404020FFF739FEA2
:1044C00000F0030040F00C01402000F0E1FB41202F
:1044D000FFF72FFE40F0C101412000F0D9FB35204D
:1044E000FFF727FE00F03F0088F8C200002188F89F
:1044F000B41088F8B510A8F8C010A8F8BE102AE0CB
:1045000098F8D900012842D03320FFF712FE00F0BE
:10451000BE01491C332000F0BBFB1D213B2000F0F5
:10452000B7FB98F8DA4098F8D70001283CD01F2153
:10453000112000F0ADFB4020FFF7FBFD00F03F0134
:10454000402000F0A5FB00210F2000F0A1FB00217E
:104550000D2000F09DFB4FF480713B48FBF7FFFD01
:10456000012088F88C0045B136482946FC3001F01E
:104570006DF83448FC3001F07FF898F88D0000B3F6
:10458000002C58D0BDE8F0410520FFF761BF332073
:10459000FFF7CFFD40F04101332000F079FB1921F6
:1045A0003B2000F075FBBCE71D21112000F070FBE3
:1045B0004020FFF7BEFD00F03301402000F068FB13
:1045C000C1E70520FFF744FF002C39D1D8F8A4003B
:1045D000FBF78FFF04460D462720FFF7AAFD20F0CA
:1045E000F800FBF786FF0022184BFBF7D2FD0646CA
:1045F0000F46B8F8A800FBF77CFF32463B46FBF7B6
:10460000C8FD0022124BFBF7C4FD0322FBF749FF54
:1046100022462B46FBF7D6FE00220E4BFBF760FE30
:10462000FBF79FFF01460C4801F010F8BDE8F04190
:10463000094801F021B8BDE8F0410620FFF708BFA6
:10464000BDE8F081D8040020D80300200000F03F2E
:104650000000244080842E41E80500202DE9F84F19
:104660008246DDE90E870B9E0D9C0D4691469B46CA
:104670005046FFF7B1FE310A81480091BAF1000FB0
:1046800023D0BAF1010F6ED18246C0F8C850CAF8E3
:10469000CC908AF8D1B0AAF8D2608AF8D4408AF8CF
:1046A000D5808AF8D67010988AF8D70011988AF8C1
:1046B000D80012988AF8D90013988AF8DA00B9F16C
:1046C0000C0F5AD94FF00C095CE040F89C5FC0F821
:1046D00008900A994160847380F80F8007741299DA
:1046E00041741399817486814846FBF702FF0246A4
:1046F0000B4600206349FBF765FEFBF732FF1FFA0C
:1047000080F94FEA1921022000F0C2FA09F0FF01F6
:10471000032000F0BDFA2846FCF7E2FC0146122017
:1047200000F0B6FA0A98FCF7DBFC0146132000F013
:10473000AFFA2520009900F0ABFAF1B2262000F084
:10474000A7FA24B14146322000F0A2FA03E0FF218B
:10475000322000F09DFA3020FFF7EBFC00F06F01F3
:1047600014B1002001E088E08020014341EA0711F4
:10477000BDE8F84F302000F08BBAB9F1060F01D236
:104780004FF006092DB9B9F10B0F44D0B9F10C0F58
:1047900041D0012D02D1B9F10C0F3CD000208AF894
:1047A000D0001D20FFF7C5FC002040EA851040EA3C
:1047B000CB0040EA84009AF8D01040EA4700084352
:1047C000C1B21D2000F064FA1E20FFF7B2FC0C9964
:1047D00000F00C00032240EA091002EA112108430C
:1047E000C1B21E2000F054FA0C98C1B21F2000F094
:1047F0004FFA2020009900F04BFAF1B2212000F08E
:1048000047FA1CB14146222000F042FA9AF8D7003C
:10481000012804D010E001208AF8D000C1E74B2025
:10482000FFF787FC40F080014B2000F031FA9AF846
:10483000D810242000F02CFAB9F1060F0ED0312048
:10484000FFF777FC00F0F801C91C312000F020FAD6
:10485000BDE8F84F0A21372000F01ABA3120FFF7DF
:1048600068FC00F0F801491D312000F011FABDE8A4
:10487000F84F0C21372000F00BBABDE8F88F00008C
:10488000D804002080847E4110B5084800F026FF3F
:104890000648143800F022FF0020FFF7D9FD034935
:1048A0000020FC3981F88C0010BD0000D4050020E8
:1048B00010B5084800F012FF0648143800F00EFF4B
:1048C0000120FFF7C5FD03490020FC3981F88C0069
:1048D00010BD0000D405002010B50146284800F0A6
:1048E000B5FE274CE83C94F88D0010B101282CD17E
:1048F00019E04020FFF71DFC00F0030040F010011C
:10490000402000F0C5F94120FFF713FC00F03E0104
:10491000412000F0BDF93520FFF70BFC00F03F000F
:1049200084F8C20011E094F8D700012818D0F721CC
:10493000112000F0ADF94020FFF7FBFB00F03F0035
:1049400040F04001402000F0A3F9022084F88C00E0
:104950000B4800F091FEBDE810400320FFF778BD42
:10496000F521112000F094F94020FFF7E2FB00F060
:10497000330040F04001402000F08AF9E5E70000F4
:10498000C00500202DE9FF4F81B010ACDDF8388064
:1049900070CC89469A460198FFF71EFD0920FFF763
:1049A000C8FB00905A20FFF7C4FB0746DFF894B21B
:1049B000DBF89000FEF7ECFE009901F07F01084360
:1049C00001062FD5B9F1110F02DD47F0070702E00C
:1049D00007F0F8073F1DF943490711D0B9F1020F5D
:1049E00001DA4FF00209B9F1110F01DD4FF01109A1
:1049F00000F0F001A9F1020000F00F00014322E0F5
:104A0000B9F1050F01DA4FF00509B9F1140F01DD15
:104A10004FF0140900F0F001A9F1050000F00F00BB
:104A2000014310E04FF0FF31894500DA8946B9F1C2
:104A30000E0F01DD4FF00E0900F0F00109F1010049
:104A400000F00F000143092000F022F939465A20F6
:104A500000F01EF90198270A10B3012871D18BF8D4
:104A6000C490CBF8C8A0CBF8CC800F988BF8D100BD
:104A7000ABF8D2408BF8D45013988BF8D700149928
:104A80008BF8D8108BF8D66015998BF8D910169939
:104A9000CBF8DC10B8F10C0F5ED94FF00C0860E0D9
:104AA0008BF894900398CBF89800CBF89CA0CBF8A7
:104AB000A480ABF8A8408BF8AA508BF8AC6015988E
:104AC0008BF8AD001698CBF8B0000398FBF711FDFA
:104AD00000225D4BFBF776FCFBF743FD1FFA80F9E4
:104AE0004FEA1921042000F0D3F809F0FF01052056
:104AF00000F0CEF84046FBF7FCFC02460B460020D7
:104B00005249FBF75FFCFBF72CFD1FFA80F84FEAD8
:104B10001821022000F0BCF808F0FF01032000F08B
:104B2000B7F83946252000F0B3F8E1B2262000F0AE
:104B3000AFF83020FFF7FDFA00F06F0115B100204B
:104B400001E07CE08020014305B041EA0611BDE8A8
:104B5000F04F302000F09CB8B8F1060F01D24FF0B2
:104B600006084FF00009BAF1000F05D1B8F10B0F9C
:104B70000DD0B8F10C0F0AD0BAF1010F02D1B8F183
:104B80000C0F04D08BF8D090012804D010E0012144
:104B90008BF8D010F8E74B20FFF7CBFA40F08001FC
:104BA0004B2000F075F89BF8D810242000F070F826
:104BB0001D20FFF7BEFA0F9849EA8A1141EAC000AA
:104BC00040EA85009BF8D01040EA46000843C1B295
:104BD0001D2000F05DF81E20FFF7ABFA68F31F10F0
:104BE000C1B21E2000F054F83946202000F050F8E1
:104BF000E1B2212000F04CF8B8F1060F0FD03120BF
:104C0000FFF797FA00F0F801C91C312000F040F8D6
:104C100005B00A21BDE8F04F372000F039B8312047
:104C2000FFF787FA00F0F801491D312000F030F855
:104C300005B00C21BDE8F04F372000F029B805B0D1
:104C4000BDE8F08FD804002080844E4080847E41EF
:104C500010B50E4C94F88D00002815D0012813D102
:104C6000FA21112000F014F84020FFF762FA00F05A
:104C70003F01402000F00CF8032084F88C00BDE8D0
:104C800010400720FFF7E4BB10BD0000D80400204F
:104C900013B5012201A900F001F81CBD2DE9F04176
:104CA00004460D4616460E4800210746FCF7D2FB87
:104CB0000B4844F080012838804600F0E9F90024D0
:104CC00005E0295D404600F0E3F9641CE4B2B4421B
:104CD000F7D33846BDE8F0410121FCF7BBBB00002B
:104CE000540500200A4601460020FFF7D7BF000008
:104CF00010B5074A5078002808D13E2000F030F85F
:104D000001205070BDE8104000F018B810BD000040
:104D100094000020012200F001B8000008B50B4605
:104D2000044900920246097803484906090EFDF736
:104D3000F9FB08BD940000200C02002010B51221E0
:104D40007D2000F013F8012805D134217D2000F0EA
:104D50000DF8012801D0002010BD012010BD000079
:104D600001490870704700009400002013B501222B
:104D700001A900F001F81CBD08B50B4604490092DA
:104D80000246097803484906090EFDF7E3FB08BD12
:104D9000940000200C02002008B50020009028207C
:104DA00000F036F80948417869B901214170694637
:104DB000062000F00DF89DF800000F2801D000201B
:104DC00008BD00F019F8012008BD00009600002081
:104DD000012200F001B8000008B50B46044900921A
:104DE0000246097803484906090EFDF79BFB08BDFA
:104DF000960000200C02002010B5DE217F2000F07C
:104E00000DF8012801D0002010BD012010BD0000C8
:104E100001490870704700009600002013B5012278
:104E200001A900F001F81CBD08B50B460449009229
:104E30000246097803484906090EFDF78BFB08BDB9
:104E4000960000200C02002010B58A07120F0F23D5
:104E5000934021F00304054921448C689C438C60F5
:104E60008B68904003438B6010BD00000000014040
:104E70000CB50022019200922D49086840F4803060
:104E800008604FF4A063086800F4003000900198B7
:104E9000401C0190009810B901989842F3D108681D
:104EA000800302D50120009000E0009200980128C4
:104EB0003CD12048026842F004020260026842F0DD
:104EC00002020260026842F00102026018482430C7
:104ED000026842F080520260C214174802604268C1
:104EE000D206FCD4124808300268026002680260F0
:104EF00002680260026822F47D020260026842F4E5
:104F0000090202600A6842F080720A600A6892012F
:104F1000FCD5016821F003010160016841F0030143
:104F200001600168C1F381010329FAD10CBD0000C1
:104F300000380240003C0240007000407CB504464E
:104F400000212068FEF782FB2068FEF78BFB00251E
:104F50000095019594F904102B460122201DFCF7C1
:104F6000D5F80220CDE9000594F9101000230122A4
:104F700004F11000FCF7CAF80095019594F91C1093
:104F80000023012204F11C00FCF7C0F8012000906E
:104F90000190024694F92810002304F12800FCF740
:104FA000B5F87CBD2DE9F0410446DDF818800D46CA
:104FB00017461E4600212068FEF748FB082D01D049
:104FC000102D03D1022F01D2022E00D3FEE7B8F13B
:104FD000010F1AD04FF4827010494880012F16D06B
:104FE0000020C880012E14D000200881082D12D086
:104FF0004FF40060888009492068FEF770FB206844
:10500000BDE8F0410121FEF721BB0020E4E70220CA
:10501000E7E70120E9E70020ECE70000AC0300200F
:1050200070B504460D4600212068FEF70FFB1648B8
:105030000068B0FBF5F008B1401E00E0002040EA37
:10504000500040EA900040EA101040EA102040EA88
:105050001041491C48420140B1FA81F0C0F12000E2
:10506000C1B2491E072900D907214FF6FF7000EA97
:10507000C100064988812068FEF731FB2068BDE841
:1050800070400121FEF7E2BA48000020AC03002086
:1050900070B504460D46002C16D02068A0B1022140
:1050A0002068FEF711FB0028F9D029462068FEF79A
:1050B00014FB01212068FEF707FB0028F9D02068C7
:1050C000BDE87040FEF707BBFEE700002DE9FC4796
:1050D00004460A9F8A46914698463748FEF71BFBCE
:1050E00000250226CDE900652B4632465146201D9B
:1050F000FCF70CF8CDE9006500230222494604F1D3
:105100001000FCF703F8CDE90065002302224146B8
:1051100004F11C00FBF7FAFF2079052200F00F01D3
:10512000A068FBF7C2FF207C052200F00F01606938
:10513000FBF7BBFF207F052200F00F01206AFBF781
:10514000B4FF781C4FF0010611D000960023022214
:10515000394604F128000196FBF7D8FF94F828009F
:10516000052200F00F01E06AFBF79FFF03E0124900
:105170004FF4007048811148206001218014FDF730
:1051800053FC7F1C10D000231A46082120460096AD
:10519000FFF708FF0A492046FFF742FF2068BDE8F5
:1051A000FC470121FEF752BA00231A460821204687
:1051B0000095FFF7F7FEEDE7AC030020003001405B
:1051C0008096980010B51048016841F48071016024
:1051D0000D4908310A680D4B1A400A6002680C4BF1
:1051E0001A400260026822F480220260086820F4FB
:1051F0007D000860091D00200860FFF739FE0549A1
:105200004FF00060086010BD003802400CC0FF88FD
:10521000FEFFFEEE08ED00E010B501218C072046F0
:1052200000F03BF8002812D000F062F9012120467E
:1052300000F024F806488268C1688369C0695A4052
:1052400041400A4303D1BDE8104000F0A9B910BDA8
:105250002800002010B5084C0121204600F01DF860
:10526000002807D000F03AF92046BDE8104001219F
:1052700000F004B810BD000000040040C9430182E2
:105280007047002904D0018841F001010180704776
:10529000018821F001010180704702460020138A35
:1052A0000B4092890A40002B02D0002A00D0012036
:1052B0007047002A03D082890A438281704782891D
:1052C0008A438281704700000288B0F1804F08D085
:1052D0000F4B984205D00F4B984202D00E4B98428C
:1052E00003D122F070034A881A430C4B984206D02F
:1052F0000B4B984203D022F440730A891A43028070
:105300004A68C262098801850121818270470000D4
:105310000004004000080040000C00400010004065
:10532000001400400549496804E0814201D1012090
:10533000704709690029F8D100207047E400002077
:105340000148007870470000E400002010B50548CF
:105350000078002803D0BDE81040FDF7A7BF00F09B
:1053600019F810BDE400002000B5014600F00AF86D
:10537000024600E000BF00F005F8801A8842F9D329
:1053800000BD704772B60248006862B67047000000
:105390002800002030B500F017F8094AD2E904349B
:1053A000C21A61EB0401521C41F100046421A2FB0A
:1053B000010504FB0151002302FB031130BD000075
:1053C00028000020C820704772B602498868C96862
:1053D00062B67047280000202DE9FF412F4D0024C0
:1053E0002C6001210846FDF703FB1C208DF80C0002
:1053F00001268DF80D608DF80E608DF80F6003A802
:10540000FDF720FA0020A861E86140F67F4501958C
:10541000ADF80040ADF80840ADF80240B707694666
:105420003846FFF751FF012211463846FFF741FF8A
:1054300001213846FFF725FF01210220FDF7D8FAA8
:105440001D208DF80C008DF80D408DF80E408DF864
:105450000F6003A8FDF7F6F901950A20ADF80000EA
:10546000ADF80840ADF802400D4C69462046FFF704
:105470002BFF002201212046FFF71BFF00212046C1
:10548000FFF7FFFE012211462046FFF712FF012120
:105490002046FFF7F6FEBDE8FF810000280000204F
:1054A0000004004010B50346FFF78EFF0A4AC2E928
:1054B0000401652B05D8401C41F100019061D161C8
:1054C00010BD5B1E6424B3FBF4F4201841F100030B
:1054D0009061D36110BD00002800002072B603481F
:1054E0000168491C016062B6704700002800002076
:1054F00072B605488168C268491C42F100028160A9
:10550000C26062B6704700002800002000220260DE
:1055100042600272C16002617047000030B4084B03
:105520005A68002A04D00468091B11600021117216
:10553000026101210172586030BC00F079B80000AE
:10554000E400002070B5154A546822690025002A3D
:1055500002D013680B4418E00268511A0160206100
:10556000056170BD06689E4209D20368591A016040
:1055700012B11368591A11602061026170BD14469E
:1055800012692AB1194616683344002CEAD170BD5D
:105590000168C91A01602061056170BDE400002046
:1055A00010B5134C2078002802D1606800281ED066
:1055B000FFF7CCFE61680A68824202D200200860D0
:1055C00007E0101A086004E001696160C06800B17A
:1055D0008047606810B101680029F5D06168002932
:1055E00005D001210172BDE8104000F021B810BDC6
:1055F000E40000200A494868002808D0007A012801
:1056000005D14878052803D24878401C4870704777
:1056100000204870087808B1FDF79EBDFFF7B1BEC5
:10562000E40000200149087070470000E4000020F9
:10563000054900224A7009780068002901D0FDF769
:105640000FBFFFF72FBF0000E400002070B5054634
:105650000C46284600F042F80648007810B1FDF7E5
:1056600021FE01E0FFF7AEFE844200D204462C602A
:105670006C6070BDE400002070B5044672B6002C6A
:1056800003D02046FFF74EFE08B162B670BD6168D8
:10569000216000202072104D686850B1017A012904
:1056A0000BD001682068884210D22046FFF736FFF1
:1056B0000FE02046FFF732FF0BE0FFF747FE696877
:1056C0000968814200D20846091AEBE72046FFF735
:1056D00039FF62B670BD0000E400002070B50446DA
:1056E00072B6214D6968084600290ED06CB1A142FE
:1056F00025D1087A0026012809D00869E8B1216877
:1057000068600268114401602BE062B670BDFFF76B
:105710001DFE2168814200D208460A1A696808699C
:1057200048B10E7268600168114401600121017284
:10573000FFF77EFF15E06E6013E06E6011E02268F7
:105740000DE0A14209D1096921B101610868104445
:10575000086006E00021016103E0084609690029AC
:10576000EFD162B670BD0000E40000202DE9F041E9
:10577000234C40F227763146204600F0A3F8214D15
:1057800070B105F11C000746FCF70AFF18B30022B0
:105790003146204600F0B6F8696B09B10020884711
:1057A00040F22531204600F08DF810B1204600F07F
:1057B0001FF940F22551204600F084F800281DD042
:1057C000204600F015F9C4B20E4828300646FCF712
:1057D000EFFE40B10BE03846FBF710FC01462046D7
:1057E00000F00AF9D8E721463046FBF716FC696B52
:1057F000002903D0BDE8F04101200847BDE8F08151
:105800000038014034020020002904D0818941F48D
:10581000005181817047818921F400518181704755
:1058200010B5234988420AD101218C032046FDF797
:1058300009F92046BDE810400021FDF703B91D49D4
:1058400088420AD101214C042046FDF7DFF82046AA
:10585000BDE810400021FDF7D9B8174988420AD1A8
:1058600001218C042046FDF7D1F82046BDE8104008
:105870000021FDF7CBB8114988420AD10121CC049F
:105880002046FDF7C3F82046BDE810400021FDF793
:10589000BDB80B4988420AD101210C052046FDF70D
:1058A000B5F82046BDE810400021FDF7AFB810BDA7
:1058B000003801400044004000480040004C0040D7
:1058C0000050004070B5002440F66A12C1F3421344
:1058D00001F01F05012606FA05F2012B0CD0022B60
:1058E0000DD0838A1340090A8E40008830400BB1E6
:1058F00000B10124204670BD83891340F3E7038A79
:105900001340F0E710B540F66A13C1F3421301F0FB
:105910001F040121A140012B07D0022B07D0143016
:105920003AB102680A43026010BD0C30F8E710304B
:10593000F6E702688A43026010BD00007FB50446A6
:105940000D46208A20F44051E88808432082A1892E
:1059500041F20C608143A8882A8910436A890A436E
:105960001043A081A08A20F44071A8890843A08236
:105970006846FDF775F81D48844201D1039800E0A0
:105980000298A189090408D500EBC00101EB0010C1
:1059900029684900B0FBF1F007E000EBC00101EB22
:1059A000001029688900B0FBF1F06422B0FBF2F12D
:1059B00009010B096FF018056B4300EB8300A38905
:1059C0001D044FF0320307D503EBC000B0FBF2F02B
:1059D00000F00700084306E003EB0010B0FBF2F014
:1059E00000F00F00084320817FBD00000038014017
:1059F0008088C0F308007047C1F3080181807047B8
:105A0000FEB5DDE908650A9C4778002F08D00778C5
:105A1000FF2F04D0CDE90065029400F01FF8FEBD11
:105A2000FEE7002141700178FF2901D000F0B0B8F5
:105A300070470278FF2A01D000F0C6B8FF207047F7
:105A400030B44478002C06D101244470FF2902D0E0
:105A500030BC00F0CBB830BC704700002DE9FF4FE0
:105A600085B00446DDE91396129D884625208DF801
:105A700000004FF0080B8DF801B000278DF8027080
:105A800001208DF803006846FCF7DCFEDFF8FCA07F
:105A9000B8F1000F1FD040F22551B8F1010F20D00E
:105AA000206A48B3E06A38B301225046FFF72AFF64
:105AB0000C20ADF80E000798019008994FF4805023
:105AC000D9B1ADF80800DDB1012D1CD0022D1DD0DB
:105AD000032D20D023E0206A10B1ADF80EB0EAE724
